{
  "_format": "hh-sol-artifact-1",
  "contractName": "DoctorPatientAccess",
  "sourceName": "contracts/DoctorPatientAccess.sol",
  "abi": [
    {
      "inputs": [
        {
          "internalType": "address",
          "name": "_userRegistryAddress",
          "type": "address"
        }
      ],
      "stateMutability": "nonpayable",
      "type": "constructor"
    },
    {
      "anonymous": false,
      "inputs": [
        {
          "indexed": true,
          "internalType": "address",
          "name": "doctor",
          "type": "address"
        },
        {
          "indexed": true,
          "internalType": "address",
          "name": "patient",
          "type": "address"
        },
        {
          "indexed": false,
          "internalType": "uint256",
          "name": "timestamp",
          "type": "uint256"
        }
      ],
      "name": "PatientAccessAdded",
      "type": "event"
    },
    {
      "anonymous": false,
      "inputs": [
        {
          "indexed": true,
          "internalType": "address",
          "name": "doctor",
          "type": "address"
        },
        {
          "indexed": true,
          "internalType": "address",
          "name": "patient",
          "type": "address"
        },
        {
          "indexed": false,
          "internalType": "uint256",
          "name": "timestamp",
          "type": "uint256"
        }
      ],
      "name": "PatientAccessRemoved",
      "type": "event"
    },
    {
      "inputs": [],
      "name": "getActivePatientAccess",
      "outputs": [
        {
          "components": [
            {
              "internalType": "address",
              "name": "patientAddress",
              "type": "address"
            },
            {
              "internalType": "uint256",
              "name": "grantTimestamp",
              "type": "uint256"
            },
            {
              "internalType": "uint256",
              "name": "revokeTimestamp",
              "type": "uint256"
            },
            {
              "internalType": "bool",
              "name": "isActive",
              "type": "bool"
            }
          ],
          "internalType": "struct DoctorPatientAccess.PatientAccess[]",
          "name": "",
          "type": "tuple[]"
        }
      ],
      "stateMutability": "view",
      "type": "function"
    },
    {
      "inputs": [],
      "name": "getAllPatientAccess",
      "outputs": [
        {
          "components": [
            {
              "internalType": "address",
              "name": "patientAddress",
              "type": "address"
            },
            {
              "internalType": "uint256",
              "name": "grantTimestamp",
              "type": "uint256"
            },
            {
              "internalType": "uint256",
              "name": "revokeTimestamp",
              "type": "uint256"
            },
            {
              "internalType": "bool",
              "name": "isActive",
              "type": "bool"
            }
          ],
          "internalType": "struct DoctorPatientAccess.PatientAccess[]",
          "name": "",
          "type": "tuple[]"
        }
      ],
      "stateMutability": "view",
      "type": "function"
    },
    {
      "inputs": [
        {
          "internalType": "address",
          "name": "doctorAddress",
          "type": "address"
        },
        {
          "internalType": "address",
          "name": "patientAddress",
          "type": "address"
        }
      ],
      "name": "hasAccessToPatient",
      "outputs": [
        {
          "internalType": "bool",
          "name": "",
          "type": "bool"
        }
      ],
      "stateMutability": "view",
      "type": "function"
    },
    {
      "inputs": [
        {
          "internalType": "address",
          "name": "_patientDoctorAccessAddress",
          "type": "address"
        }
      ],
      "name": "setPatientDoctorAccess",
      "outputs": [],
      "stateMutability": "nonpayable",
      "type": "function"
    },
    {
      "inputs": [
        {
          "internalType": "address",
          "name": "patientAddress",
          "type": "address"
        },
        {
          "internalType": "address",
          "name": "doctorAddress",
          "type": "address"
        },
        {
          "internalType": "bool",
          "name": "isGranted",
          "type": "bool"
        }
      ],
      "name": "updateAccessStatus",
      "outputs": [],
      "stateMutability": "nonpayable",
      "type": "function"
    }
  ],
  "bytecode": "0x608060405234801561001057600080fd5b50604051611c37380380611c37833981810160405281019061003291906100db565b806000806101000a81548173ffffffffffffffffffffffffffffffffffffffff021916908373ffffffffffffffffffffffffffffffffffffffff16021790555050610108565b600080fd5b600073ffffffffffffffffffffffffffffffffffffffff82169050919050565b60006100a88261007d565b9050919050565b6100b88161009d565b81146100c357600080fd5b50565b6000815190506100d5816100af565b92915050565b6000602082840312156100f1576100f0610078565b5b60006100ff848285016100c6565b91505092915050565b611b20806101176000396000f3fe608060405234801561001057600080fd5b50600436106100575760003560e01c8063081432c61461005c57806314d0446e146100785780633d2cc7fe1461009657806343a3ed63146100b45780634cd6da40146100d0575b600080fd5b61007660048036038101906100719190611296565b610100565b005b6100806101d5565b60405161008d919061140a565b60405180910390f35b61009e6103f5565b6040516100ab919061140a565b60405180910390f35b6100ce60048036038101906100c99190611458565b610730565b005b6100ea60048036038101906100e591906114ab565b610e98565b6040516100f791906114fa565b60405180910390f35b600073ffffffffffffffffffffffffffffffffffffffff16600160009054906101000a900473ffffffffffffffffffffffffffffffffffffffff1673ffffffffffffffffffffffffffffffffffffffff1614610191576040517f08c379a000000000000000000000000000000000000000000000000000000000815260040161018890611572565b60405180910390fd5b80600160006101000a81548173ffffffffffffffffffffffffffffffffffffffff021916908373ffffffffffffffffffffffffffffffffffffffff16021790555050565b60606002808111156101ea576101e9611592565b5b60008054906101000a900473ffffffffffffffffffffffffffffffffffffffff1673ffffffffffffffffffffffffffffffffffffffff166327820851336040518263ffffffff1660e01b815260040161024391906115d0565b602060405180830381865afa158015610260573d6000803e3d6000fd5b505050506040513d601f19601f820116820180604052508101906102849190611610565b600281111561029657610295611592565b5b146102d6576040517f08c379a00000000000000000000000000000000000000000000000000000000081526004016102cd906116af565b60405180910390fd5b600260003373ffffffffffffffffffffffffffffffffffffffff1673ffffffffffffffffffffffffffffffffffffffff168152602001908152602001600020805480602002602001604051908101604052809291908181526020016000905b828210156103ec57838290600052602060002090600402016040518060800160405290816000820160009054906101000a900473ffffffffffffffffffffffffffffffffffffffff1673ffffffffffffffffffffffffffffffffffffffff1673ffffffffffffffffffffffffffffffffffffffff16815260200160018201548152602001600282015481526020016003820160009054906101000a900460ff16151515158152505081526020019060010190610335565b50505050905090565b606060028081111561040a57610409611592565b5b60008054906101000a900473ffffffffffffffffffffffffffffffffffffffff1673ffffffffffffffffffffffffffffffffffffffff166327820851336040518263ffffffff1660e01b815260040161046391906115d0565b602060405180830381865afa158015610480573d6000803e3d6000fd5b505050506040513d601f19601f820116820180604052508101906104a49190611610565b60028111156104b6576104b5611592565b5b146104f6576040517f08c379a00000000000000000000000000000000000000000000000000000000081526004016104ed906116af565b60405180910390fd5b6000600260003373ffffffffffffffffffffffffffffffffffffffff1673ffffffffffffffffffffffffffffffffffffffff16815260200190815260200160002090506000805b828054905081101561059c5782818154811061055c5761055b6116cf565b5b906000526020600020906004020160030160009054906101000a900460ff161561058f57818061058b9061172d565b9250505b808060010191505061053d565b5060008167ffffffffffffffff8111156105b9576105b8611775565b5b6040519080825280602002602001820160405280156105f257816020015b6105df6111f3565b8152602001906001900390816105d75790505b5090506000805b848054905081101561072557848181548110610618576106176116cf565b5b906000526020600020906004020160030160009054906101000a900460ff16156107185784818154811061064f5761064e6116cf565b5b90600052602060002090600402016040518060800160405290816000820160009054906101000a900473ffffffffffffffffffffffffffffffffffffffff1673ffffffffffffffffffffffffffffffffffffffff1673ffffffffffffffffffffffffffffffffffffffff16815260200160018201548152602001600282015481526020016003820160009054906101000a900460ff1615151515815250508383806106f99061172d565b94508151811061070c5761070b6116cf565b5b60200260200101819052505b80806001019150506105f9565b508194505050505090565b600160009054906101000a900473ffffffffffffffffffffffffffffffffffffffff1673ffffffffffffffffffffffffffffffffffffffff163373ffffffffffffffffffffffffffffffffffffffff16146107c0576040517f08c379a00000000000000000000000000000000000000000000000000000000081526004016107b790611816565b60405180910390fd5b600160028111156107d4576107d3611592565b5b60008054906101000a900473ffffffffffffffffffffffffffffffffffffffff1673ffffffffffffffffffffffffffffffffffffffff166327820851856040518263ffffffff1660e01b815260040161082d91906115d0565b602060405180830381865afa15801561084a573d6000803e3d6000fd5b505050506040513d601f19601f8201168201806040525081019061086e9190611610565b60028111156108805761087f611592565b5b146108c0576040517f08c379a00000000000000000000000000000000000000000000000000000000081526004016108b7906118a8565b60405180910390fd5b6002808111156108d3576108d2611592565b5b60008054906101000a900473ffffffffffffffffffffffffffffffffffffffff1673ffffffffffffffffffffffffffffffffffffffff166327820851846040518263ffffffff1660e01b815260040161092c91906115d0565b602060405180830381865afa158015610949573d6000803e3d6000fd5b505050506040513d601f19601f8201168201806040525081019061096d9190611610565b600281111561097f5761097e611592565b5b146109bf576040517f08c379a00000000000000000000000000000000000000000000000000000000081526004016109b69061193a565b60405180910390fd5b6000600360008473ffffffffffffffffffffffffffffffffffffffff1673ffffffffffffffffffffffffffffffffffffffff16815260200190815260200160002060008573ffffffffffffffffffffffffffffffffffffffff1673ffffffffffffffffffffffffffffffffffffffff1681526020019081526020016000205490508115610d535760008103610c48576000600260008573ffffffffffffffffffffffffffffffffffffffff1673ffffffffffffffffffffffffffffffffffffffff168152602001908152602001600020805490509050600260008573ffffffffffffffffffffffffffffffffffffffff1673ffffffffffffffffffffffffffffffffffffffff16815260200190815260200160002060405180608001604052808773ffffffffffffffffffffffffffffffffffffffff1681526020014281526020016000815260200160011515815250908060018154018082558091505060019003906000526020600020906004020160009091909190915060008201518160000160006101000a81548173ffffffffffffffffffffffffffffffffffffffff021916908373ffffffffffffffffffffffffffffffffffffffff160217905550602082015181600101556040820151816002015560608201518160030160006101000a81548160ff0219169083151502179055505050600181610bc2919061195a565b600360008673ffffffffffffffffffffffffffffffffffffffff1673ffffffffffffffffffffffffffffffffffffffff16815260200190815260200160002060008773ffffffffffffffffffffffffffffffffffffffff1673ffffffffffffffffffffffffffffffffffffffff1681526020019081526020016000208190555050610ce9565b6000600260008573ffffffffffffffffffffffffffffffffffffffff1673ffffffffffffffffffffffffffffffffffffffff168152602001908152602001600020600183610c96919061198e565b81548110610ca757610ca66116cf565b5b9060005260206000209060040201905060018160030160006101000a81548160ff02191690831515021790555042816001018190555060008160020181905550505b8373ffffffffffffffffffffffffffffffffffffffff168373ffffffffffffffffffffffffffffffffffffffff167f1c723958697bbf843a76b43c97c33fbcb9c0ebe42d6adb8ae101442a1c730b9142604051610d4691906119d1565b60405180910390a3610e92565b60008111610d96576040517f08c379a0000000000000000000000000000000000000000000000000000000008152600401610d8d90611a38565b60405180910390fd5b6000600260008573ffffffffffffffffffffffffffffffffffffffff1673ffffffffffffffffffffffffffffffffffffffff168152602001908152602001600020600183610de4919061198e565b81548110610df557610df46116cf565b5b9060005260206000209060040201905060008160030160006101000a81548160ff0219169083151502179055504281600201819055508473ffffffffffffffffffffffffffffffffffffffff168473ffffffffffffffffffffffffffffffffffffffff167f51f9b5959df459c21ca4661dbd3b2436cd5af331407b8c16b55adf0afba71afd42604051610e8891906119d1565b60405180910390a3505b50505050565b600081838173ffffffffffffffffffffffffffffffffffffffff163373ffffffffffffffffffffffffffffffffffffffff161480610f0157508073ffffffffffffffffffffffffffffffffffffffff163373ffffffffffffffffffffffffffffffffffffffff16145b610f40576040517f08c379a0000000000000000000000000000000000000000000000000000000008152600401610f3790611aca565b60405180910390fd5b600280811115610f5357610f52611592565b5b60008054906101000a900473ffffffffffffffffffffffffffffffffffffffff1673ffffffffffffffffffffffffffffffffffffffff166327820851876040518263ffffffff1660e01b8152600401610fac91906115d0565b602060405180830381865afa158015610fc9573d6000803e3d6000fd5b505050506040513d601f19601f82011682018060405250810190610fed9190611610565b6002811115610fff57610ffe611592565b5b1415806110ca57506001600281111561101b5761101a611592565b5b60008054906101000a900473ffffffffffffffffffffffffffffffffffffffff1673ffffffffffffffffffffffffffffffffffffffff166327820851866040518263ffffffff1660e01b815260040161107491906115d0565b602060405180830381865afa158015611091573d6000803e3d6000fd5b505050506040513d601f19601f820116820180604052508101906110b59190611610565b60028111156110c7576110c6611592565b5b14155b156110d857600092506111eb565b6000600360008773ffffffffffffffffffffffffffffffffffffffff1673ffffffffffffffffffffffffffffffffffffffff16815260200190815260200160002060008673ffffffffffffffffffffffffffffffffffffffff1673ffffffffffffffffffffffffffffffffffffffff1681526020019081526020016000205490506000810361116b5760009350506111eb565b600260008773ffffffffffffffffffffffffffffffffffffffff1673ffffffffffffffffffffffffffffffffffffffff1681526020019081526020016000206001826111b7919061198e565b815481106111c8576111c76116cf565b5b906000526020600020906004020160030160009054906101000a900460ff169350505b505092915050565b6040518060800160405280600073ffffffffffffffffffffffffffffffffffffffff16815260200160008152602001600081526020016000151581525090565b600080fd5b600073ffffffffffffffffffffffffffffffffffffffff82169050919050565b600061126382611238565b9050919050565b61127381611258565b811461127e57600080fd5b50565b6000813590506112908161126a565b92915050565b6000602082840312156112ac576112ab611233565b5b60006112ba84828501611281565b91505092915050565b600081519050919050565b600082825260208201905092915050565b6000819050602082019050919050565b6112f881611258565b82525050565b6000819050919050565b611311816112fe565b82525050565b60008115159050919050565b61132c81611317565b82525050565b60808201600082015161134860008501826112ef565b50602082015161135b6020850182611308565b50604082015161136e6040850182611308565b5060608201516113816060850182611323565b50505050565b60006113938383611332565b60808301905092915050565b6000602082019050919050565b60006113b7826112c3565b6113c181856112ce565b93506113cc836112df565b8060005b838110156113fd5781516113e48882611387565b97506113ef8361139f565b9250506001810190506113d0565b5085935050505092915050565b6000602082019050818103600083015261142481846113ac565b905092915050565b61143581611317565b811461144057600080fd5b50565b6000813590506114528161142c565b92915050565b60008060006060848603121561147157611470611233565b5b600061147f86828701611281565b935050602061149086828701611281565b92505060406114a186828701611443565b9150509250925092565b600080604083850312156114c2576114c1611233565b5b60006114d085828601611281565b92505060206114e185828601611281565b9150509250929050565b6114f481611317565b82525050565b600060208201905061150f60008301846114eb565b92915050565b600082825260208201905092915050565b7f416c726561647920696e697469616c697a656400000000000000000000000000600082015250565b600061155c601383611515565b915061156782611526565b602082019050919050565b6000602082019050818103600083015261158b8161154f565b9050919050565b7f4e487b7100000000000000000000000000000000000000000000000000000000600052602160045260246000fd5b6115ca81611258565b82525050565b60006020820190506115e560008301846115c1565b92915050565b600381106115f857600080fd5b50565b60008151905061160a816115eb565b92915050565b60006020828403121561162657611625611233565b5b6000611634848285016115fb565b91505092915050565b7f4f6e6c7920646f63746f72732063616e2063616c6c20746869732066756e637460008201527f696f6e0000000000000000000000000000000000000000000000000000000000602082015250565b6000611699602383611515565b91506116a48261163d565b604082019050919050565b600060208201905081810360008301526116c88161168c565b9050919050565b7f4e487b7100000000000000000000000000000000000000000000000000000000600052603260045260246000fd5b7f4e487b7100000000000000000000000000000000000000000000000000000000600052601160045260246000fd5b6000611738826112fe565b91507fffffffffffffffffffffffffffffffffffffffffffffffffffffffffffffffff820361176a576117696116fe565b5b600182019050919050565b7f4e487b7100000000000000000000000000000000000000000000000000000000600052604160045260246000fd5b7f4f6e6c792050617469656e74446f63746f724163636573732063616e2063616c60008201527f6c20746869730000000000000000000000000000000000000000000000000000602082015250565b6000611800602683611515565b915061180b826117a4565b604082019050919050565b6000602082019050818103600083015261182f816117f3565b9050919050565b7f41646472657373206973206e6f7420612072656769737465726564207061746960008201527f656e740000000000000000000000000000000000000000000000000000000000602082015250565b6000611892602383611515565b915061189d82611836565b604082019050919050565b600060208201905081810360008301526118c181611885565b9050919050565b7f41646472657373206973206e6f742061207265676973746572656420646f637460008201527f6f72000000000000000000000000000000000000000000000000000000000000602082015250565b6000611924602283611515565b915061192f826118c8565b604082019050919050565b6000602082019050818103600083015261195381611917565b9050919050565b6000611965826112fe565b9150611970836112fe565b9250828201905080821115611988576119876116fe565b5b92915050565b6000611999826112fe565b91506119a4836112fe565b92508282039050818111156119bc576119bb6116fe565b5b92915050565b6119cb816112fe565b82525050565b60006020820190506119e660008301846119c2565b92915050565b7f4e6f20616363657373207265636f726420666f756e6400000000000000000000600082015250565b6000611a22601683611515565b9150611a2d826119ec565b602082019050919050565b60006020820190508181036000830152611a5181611a15565b9050919050565b7f4e6f7420617574686f72697a656420746f20766965772074686973206163636560008201527f7373000000000000000000000000000000000000000000000000000000000000602082015250565b6000611ab4602283611515565b9150611abf82611a58565b604082019050919050565b60006020820190508181036000830152611ae381611aa7565b905091905056fea2646970667358221220bdf2274248f26d3d9498e12ebd6119e25dcae5320a0d8174919d0462a6326d9764736f6c634300081c0033",
  "linkReferences": {},
  "deployedLinkReferences": {}
}