{
  "_format": "hh-sol-artifact-1",
  "contractName": "DoctorPatientAccess",
  "sourceName": "contracts/DoctorPatientAccess.sol",
  "abi": [
    {
      "inputs": [
        {
          "internalType": "address",
          "name": "_userRegistryAddress",
          "type": "address"
        }
      ],
      "stateMutability": "nonpayable",
      "type": "constructor"
    },
    {
      "anonymous": false,
      "inputs": [
        {
          "indexed": true,
          "internalType": "address",
          "name": "doctor",
          "type": "address"
        },
        {
          "indexed": true,
          "internalType": "address",
          "name": "patient",
          "type": "address"
        },
        {
          "indexed": false,
          "internalType": "uint256",
          "name": "timestamp",
          "type": "uint256"
        }
      ],
      "name": "PatientAccessAdded",
      "type": "event"
    },
    {
      "anonymous": false,
      "inputs": [
        {
          "indexed": true,
          "internalType": "address",
          "name": "doctor",
          "type": "address"
        },
        {
          "indexed": true,
          "internalType": "address",
          "name": "patient",
          "type": "address"
        },
        {
          "indexed": false,
          "internalType": "uint256",
          "name": "timestamp",
          "type": "uint256"
        }
      ],
      "name": "PatientAccessRemoved",
      "type": "event"
    },
    {
      "inputs": [
        {
          "internalType": "address",
          "name": "doctorAddress",
          "type": "address"
        }
      ],
      "name": "getActivePatientAccess",
      "outputs": [
        {
          "components": [
            {
              "internalType": "address",
              "name": "patientAddress",
              "type": "address"
            },
            {
              "internalType": "uint256",
              "name": "grantTimestamp",
              "type": "uint256"
            },
            {
              "internalType": "uint256",
              "name": "revokeTimestamp",
              "type": "uint256"
            },
            {
              "internalType": "bool",
              "name": "isActive",
              "type": "bool"
            }
          ],
          "internalType": "struct DoctorPatientAccess.PatientAccess[]",
          "name": "",
          "type": "tuple[]"
        }
      ],
      "stateMutability": "view",
      "type": "function"
    },
    {
      "inputs": [
        {
          "internalType": "address",
          "name": "doctorAddress",
          "type": "address"
        }
      ],
      "name": "getAllPatientAccess",
      "outputs": [
        {
          "components": [
            {
              "internalType": "address",
              "name": "patientAddress",
              "type": "address"
            },
            {
              "internalType": "uint256",
              "name": "grantTimestamp",
              "type": "uint256"
            },
            {
              "internalType": "uint256",
              "name": "revokeTimestamp",
              "type": "uint256"
            },
            {
              "internalType": "bool",
              "name": "isActive",
              "type": "bool"
            }
          ],
          "internalType": "struct DoctorPatientAccess.PatientAccess[]",
          "name": "",
          "type": "tuple[]"
        }
      ],
      "stateMutability": "view",
      "type": "function"
    },
    {
      "inputs": [
        {
          "internalType": "address",
          "name": "doctorAddress",
          "type": "address"
        },
        {
          "internalType": "address",
          "name": "patientAddress",
          "type": "address"
        }
      ],
      "name": "hasAccessToPatient",
      "outputs": [
        {
          "internalType": "bool",
          "name": "",
          "type": "bool"
        }
      ],
      "stateMutability": "view",
      "type": "function"
    },
    {
      "inputs": [
        {
          "internalType": "address",
          "name": "_patientDoctorAccessAddress",
          "type": "address"
        }
      ],
      "name": "setPatientDoctorAccess",
      "outputs": [],
      "stateMutability": "nonpayable",
      "type": "function"
    },
    {
      "inputs": [
        {
          "internalType": "address",
          "name": "patientAddress",
          "type": "address"
        },
        {
          "internalType": "address",
          "name": "doctorAddress",
          "type": "address"
        },
        {
          "internalType": "bool",
          "name": "isGranted",
          "type": "bool"
        }
      ],
      "name": "updateAccessStatus",
      "outputs": [],
      "stateMutability": "nonpayable",
      "type": "function"
    }
  ],
  "bytecode": "0x608060405234801561001057600080fd5b50604051611e92380380611e92833981810160405281019061003291906100db565b806000806101000a81548173ffffffffffffffffffffffffffffffffffffffff021916908373ffffffffffffffffffffffffffffffffffffffff16021790555050610108565b600080fd5b600073ffffffffffffffffffffffffffffffffffffffff82169050919050565b60006100a88261007d565b9050919050565b6100b88161009d565b81146100c357600080fd5b50565b6000815190506100d5816100af565b92915050565b6000602082840312156100f1576100f0610078565b5b60006100ff848285016100c6565b91505092915050565b611d7b806101176000396000f3fe608060405234801561001057600080fd5b50600436106100575760003560e01c8063081432c61461005c57806343a3ed63146100785780634cd6da401461009457806358789b95146100c457806396f72fb3146100f4575b600080fd5b61007660048036038101906100719190611517565b610124565b005b610092600480360381019061008d919061157c565b6102f8565b005b6100ae60048036038101906100a991906115cf565b610a62565b6040516100bb919061161e565b60405180910390f35b6100de60048036038101906100d99190611517565b610d15565b6040516100eb9190611774565b60405180910390f35b61010e60048036038101906101099190611517565b611153565b60405161011b9190611774565b60405180910390f35b60028081111561013757610136611796565b5b60008054906101000a900473ffffffffffffffffffffffffffffffffffffffff1673ffffffffffffffffffffffffffffffffffffffff166327820851336040518263ffffffff1660e01b815260040161019091906117d4565b602060405180830381865afa1580156101ad573d6000803e3d6000fd5b505050506040513d601f19601f820116820180604052508101906101d19190611814565b60028111156101e3576101e2611796565b5b14610223576040517f08c379a000000000000000000000000000000000000000000000000000000000815260040161021a906118c4565b60405180910390fd5b600073ffffffffffffffffffffffffffffffffffffffff16600160009054906101000a900473ffffffffffffffffffffffffffffffffffffffff1673ffffffffffffffffffffffffffffffffffffffff16146102b4576040517f08c379a00000000000000000000000000000000000000000000000000000000081526004016102ab90611930565b60405180910390fd5b80600160006101000a81548173ffffffffffffffffffffffffffffffffffffffff021916908373ffffffffffffffffffffffffffffffffffffffff16021790555050565b826001600281111561030d5761030c611796565b5b60008054906101000a900473ffffffffffffffffffffffffffffffffffffffff1673ffffffffffffffffffffffffffffffffffffffff166327820851836040518263ffffffff1660e01b815260040161036691906117d4565b602060405180830381865afa158015610383573d6000803e3d6000fd5b505050506040513d601f19601f820116820180604052508101906103a79190611814565b60028111156103b9576103b8611796565b5b146103f9576040517f08c379a00000000000000000000000000000000000000000000000000000000081526004016103f0906119c2565b60405180910390fd5b600160009054906101000a900473ffffffffffffffffffffffffffffffffffffffff1673ffffffffffffffffffffffffffffffffffffffff163373ffffffffffffffffffffffffffffffffffffffff1614610489576040517f08c379a000000000000000000000000000000000000000000000000000000000815260040161048090611a54565b60405180910390fd5b60028081111561049c5761049b611796565b5b60008054906101000a900473ffffffffffffffffffffffffffffffffffffffff1673ffffffffffffffffffffffffffffffffffffffff166327820851856040518263ffffffff1660e01b81526004016104f591906117d4565b602060405180830381865afa158015610512573d6000803e3d6000fd5b505050506040513d601f19601f820116820180604052508101906105369190611814565b600281111561054857610547611796565b5b14610588576040517f08c379a000000000000000000000000000000000000000000000000000000000815260040161057f90611ac0565b60405180910390fd5b6000600360008573ffffffffffffffffffffffffffffffffffffffff1673ffffffffffffffffffffffffffffffffffffffff16815260200190815260200160002060008673ffffffffffffffffffffffffffffffffffffffff1673ffffffffffffffffffffffffffffffffffffffff168152602001908152602001600020549050821561091c5760008103610811576000600260008673ffffffffffffffffffffffffffffffffffffffff1673ffffffffffffffffffffffffffffffffffffffff168152602001908152602001600020805490509050600260008673ffffffffffffffffffffffffffffffffffffffff1673ffffffffffffffffffffffffffffffffffffffff16815260200190815260200160002060405180608001604052808873ffffffffffffffffffffffffffffffffffffffff1681526020014281526020016000815260200160011515815250908060018154018082558091505060019003906000526020600020906004020160009091909190915060008201518160000160006101000a81548173ffffffffffffffffffffffffffffffffffffffff021916908373ffffffffffffffffffffffffffffffffffffffff160217905550602082015181600101556040820151816002015560608201518160030160006101000a81548160ff021916908315150217905550505060018161078b9190611b0f565b600360008773ffffffffffffffffffffffffffffffffffffffff1673ffffffffffffffffffffffffffffffffffffffff16815260200190815260200160002060008873ffffffffffffffffffffffffffffffffffffffff1673ffffffffffffffffffffffffffffffffffffffff16815260200190815260200160002081905550506108b2565b6000600260008673ffffffffffffffffffffffffffffffffffffffff1673ffffffffffffffffffffffffffffffffffffffff16815260200190815260200160002060018361085f9190611b43565b815481106108705761086f611b77565b5b9060005260206000209060040201905060018160030160006101000a81548160ff02191690831515021790555042816001018190555060008160020181905550505b8473ffffffffffffffffffffffffffffffffffffffff168473ffffffffffffffffffffffffffffffffffffffff167f1c723958697bbf843a76b43c97c33fbcb9c0ebe42d6adb8ae101442a1c730b914260405161090f9190611bb5565b60405180910390a3610a5b565b6000811161095f576040517f08c379a000000000000000000000000000000000000000000000000000000000815260040161095690611c1c565b60405180910390fd5b6000600260008673ffffffffffffffffffffffffffffffffffffffff1673ffffffffffffffffffffffffffffffffffffffff1681526020019081526020016000206001836109ad9190611b43565b815481106109be576109bd611b77565b5b9060005260206000209060040201905060008160030160006101000a81548160ff0219169083151502179055504281600201819055508573ffffffffffffffffffffffffffffffffffffffff168573ffffffffffffffffffffffffffffffffffffffff167f51f9b5959df459c21ca4661dbd3b2436cd5af331407b8c16b55adf0afba71afd42604051610a519190611bb5565b60405180910390a3505b5050505050565b6000600280811115610a7757610a76611796565b5b60008054906101000a900473ffffffffffffffffffffffffffffffffffffffff1673ffffffffffffffffffffffffffffffffffffffff166327820851856040518263ffffffff1660e01b8152600401610ad091906117d4565b602060405180830381865afa158015610aed573d6000803e3d6000fd5b505050506040513d601f19601f82011682018060405250810190610b119190611814565b6002811115610b2357610b22611796565b5b141580610bee575060016002811115610b3f57610b3e611796565b5b60008054906101000a900473ffffffffffffffffffffffffffffffffffffffff1673ffffffffffffffffffffffffffffffffffffffff166327820851846040518263ffffffff1660e01b8152600401610b9891906117d4565b602060405180830381865afa158015610bb5573d6000803e3d6000fd5b505050506040513d601f19601f82011682018060405250810190610bd99190611814565b6002811115610beb57610bea611796565b5b14155b15610bfc5760009050610d0f565b6000600360008573ffffffffffffffffffffffffffffffffffffffff1673ffffffffffffffffffffffffffffffffffffffff16815260200190815260200160002060008473ffffffffffffffffffffffffffffffffffffffff1673ffffffffffffffffffffffffffffffffffffffff16815260200190815260200160002054905060008103610c8f576000915050610d0f565b600260008573ffffffffffffffffffffffffffffffffffffffff1673ffffffffffffffffffffffffffffffffffffffff168152602001908152602001600020600182610cdb9190611b43565b81548110610cec57610ceb611b77565b5b906000526020600020906004020160030160009054906101000a900460ff169150505b92915050565b6060600280811115610d2a57610d29611796565b5b60008054906101000a900473ffffffffffffffffffffffffffffffffffffffff1673ffffffffffffffffffffffffffffffffffffffff166327820851336040518263ffffffff1660e01b8152600401610d8391906117d4565b602060405180830381865afa158015610da0573d6000803e3d6000fd5b505050506040513d601f19601f82011682018060405250810190610dc49190611814565b6002811115610dd657610dd5611796565b5b14610e16576040517f08c379a0000000000000000000000000000000000000000000000000000000008152600401610e0d906118c4565b60405180910390fd5b600280811115610e2957610e28611796565b5b60008054906101000a900473ffffffffffffffffffffffffffffffffffffffff1673ffffffffffffffffffffffffffffffffffffffff166327820851846040518263ffffffff1660e01b8152600401610e8291906117d4565b602060405180830381865afa158015610e9f573d6000803e3d6000fd5b505050506040513d601f19601f82011682018060405250810190610ec39190611814565b6002811115610ed557610ed4611796565b5b14610f15576040517f08c379a0000000000000000000000000000000000000000000000000000000008152600401610f0c90611cae565b60405180910390fd5b6000600260008473ffffffffffffffffffffffffffffffffffffffff1673ffffffffffffffffffffffffffffffffffffffff16815260200190815260200160002090506000805b8280549050811015610fbb57828181548110610f7b57610f7a611b77565b5b906000526020600020906004020160030160009054906101000a900460ff1615610fae578180610faa90611cce565b9250505b8080600101915050610f5c565b5060008167ffffffffffffffff811115610fd857610fd7611d16565b5b60405190808252806020026020018201604052801561101157816020015b610ffe611474565b815260200190600190039081610ff65790505b5090506000805b84805490508110156111465784818154811061103757611036611b77565b5b906000526020600020906004020160030160009054906101000a900460ff16156111395784818154811061106e5761106d611b77565b5b90600052602060002090600402016040518060800160405290816000820160009054906101000a900473ffffffffffffffffffffffffffffffffffffffff1673ffffffffffffffffffffffffffffffffffffffff1673ffffffffffffffffffffffffffffffffffffffff16815260200160018201548152602001600282015481526020016003820160009054906101000a900460ff16151515158152505083838151811061111f5761111e611b77565b5b6020026020010181905250818061113590611cce565b9250505b8080600101915050611018565b5081945050505050919050565b606060028081111561116857611167611796565b5b60008054906101000a900473ffffffffffffffffffffffffffffffffffffffff1673ffffffffffffffffffffffffffffffffffffffff166327820851336040518263ffffffff1660e01b81526004016111c191906117d4565b602060405180830381865afa1580156111de573d6000803e3d6000fd5b505050506040513d601f19601f820116820180604052508101906112029190611814565b600281111561121457611213611796565b5b14611254576040517f08c379a000000000000000000000000000000000000000000000000000000000815260040161124b906118c4565b60405180910390fd5b60028081111561126757611266611796565b5b60008054906101000a900473ffffffffffffffffffffffffffffffffffffffff1673ffffffffffffffffffffffffffffffffffffffff166327820851846040518263ffffffff1660e01b81526004016112c091906117d4565b602060405180830381865afa1580156112dd573d6000803e3d6000fd5b505050506040513d601f19601f820116820180604052508101906113019190611814565b600281111561131357611312611796565b5b14611353576040517f08c379a000000000000000000000000000000000000000000000000000000000815260040161134a90611cae565b60405180910390fd5b600260008373ffffffffffffffffffffffffffffffffffffffff1673ffffffffffffffffffffffffffffffffffffffff168152602001908152602001600020805480602002602001604051908101604052809291908181526020016000905b8282101561146957838290600052602060002090600402016040518060800160405290816000820160009054906101000a900473ffffffffffffffffffffffffffffffffffffffff1673ffffffffffffffffffffffffffffffffffffffff1673ffffffffffffffffffffffffffffffffffffffff16815260200160018201548152602001600282015481526020016003820160009054906101000a900460ff161515151581525050815260200190600101906113b2565b505050509050919050565b6040518060800160405280600073ffffffffffffffffffffffffffffffffffffffff16815260200160008152602001600081526020016000151581525090565b600080fd5b600073ffffffffffffffffffffffffffffffffffffffff82169050919050565b60006114e4826114b9565b9050919050565b6114f4816114d9565b81146114ff57600080fd5b50565b600081359050611511816114eb565b92915050565b60006020828403121561152d5761152c6114b4565b5b600061153b84828501611502565b91505092915050565b60008115159050919050565b61155981611544565b811461156457600080fd5b50565b60008135905061157681611550565b92915050565b600080600060608486031215611595576115946114b4565b5b60006115a386828701611502565b93505060206115b486828701611502565b92505060406115c586828701611567565b9150509250925092565b600080604083850312156115e6576115e56114b4565b5b60006115f485828601611502565b925050602061160585828601611502565b9150509250929050565b61161881611544565b82525050565b6000602082019050611633600083018461160f565b92915050565b600081519050919050565b600082825260208201905092915050565b6000819050602082019050919050565b61166e816114d9565b82525050565b6000819050919050565b61168781611674565b82525050565b61169681611544565b82525050565b6080820160008201516116b26000850182611665565b5060208201516116c5602085018261167e565b5060408201516116d8604085018261167e565b5060608201516116eb606085018261168d565b50505050565b60006116fd838361169c565b60808301905092915050565b6000602082019050919050565b600061172182611639565b61172b8185611644565b935061173683611655565b8060005b8381101561176757815161174e88826116f1565b975061175983611709565b92505060018101905061173a565b5085935050505092915050565b6000602082019050818103600083015261178e8184611716565b905092915050565b7f4e487b7100000000000000000000000000000000000000000000000000000000600052602160045260246000fd5b6117ce816114d9565b82525050565b60006020820190506117e960008301846117c5565b92915050565b600381106117fc57600080fd5b50565b60008151905061180e816117ef565b92915050565b60006020828403121561182a576118296114b4565b5b6000611838848285016117ff565b91505092915050565b600082825260208201905092915050565b7f4f6e6c7920646f63746f72732063616e2063616c6c20746869732066756e637460008201527f696f6e0000000000000000000000000000000000000000000000000000000000602082015250565b60006118ae602383611841565b91506118b982611852565b604082019050919050565b600060208201905081810360008301526118dd816118a1565b9050919050565b7f416c726561647920696e697469616c697a656400000000000000000000000000600082015250565b600061191a601383611841565b9150611925826118e4565b602082019050919050565b600060208201905081810360008301526119498161190d565b9050919050565b7f41646472657373206973206e6f7420612072656769737465726564207061746960008201527f656e740000000000000000000000000000000000000000000000000000000000602082015250565b60006119ac602383611841565b91506119b782611950565b604082019050919050565b600060208201905081810360008301526119db8161199f565b9050919050565b7f4f6e6c792050617469656e74446f63746f724163636573732063616e2063616c60008201527f6c20746869730000000000000000000000000000000000000000000000000000602082015250565b6000611a3e602683611841565b9150611a49826119e2565b604082019050919050565b60006020820190508181036000830152611a6d81611a31565b9050919050565b7f446f63746f722061646472657373206973206e6f742072656769737465726564600082015250565b6000611aaa602083611841565b9150611ab582611a74565b602082019050919050565b60006020820190508181036000830152611ad981611a9d565b9050919050565b7f4e487b7100000000000000000000000000000000000000000000000000000000600052601160045260246000fd5b6000611b1a82611674565b9150611b2583611674565b9250828201905080821115611b3d57611b3c611ae0565b5b92915050565b6000611b4e82611674565b9150611b5983611674565b9250828203905081811115611b7157611b70611ae0565b5b92915050565b7f4e487b7100000000000000000000000000000000000000000000000000000000600052603260045260246000fd5b611baf81611674565b82525050565b6000602082019050611bca6000830184611ba6565b92915050565b7f4e6f20616363657373207265636f726420666f756e6400000000000000000000600082015250565b6000611c06601683611841565b9150611c1182611bd0565b602082019050919050565b60006020820190508181036000830152611c3581611bf9565b9050919050565b7f5370656369666965642061646472657373206973206e6f74206120646f63746f60008201527f7200000000000000000000000000000000000000000000000000000000000000602082015250565b6000611c98602183611841565b9150611ca382611c3c565b604082019050919050565b60006020820190508181036000830152611cc781611c8b565b9050919050565b6000611cd982611674565b91507fffffffffffffffffffffffffffffffffffffffffffffffffffffffffffffffff8203611d0b57611d0a611ae0565b5b600182019050919050565b7f4e487b7100000000000000000000000000000000000000000000000000000000600052604160045260246000fdfea2646970667358221220759cdf134f76246b6200b5d1d06d9454cdf412dfcdfc7d24dfa123350bcdd4ae64736f6c634300081c0033",
  "linkReferences": {},
  "deployedLinkReferences": {}
}