{
  "_format": "hh-sol-artifact-1",
  "contractName": "EHR_NFT",
  "sourceName": "contracts/EHR_NFT.sol",
  "abi": [
    {
      "inputs": [],
      "stateMutability": "nonpayable",
      "type": "constructor"
    },
    {
      "inputs": [
        {
          "internalType": "address",
          "name": "sender",
          "type": "address"
        },
        {
          "internalType": "uint256",
          "name": "tokenId",
          "type": "uint256"
        },
        {
          "internalType": "address",
          "name": "owner",
          "type": "address"
        }
      ],
      "name": "ERC721IncorrectOwner",
      "type": "error"
    },
    {
      "inputs": [
        {
          "internalType": "address",
          "name": "operator",
          "type": "address"
        },
        {
          "internalType": "uint256",
          "name": "tokenId",
          "type": "uint256"
        }
      ],
      "name": "ERC721InsufficientApproval",
      "type": "error"
    },
    {
      "inputs": [
        {
          "internalType": "address",
          "name": "approver",
          "type": "address"
        }
      ],
      "name": "ERC721InvalidApprover",
      "type": "error"
    },
    {
      "inputs": [
        {
          "internalType": "address",
          "name": "operator",
          "type": "address"
        }
      ],
      "name": "ERC721InvalidOperator",
      "type": "error"
    },
    {
      "inputs": [
        {
          "internalType": "address",
          "name": "owner",
          "type": "address"
        }
      ],
      "name": "ERC721InvalidOwner",
      "type": "error"
    },
    {
      "inputs": [
        {
          "internalType": "address",
          "name": "receiver",
          "type": "address"
        }
      ],
      "name": "ERC721InvalidReceiver",
      "type": "error"
    },
    {
      "inputs": [
        {
          "internalType": "address",
          "name": "sender",
          "type": "address"
        }
      ],
      "name": "ERC721InvalidSender",
      "type": "error"
    },
    {
      "inputs": [
        {
          "internalType": "uint256",
          "name": "tokenId",
          "type": "uint256"
        }
      ],
      "name": "ERC721NonexistentToken",
      "type": "error"
    },
    {
      "inputs": [
        {
          "internalType": "address",
          "name": "owner",
          "type": "address"
        }
      ],
      "name": "OwnableInvalidOwner",
      "type": "error"
    },
    {
      "inputs": [
        {
          "internalType": "address",
          "name": "account",
          "type": "address"
        }
      ],
      "name": "OwnableUnauthorizedAccount",
      "type": "error"
    },
    {
      "anonymous": false,
      "inputs": [
        {
          "indexed": true,
          "internalType": "address",
          "name": "owner",
          "type": "address"
        },
        {
          "indexed": true,
          "internalType": "address",
          "name": "approved",
          "type": "address"
        },
        {
          "indexed": true,
          "internalType": "uint256",
          "name": "tokenId",
          "type": "uint256"
        }
      ],
      "name": "Approval",
      "type": "event"
    },
    {
      "anonymous": false,
      "inputs": [
        {
          "indexed": true,
          "internalType": "address",
          "name": "owner",
          "type": "address"
        },
        {
          "indexed": true,
          "internalType": "address",
          "name": "operator",
          "type": "address"
        },
        {
          "indexed": false,
          "internalType": "bool",
          "name": "approved",
          "type": "bool"
        }
      ],
      "name": "ApprovalForAll",
      "type": "event"
    },
    {
      "anonymous": false,
      "inputs": [
        {
          "indexed": false,
          "internalType": "uint256",
          "name": "_fromTokenId",
          "type": "uint256"
        },
        {
          "indexed": false,
          "internalType": "uint256",
          "name": "_toTokenId",
          "type": "uint256"
        }
      ],
      "name": "BatchMetadataUpdate",
      "type": "event"
    },
    {
      "anonymous": false,
      "inputs": [
        {
          "indexed": false,
          "internalType": "uint256",
          "name": "_tokenId",
          "type": "uint256"
        }
      ],
      "name": "MetadataUpdate",
      "type": "event"
    },
    {
      "anonymous": false,
      "inputs": [
        {
          "indexed": true,
          "internalType": "address",
          "name": "recipient",
          "type": "address"
        },
        {
          "indexed": false,
          "internalType": "uint256",
          "name": "tokenId",
          "type": "uint256"
        },
        {
          "indexed": false,
          "internalType": "string",
          "name": "tokenURI",
          "type": "string"
        }
      ],
      "name": "NFTMinted",
      "type": "event"
    },
    {
      "anonymous": false,
      "inputs": [
        {
          "indexed": true,
          "internalType": "address",
          "name": "previousOwner",
          "type": "address"
        },
        {
          "indexed": true,
          "internalType": "address",
          "name": "newOwner",
          "type": "address"
        }
      ],
      "name": "OwnershipTransferred",
      "type": "event"
    },
    {
      "anonymous": false,
      "inputs": [
        {
          "indexed": true,
          "internalType": "address",
          "name": "from",
          "type": "address"
        },
        {
          "indexed": true,
          "internalType": "address",
          "name": "to",
          "type": "address"
        },
        {
          "indexed": true,
          "internalType": "uint256",
          "name": "tokenId",
          "type": "uint256"
        }
      ],
      "name": "Transfer",
      "type": "event"
    },
    {
      "inputs": [
        {
          "internalType": "address",
          "name": "recipient",
          "type": "address"
        },
        {
          "internalType": "string",
          "name": "tokenURI",
          "type": "string"
        }
      ],
      "name": "adminMint",
      "outputs": [
        {
          "internalType": "uint256",
          "name": "",
          "type": "uint256"
        }
      ],
      "stateMutability": "nonpayable",
      "type": "function"
    },
    {
      "inputs": [
        {
          "internalType": "address",
          "name": "to",
          "type": "address"
        },
        {
          "internalType": "uint256",
          "name": "tokenId",
          "type": "uint256"
        }
      ],
      "name": "approve",
      "outputs": [],
      "stateMutability": "nonpayable",
      "type": "function"
    },
    {
      "inputs": [
        {
          "internalType": "address",
          "name": "owner",
          "type": "address"
        }
      ],
      "name": "balanceOf",
      "outputs": [
        {
          "internalType": "uint256",
          "name": "",
          "type": "uint256"
        }
      ],
      "stateMutability": "view",
      "type": "function"
    },
    {
      "inputs": [
        {
          "internalType": "uint256",
          "name": "tokenId",
          "type": "uint256"
        }
      ],
      "name": "getApproved",
      "outputs": [
        {
          "internalType": "address",
          "name": "",
          "type": "address"
        }
      ],
      "stateMutability": "view",
      "type": "function"
    },
    {
      "inputs": [
        {
          "internalType": "address",
          "name": "",
          "type": "address"
        }
      ],
      "name": "hasMinted",
      "outputs": [
        {
          "internalType": "bool",
          "name": "",
          "type": "bool"
        }
      ],
      "stateMutability": "view",
      "type": "function"
    },
    {
      "inputs": [
        {
          "internalType": "address",
          "name": "owner",
          "type": "address"
        },
        {
          "internalType": "address",
          "name": "operator",
          "type": "address"
        }
      ],
      "name": "isApprovedForAll",
      "outputs": [
        {
          "internalType": "bool",
          "name": "",
          "type": "bool"
        }
      ],
      "stateMutability": "view",
      "type": "function"
    },
    {
      "inputs": [
        {
          "internalType": "string",
          "name": "tokenURI",
          "type": "string"
        }
      ],
      "name": "mint",
      "outputs": [
        {
          "internalType": "uint256",
          "name": "",
          "type": "uint256"
        }
      ],
      "stateMutability": "nonpayable",
      "type": "function"
    },
    {
      "inputs": [],
      "name": "name",
      "outputs": [
        {
          "internalType": "string",
          "name": "",
          "type": "string"
        }
      ],
      "stateMutability": "view",
      "type": "function"
    },
    {
      "inputs": [],
      "name": "owner",
      "outputs": [
        {
          "internalType": "address",
          "name": "",
          "type": "address"
        }
      ],
      "stateMutability": "view",
      "type": "function"
    },
    {
      "inputs": [
        {
          "internalType": "uint256",
          "name": "tokenId",
          "type": "uint256"
        }
      ],
      "name": "ownerOf",
      "outputs": [
        {
          "internalType": "address",
          "name": "",
          "type": "address"
        }
      ],
      "stateMutability": "view",
      "type": "function"
    },
    {
      "inputs": [],
      "name": "renounceOwnership",
      "outputs": [],
      "stateMutability": "nonpayable",
      "type": "function"
    },
    {
      "inputs": [
        {
          "internalType": "address",
          "name": "user",
          "type": "address"
        }
      ],
      "name": "resetMintStatus",
      "outputs": [],
      "stateMutability": "nonpayable",
      "type": "function"
    },
    {
      "inputs": [
        {
          "internalType": "address",
          "name": "from",
          "type": "address"
        },
        {
          "internalType": "address",
          "name": "to",
          "type": "address"
        },
        {
          "internalType": "uint256",
          "name": "tokenId",
          "type": "uint256"
        }
      ],
      "name": "safeTransferFrom",
      "outputs": [],
      "stateMutability": "nonpayable",
      "type": "function"
    },
    {
      "inputs": [
        {
          "internalType": "address",
          "name": "from",
          "type": "address"
        },
        {
          "internalType": "address",
          "name": "to",
          "type": "address"
        },
        {
          "internalType": "uint256",
          "name": "tokenId",
          "type": "uint256"
        },
        {
          "internalType": "bytes",
          "name": "data",
          "type": "bytes"
        }
      ],
      "name": "safeTransferFrom",
      "outputs": [],
      "stateMutability": "nonpayable",
      "type": "function"
    },
    {
      "inputs": [
        {
          "internalType": "address",
          "name": "operator",
          "type": "address"
        },
        {
          "internalType": "bool",
          "name": "approved",
          "type": "bool"
        }
      ],
      "name": "setApprovalForAll",
      "outputs": [],
      "stateMutability": "nonpayable",
      "type": "function"
    },
    {
      "inputs": [
        {
          "internalType": "bytes4",
          "name": "interfaceId",
          "type": "bytes4"
        }
      ],
      "name": "supportsInterface",
      "outputs": [
        {
          "internalType": "bool",
          "name": "",
          "type": "bool"
        }
      ],
      "stateMutability": "view",
      "type": "function"
    },
    {
      "inputs": [],
      "name": "symbol",
      "outputs": [
        {
          "internalType": "string",
          "name": "",
          "type": "string"
        }
      ],
      "stateMutability": "view",
      "type": "function"
    },
    {
      "inputs": [],
      "name": "tokenCounter",
      "outputs": [
        {
          "internalType": "uint256",
          "name": "",
          "type": "uint256"
        }
      ],
      "stateMutability": "view",
      "type": "function"
    },
    {
      "inputs": [
        {
          "internalType": "uint256",
          "name": "tokenId",
          "type": "uint256"
        }
      ],
      "name": "tokenURI",
      "outputs": [
        {
          "internalType": "string",
          "name": "",
          "type": "string"
        }
      ],
      "stateMutability": "view",
      "type": "function"
    },
    {
      "inputs": [
        {
          "internalType": "address",
          "name": "from",
          "type": "address"
        },
        {
          "internalType": "address",
          "name": "to",
          "type": "address"
        },
        {
          "internalType": "uint256",
          "name": "tokenId",
          "type": "uint256"
        }
      ],
      "name": "transferFrom",
      "outputs": [],
      "stateMutability": "nonpayable",
      "type": "function"
    },
    {
      "inputs": [
        {
          "internalType": "address",
          "name": "newOwner",
          "type": "address"
        }
      ],
      "name": "transferOwnership",
      "outputs": [],
      "stateMutability": "nonpayable",
      "type": "function"
    }
  ],
  "bytecode": "0x60806040523480156200001157600080fd5b50336040518060400160405280600781526020017f4548525f4e4654000000000000000000000000000000000000000000000000008152506040518060400160405280600381526020017f454852000000000000000000000000000000000000000000000000000000000081525081600090816200009091906200047a565b508060019081620000a291906200047a565b505050600073ffffffffffffffffffffffffffffffffffffffff168173ffffffffffffffffffffffffffffffffffffffff16036200011a5760006040517f1e4fbdf7000000000000000000000000000000000000000000000000000000008152600401620001119190620005a6565b60405180910390fd5b6200012b816200013a60201b60201c565b506000600881905550620005c3565b6000600760009054906101000a900473ffffffffffffffffffffffffffffffffffffffff16905081600760006101000a81548173ffffffffffffffffffffffffffffffffffffffff021916908373ffffffffffffffffffffffffffffffffffffffff1602179055508173ffffffffffffffffffffffffffffffffffffffff168173ffffffffffffffffffffffffffffffffffffffff167f8be0079c531659141344cd1fd0a4f28419497f9722a3daafe3b4186f6b6457e060405160405180910390a35050565b600081519050919050565b7f4e487b7100000000000000000000000000000000000000000000000000000000600052604160045260246000fd5b7f4e487b7100000000000000000000000000000000000000000000000000000000600052602260045260246000fd5b600060028204905060018216806200028257607f821691505b6020821081036200029857620002976200023a565b5b50919050565b60008190508160005260206000209050919050565b60006020601f8301049050919050565b600082821b905092915050565b600060088302620003027fffffffffffffffffffffffffffffffffffffffffffffffffffffffffffffffff82620002c3565b6200030e8683620002c3565b95508019841693508086168417925050509392505050565b6000819050919050565b6000819050919050565b60006200035b620003556200034f8462000326565b62000330565b62000326565b9050919050565b6000819050919050565b62000377836200033a565b6200038f620003868262000362565b848454620002d0565b825550505050565b600090565b620003a662000397565b620003b38184846200036c565b505050565b5b81811015620003db57620003cf6000826200039c565b600181019050620003b9565b5050565b601f8211156200042a57620003f4816200029e565b620003ff84620002b3565b810160208510156200040f578190505b620004276200041e85620002b3565b830182620003b8565b50505b505050565b600082821c905092915050565b60006200044f600019846008026200042f565b1980831691505092915050565b60006200046a83836200043c565b9150826002028217905092915050565b620004858262000200565b67ffffffffffffffff811115620004a157620004a06200020b565b5b620004ad825462000269565b620004ba828285620003df565b600060209050601f831160018114620004f25760008415620004dd578287015190505b620004e985826200045c565b86555062000559565b601f19841662000502866200029e565b60005b828110156200052c5784890151825560018201915060208501945060208101905062000505565b868310156200054c578489015162000548601f8916826200043c565b8355505b6001600288020188555050505b505050505050565b600073ffffffffffffffffffffffffffffffffffffffff82169050919050565b60006200058e8262000561565b9050919050565b620005a08162000581565b82525050565b6000602082019050620005bd600083018462000595565b92915050565b612b5f80620005d36000396000f3fe608060405234801561001057600080fd5b50600436106101375760003560e01c806370a08231116100b8578063b88d4fde1161007c578063b88d4fde1461034c578063c87b56dd14610368578063d082e38114610398578063d85d3d27146103b6578063e985e9c5146103e6578063f2fde38b1461041657610137565b806370a08231146102ba578063715018a6146102ea5780638da5cb5b146102f457806395d89b4114610312578063a22cb4651461033057610137565b806328df09d3116100ff57806328df09d3146101f257806338e21cce1461020e57806342842e0e1461023e5780635919c74b1461025a5780636352211e1461028a57610137565b806301ffc9a71461013c57806306fdde031461016c578063081812fc1461018a578063095ea7b3146101ba57806323b872dd146101d6575b600080fd5b61015660048036038101906101519190611ed2565b610432565b6040516101639190611f1a565b60405180910390f35b610174610493565b6040516101819190611fc5565b60405180910390f35b6101a4600480360381019061019f919061201d565b610525565b6040516101b1919061208b565b60405180910390f35b6101d460048036038101906101cf91906120d2565b610541565b005b6101f060048036038101906101eb9190612112565b610557565b005b61020c60048036038101906102079190612165565b610659565b005b61022860048036038101906102239190612165565b6106bc565b6040516102359190611f1a565b60405180910390f35b61025860048036038101906102539190612112565b6106dc565b005b610274600480360381019061026f91906122c7565b6106fc565b6040516102819190612332565b60405180910390f35b6102a4600480360381019061029f919061201d565b610878565b6040516102b1919061208b565b60405180910390f35b6102d460048036038101906102cf9190612165565b61088a565b6040516102e19190612332565b60405180910390f35b6102f2610944565b005b6102fc610958565b604051610309919061208b565b60405180910390f35b61031a610982565b6040516103279190611fc5565b60405180910390f35b61034a60048036038101906103459190612379565b610a14565b005b6103666004803603810190610361919061245a565b610a2a565b005b610382600480360381019061037d919061201d565b610a4f565b60405161038f9190611fc5565b60405180910390f35b6103a0610b62565b6040516103ad9190612332565b60405180910390f35b6103d060048036038101906103cb91906124dd565b610b68565b6040516103dd9190612332565b60405180910390f35b61040060048036038101906103fb9190612526565b610cdb565b60405161040d9190611f1a565b60405180910390f35b610430600480360381019061042b9190612165565b610d6f565b005b6000634906490660e01b7bffffffffffffffffffffffffffffffffffffffffffffffffffffffff1916827bffffffffffffffffffffffffffffffffffffffffffffffffffffffff1916148061048c575061048b82610df5565b5b9050919050565b6060600080546104a290612595565b80601f01602080910402602001604051908101604052809291908181526020018280546104ce90612595565b801561051b5780601f106104f05761010080835404028352916020019161051b565b820191906000526020600020905b8154815290600101906020018083116104fe57829003601f168201915b5050505050905090565b600061053082610ed7565b5061053a82610f5f565b9050919050565b610553828261054e610f9c565b610fa4565b5050565b600073ffffffffffffffffffffffffffffffffffffffff168273ffffffffffffffffffffffffffffffffffffffff16036105c95760006040517f64a0ae920000000000000000000000000000000000000000000000000000000081526004016105c0919061208b565b60405180910390fd5b60006105dd83836105d8610f9c565b610fb6565b90508373ffffffffffffffffffffffffffffffffffffffff168173ffffffffffffffffffffffffffffffffffffffff1614610653578382826040517f64283d7b00000000000000000000000000000000000000000000000000000000815260040161064a939291906125c6565b60405180910390fd5b50505050565b6106616111d0565b6000600960008373ffffffffffffffffffffffffffffffffffffffff1673ffffffffffffffffffffffffffffffffffffffff16815260200190815260200160002060006101000a81548160ff02191690831515021790555050565b60096020528060005260406000206000915054906101000a900460ff1681565b6106f783838360405180602001604052806000815250610a2a565b505050565b60006107066111d0565b600960008473ffffffffffffffffffffffffffffffffffffffff1673ffffffffffffffffffffffffffffffffffffffff16815260200190815260200160002060009054906101000a900460ff1615610793576040517f08c379a000000000000000000000000000000000000000000000000000000000815260040161078a90612649565b60405180910390fd5b600060085490506107a48482611257565b6107ae8184611275565b6001600960008673ffffffffffffffffffffffffffffffffffffffff1673ffffffffffffffffffffffffffffffffffffffff16815260200190815260200160002060006101000a81548160ff0219169083151502179055506008600081548092919061081990612698565b91905055508373ffffffffffffffffffffffffffffffffffffffff167fd35bb95e09c04b219e35047ce7b7b300e3384264ef84a40456943dbc0fc17c1482856040516108669291906126e0565b60405180910390a28091505092915050565b600061088382610ed7565b9050919050565b60008073ffffffffffffffffffffffffffffffffffffffff168273ffffffffffffffffffffffffffffffffffffffff16036108fd5760006040517f89c62b640000000000000000000000000000000000000000000000000000000081526004016108f4919061208b565b60405180910390fd5b600360008373ffffffffffffffffffffffffffffffffffffffff1673ffffffffffffffffffffffffffffffffffffffff168152602001908152602001600020549050919050565b61094c6111d0565b61095660006112d1565b565b6000600760009054906101000a900473ffffffffffffffffffffffffffffffffffffffff16905090565b60606001805461099190612595565b80601f01602080910402602001604051908101604052809291908181526020018280546109bd90612595565b8015610a0a5780601f106109df57610100808354040283529160200191610a0a565b820191906000526020600020905b8154815290600101906020018083116109ed57829003601f168201915b5050505050905090565b610a26610a1f610f9c565b8383611397565b5050565b610a35848484610557565b610a49610a40610f9c565b85858585611506565b50505050565b6060610a5a82610ed7565b506000600660008481526020019081526020016000208054610a7b90612595565b80601f0160208091040260200160405190810160405280929190818152602001828054610aa790612595565b8015610af45780601f10610ac957610100808354040283529160200191610af4565b820191906000526020600020905b815481529060010190602001808311610ad757829003601f168201915b505050505090506000610b056116b7565b90506000815103610b1a578192505050610b5d565b600082511115610b4f578082604051602001610b3792919061274c565b60405160208183030381529060405292505050610b5d565b610b58846116ce565b925050505b919050565b60085481565b6000600960003373ffffffffffffffffffffffffffffffffffffffff1673ffffffffffffffffffffffffffffffffffffffff16815260200190815260200160002060009054906101000a900460ff1615610bf7576040517f08c379a0000000000000000000000000000000000000000000000000000000008152600401610bee90612649565b60405180910390fd5b60006008549050610c083382611257565b610c128184611275565b6001600960003373ffffffffffffffffffffffffffffffffffffffff1673ffffffffffffffffffffffffffffffffffffffff16815260200190815260200160002060006101000a81548160ff02191690831515021790555060086000815480929190610c7d90612698565b91905055503373ffffffffffffffffffffffffffffffffffffffff167fd35bb95e09c04b219e35047ce7b7b300e3384264ef84a40456943dbc0fc17c148285604051610cca9291906126e0565b60405180910390a280915050919050565b6000600560008473ffffffffffffffffffffffffffffffffffffffff1673ffffffffffffffffffffffffffffffffffffffff16815260200190815260200160002060008373ffffffffffffffffffffffffffffffffffffffff1673ffffffffffffffffffffffffffffffffffffffff16815260200190815260200160002060009054906101000a900460ff16905092915050565b610d776111d0565b600073ffffffffffffffffffffffffffffffffffffffff168173ffffffffffffffffffffffffffffffffffffffff1603610de95760006040517f1e4fbdf7000000000000000000000000000000000000000000000000000000008152600401610de0919061208b565b60405180910390fd5b610df2816112d1565b50565b60007f80ac58cd000000000000000000000000000000000000000000000000000000007bffffffffffffffffffffffffffffffffffffffffffffffffffffffff1916827bffffffffffffffffffffffffffffffffffffffffffffffffffffffff19161480610ec057507f5b5e139f000000000000000000000000000000000000000000000000000000007bffffffffffffffffffffffffffffffffffffffffffffffffffffffff1916827bffffffffffffffffffffffffffffffffffffffffffffffffffffffff1916145b80610ed05750610ecf82611737565b5b9050919050565b600080610ee3836117a1565b9050600073ffffffffffffffffffffffffffffffffffffffff168173ffffffffffffffffffffffffffffffffffffffff1603610f5657826040517f7e273289000000000000000000000000000000000000000000000000000000008152600401610f4d9190612332565b60405180910390fd5b80915050919050565b60006004600083815260200190815260200160002060009054906101000a900473ffffffffffffffffffffffffffffffffffffffff169050919050565b600033905090565b610fb183838360016117de565b505050565b600080610fc2846117a1565b9050600073ffffffffffffffffffffffffffffffffffffffff168373ffffffffffffffffffffffffffffffffffffffff1614611004576110038184866119a3565b5b600073ffffffffffffffffffffffffffffffffffffffff168173ffffffffffffffffffffffffffffffffffffffff1614611095576110466000856000806117de565b6001600360008373ffffffffffffffffffffffffffffffffffffffff1673ffffffffffffffffffffffffffffffffffffffff168152602001908152602001600020600082825403925050819055505b600073ffffffffffffffffffffffffffffffffffffffff168573ffffffffffffffffffffffffffffffffffffffff1614611118576001600360008773ffffffffffffffffffffffffffffffffffffffff1673ffffffffffffffffffffffffffffffffffffffff168152602001908152602001600020600082825401925050819055505b846002600086815260200190815260200160002060006101000a81548173ffffffffffffffffffffffffffffffffffffffff021916908373ffffffffffffffffffffffffffffffffffffffff160217905550838573ffffffffffffffffffffffffffffffffffffffff168273ffffffffffffffffffffffffffffffffffffffff167fddf252ad1be2c89b69c2b068fc378daa952ba7f163c4a11628f55a4df523b3ef60405160405180910390a4809150509392505050565b6111d8610f9c565b73ffffffffffffffffffffffffffffffffffffffff166111f6610958565b73ffffffffffffffffffffffffffffffffffffffff161461125557611219610f9c565b6040517f118cdaa700000000000000000000000000000000000000000000000000000000815260040161124c919061208b565b60405180910390fd5b565b611271828260405180602001604052806000815250611a67565b5050565b80600660008481526020019081526020016000209081611295919061291c565b507ff8e1a15aba9398e019f0b49df1a4fde98ee17ae345cb5f6b5e2c27f5033e8ce7826040516112c59190612332565b60405180910390a15050565b6000600760009054906101000a900473ffffffffffffffffffffffffffffffffffffffff16905081600760006101000a81548173ffffffffffffffffffffffffffffffffffffffff021916908373ffffffffffffffffffffffffffffffffffffffff1602179055508173ffffffffffffffffffffffffffffffffffffffff168173ffffffffffffffffffffffffffffffffffffffff167f8be0079c531659141344cd1fd0a4f28419497f9722a3daafe3b4186f6b6457e060405160405180910390a35050565b600073ffffffffffffffffffffffffffffffffffffffff168273ffffffffffffffffffffffffffffffffffffffff160361140857816040517f5b08ba180000000000000000000000000000000000000000000000000000000081526004016113ff919061208b565b60405180910390fd5b80600560008573ffffffffffffffffffffffffffffffffffffffff1673ffffffffffffffffffffffffffffffffffffffff16815260200190815260200160002060008473ffffffffffffffffffffffffffffffffffffffff1673ffffffffffffffffffffffffffffffffffffffff16815260200190815260200160002060006101000a81548160ff0219169083151502179055508173ffffffffffffffffffffffffffffffffffffffff168373ffffffffffffffffffffffffffffffffffffffff167f17307eab39ab6107e8899845ad3d59bd9653f200f220920489ca2b5937696c31836040516114f99190611f1a565b60405180910390a3505050565b60008373ffffffffffffffffffffffffffffffffffffffff163b11156116b0578273ffffffffffffffffffffffffffffffffffffffff1663150b7a02868685856040518563ffffffff1660e01b81526004016115659493929190612a43565b6020604051808303816000875af19250505080156115a157506040513d601f19601f8201168201806040525081019061159e9190612aa4565b60015b611625573d80600081146115d1576040519150601f19603f3d011682016040523d82523d6000602084013e6115d6565b606091505b50600081510361161d57836040517f64a0ae92000000000000000000000000000000000000000000000000000000008152600401611614919061208b565b60405180910390fd5b805181602001fd5b63150b7a0260e01b7bffffffffffffffffffffffffffffffffffffffffffffffffffffffff1916817bffffffffffffffffffffffffffffffffffffffffffffffffffffffff1916146116ae57836040517f64a0ae920000000000000000000000000000000000000000000000000000000081526004016116a5919061208b565b60405180910390fd5b505b5050505050565b606060405180602001604052806000815250905090565b60606116d982610ed7565b5060006116e46116b7565b90506000815111611704576040518060200160405280600081525061172f565b8061170e84611a8b565b60405160200161171f92919061274c565b6040516020818303038152906040525b915050919050565b60007f01ffc9a7000000000000000000000000000000000000000000000000000000007bffffffffffffffffffffffffffffffffffffffffffffffffffffffff1916827bffffffffffffffffffffffffffffffffffffffffffffffffffffffff1916149050919050565b60006002600083815260200190815260200160002060009054906101000a900473ffffffffffffffffffffffffffffffffffffffff169050919050565b80806118175750600073ffffffffffffffffffffffffffffffffffffffff168273ffffffffffffffffffffffffffffffffffffffff1614155b1561194b57600061182784610ed7565b9050600073ffffffffffffffffffffffffffffffffffffffff168373ffffffffffffffffffffffffffffffffffffffff161415801561189257508273ffffffffffffffffffffffffffffffffffffffff168173ffffffffffffffffffffffffffffffffffffffff1614155b80156118a557506118a38184610cdb565b155b156118e757826040517fa9fbf51f0000000000000000000000000000000000000000000000000000000081526004016118de919061208b565b60405180910390fd5b811561194957838573ffffffffffffffffffffffffffffffffffffffff168273ffffffffffffffffffffffffffffffffffffffff167f8c5be1e5ebec7d5bd14f71427d1e84f3dd0314c0f7b2291e5b200ac8c7c3b92560405160405180910390a45b505b836004600085815260200190815260200160002060006101000a81548173ffffffffffffffffffffffffffffffffffffffff021916908373ffffffffffffffffffffffffffffffffffffffff16021790555050505050565b6119ae838383611b59565b611a6257600073ffffffffffffffffffffffffffffffffffffffff168373ffffffffffffffffffffffffffffffffffffffff1603611a2357806040517f7e273289000000000000000000000000000000000000000000000000000000008152600401611a1a9190612332565b60405180910390fd5b81816040517f177e802f000000000000000000000000000000000000000000000000000000008152600401611a59929190612ad1565b60405180910390fd5b505050565b611a718383611c1a565b611a86611a7c610f9c565b6000858585611506565b505050565b606060006001611a9a84611d13565b01905060008167ffffffffffffffff811115611ab957611ab861219c565b5b6040519080825280601f01601f191660200182016040528015611aeb5781602001600182028036833780820191505090505b509050600082602001820190505b600115611b4e578080600190039150507f3031323334353637383961626364656600000000000000000000000000000000600a86061a8153600a8581611b4257611b41612afa565b5b04945060008503611af9575b819350505050919050565b60008073ffffffffffffffffffffffffffffffffffffffff168373ffffffffffffffffffffffffffffffffffffffff1614158015611c1157508273ffffffffffffffffffffffffffffffffffffffff168473ffffffffffffffffffffffffffffffffffffffff161480611bd25750611bd18484610cdb565b5b80611c1057508273ffffffffffffffffffffffffffffffffffffffff16611bf883610f5f565b73ffffffffffffffffffffffffffffffffffffffff16145b5b90509392505050565b600073ffffffffffffffffffffffffffffffffffffffff168273ffffffffffffffffffffffffffffffffffffffff1603611c8c5760006040517f64a0ae92000000000000000000000000000000000000000000000000000000008152600401611c83919061208b565b60405180910390fd5b6000611c9a83836000610fb6565b9050600073ffffffffffffffffffffffffffffffffffffffff168173ffffffffffffffffffffffffffffffffffffffff1614611d0e5760006040517f73c6ac6e000000000000000000000000000000000000000000000000000000008152600401611d05919061208b565b60405180910390fd5b505050565b600080600090507a184f03e93ff9f4daa797ed6e38ed64bf6a1f0100000000000000008310611d71577a184f03e93ff9f4daa797ed6e38ed64bf6a1f0100000000000000008381611d6757611d66612afa565b5b0492506040810190505b6d04ee2d6d415b85acef81000000008310611dae576d04ee2d6d415b85acef81000000008381611da457611da3612afa565b5b0492506020810190505b662386f26fc100008310611ddd57662386f26fc100008381611dd357611dd2612afa565b5b0492506010810190505b6305f5e1008310611e06576305f5e1008381611dfc57611dfb612afa565b5b0492506008810190505b6127108310611e2b576127108381611e2157611e20612afa565b5b0492506004810190505b60648310611e4e5760648381611e4457611e43612afa565b5b0492506002810190505b600a8310611e5d576001810190505b80915050919050565b6000604051905090565b600080fd5b600080fd5b60007fffffffff0000000000000000000000000000000000000000000000000000000082169050919050565b611eaf81611e7a565b8114611eba57600080fd5b50565b600081359050611ecc81611ea6565b92915050565b600060208284031215611ee857611ee7611e70565b5b6000611ef684828501611ebd565b91505092915050565b60008115159050919050565b611f1481611eff565b82525050565b6000602082019050611f2f6000830184611f0b565b92915050565b600081519050919050565b600082825260208201905092915050565b60005b83811015611f6f578082015181840152602081019050611f54565b60008484015250505050565b6000601f19601f8301169050919050565b6000611f9782611f35565b611fa18185611f40565b9350611fb1818560208601611f51565b611fba81611f7b565b840191505092915050565b60006020820190508181036000830152611fdf8184611f8c565b905092915050565b6000819050919050565b611ffa81611fe7565b811461200557600080fd5b50565b60008135905061201781611ff1565b92915050565b60006020828403121561203357612032611e70565b5b600061204184828501612008565b91505092915050565b600073ffffffffffffffffffffffffffffffffffffffff82169050919050565b60006120758261204a565b9050919050565b6120858161206a565b82525050565b60006020820190506120a0600083018461207c565b92915050565b6120af8161206a565b81146120ba57600080fd5b50565b6000813590506120cc816120a6565b92915050565b600080604083850312156120e9576120e8611e70565b5b60006120f7858286016120bd565b925050602061210885828601612008565b9150509250929050565b60008060006060848603121561212b5761212a611e70565b5b6000612139868287016120bd565b935050602061214a868287016120bd565b925050604061215b86828701612008565b9150509250925092565b60006020828403121561217b5761217a611e70565b5b6000612189848285016120bd565b91505092915050565b600080fd5b600080fd5b7f4e487b7100000000000000000000000000000000000000000000000000000000600052604160045260246000fd5b6121d482611f7b565b810181811067ffffffffffffffff821117156121f3576121f261219c565b5b80604052505050565b6000612206611e66565b905061221282826121cb565b919050565b600067ffffffffffffffff8211156122325761223161219c565b5b61223b82611f7b565b9050602081019050919050565b82818337600083830152505050565b600061226a61226584612217565b6121fc565b90508281526020810184848401111561228657612285612197565b5b612291848285612248565b509392505050565b600082601f8301126122ae576122ad612192565b5b81356122be848260208601612257565b91505092915050565b600080604083850312156122de576122dd611e70565b5b60006122ec858286016120bd565b925050602083013567ffffffffffffffff81111561230d5761230c611e75565b5b61231985828601612299565b9150509250929050565b61232c81611fe7565b82525050565b60006020820190506123476000830184612323565b92915050565b61235681611eff565b811461236157600080fd5b50565b6000813590506123738161234d565b92915050565b600080604083850312156123905761238f611e70565b5b600061239e858286016120bd565b92505060206123af85828601612364565b9150509250929050565b600067ffffffffffffffff8211156123d4576123d361219c565b5b6123dd82611f7b565b9050602081019050919050565b60006123fd6123f8846123b9565b6121fc565b90508281526020810184848401111561241957612418612197565b5b612424848285612248565b509392505050565b600082601f83011261244157612440612192565b5b81356124518482602086016123ea565b91505092915050565b6000806000806080858703121561247457612473611e70565b5b6000612482878288016120bd565b9450506020612493878288016120bd565b93505060406124a487828801612008565b925050606085013567ffffffffffffffff8111156124c5576124c4611e75565b5b6124d18782880161242c565b91505092959194509250565b6000602082840312156124f3576124f2611e70565b5b600082013567ffffffffffffffff81111561251157612510611e75565b5b61251d84828501612299565b91505092915050565b6000806040838503121561253d5761253c611e70565b5b600061254b858286016120bd565b925050602061255c858286016120bd565b9150509250929050565b7f4e487b7100000000000000000000000000000000000000000000000000000000600052602260045260246000fd5b600060028204905060018216806125ad57607f821691505b6020821081036125c0576125bf612566565b5b50919050565b60006060820190506125db600083018661207c565b6125e86020830185612323565b6125f5604083018461207c565b949350505050565b7f416c7265616479206d696e746564000000000000000000000000000000000000600082015250565b6000612633600e83611f40565b915061263e826125fd565b602082019050919050565b6000602082019050818103600083015261266281612626565b9050919050565b7f4e487b7100000000000000000000000000000000000000000000000000000000600052601160045260246000fd5b60006126a382611fe7565b91507fffffffffffffffffffffffffffffffffffffffffffffffffffffffffffffffff82036126d5576126d4612669565b5b600182019050919050565b60006040820190506126f56000830185612323565b81810360208301526127078184611f8c565b90509392505050565b600081905092915050565b600061272682611f35565b6127308185612710565b9350612740818560208601611f51565b80840191505092915050565b6000612758828561271b565b9150612764828461271b565b91508190509392505050565b60008190508160005260206000209050919050565b60006020601f8301049050919050565b600082821b905092915050565b6000600883026127d27fffffffffffffffffffffffffffffffffffffffffffffffffffffffffffffffff82612795565b6127dc8683612795565b95508019841693508086168417925050509392505050565b6000819050919050565b600061281961281461280f84611fe7565b6127f4565b611fe7565b9050919050565b6000819050919050565b612833836127fe565b61284761283f82612820565b8484546127a2565b825550505050565b600090565b61285c61284f565b61286781848461282a565b505050565b5b8181101561288b57612880600082612854565b60018101905061286d565b5050565b601f8211156128d0576128a181612770565b6128aa84612785565b810160208510156128b9578190505b6128cd6128c585612785565b83018261286c565b50505b505050565b600082821c905092915050565b60006128f3600019846008026128d5565b1980831691505092915050565b600061290c83836128e2565b9150826002028217905092915050565b61292582611f35565b67ffffffffffffffff81111561293e5761293d61219c565b5b6129488254612595565b61295382828561288f565b600060209050601f8311600181146129865760008415612974578287015190505b61297e8582612900565b8655506129e6565b601f19841661299486612770565b60005b828110156129bc57848901518255600182019150602085019450602081019050612997565b868310156129d957848901516129d5601f8916826128e2565b8355505b6001600288020188555050505b505050505050565b600081519050919050565b600082825260208201905092915050565b6000612a15826129ee565b612a1f81856129f9565b9350612a2f818560208601611f51565b612a3881611f7b565b840191505092915050565b6000608082019050612a58600083018761207c565b612a65602083018661207c565b612a726040830185612323565b8181036060830152612a848184612a0a565b905095945050505050565b600081519050612a9e81611ea6565b92915050565b600060208284031215612aba57612ab9611e70565b5b6000612ac884828501612a8f565b91505092915050565b6000604082019050612ae6600083018561207c565b612af36020830184612323565b9392505050565b7f4e487b7100000000000000000000000000000000000000000000000000000000600052601260045260246000fdfea2646970667358221220d5da6546490cc92ef4d4b10b0625b59f6080da2bf3ca2ceaeb775f05a4f4d0f864736f6c63430008140033",
  "linkReferences": {},
  "deployedLinkReferences": {}
}