{
  "_format": "hh-sol-artifact-1",
  "contractName": "EHR_NFT",
  "sourceName": "contracts/EHR_NFT.sol",
  "abi": [
    {
      "inputs": [
        {
          "internalType": "address",
          "name": "_accessController",
          "type": "address"
        },
        {
          "internalType": "address",
          "name": "_userRegistry",
          "type": "address"
        }
      ],
      "stateMutability": "nonpayable",
      "type": "constructor"
    },
    {
      "inputs": [
        {
          "internalType": "address",
          "name": "sender",
          "type": "address"
        },
        {
          "internalType": "uint256",
          "name": "tokenId",
          "type": "uint256"
        },
        {
          "internalType": "address",
          "name": "owner",
          "type": "address"
        }
      ],
      "name": "ERC721IncorrectOwner",
      "type": "error"
    },
    {
      "inputs": [
        {
          "internalType": "address",
          "name": "operator",
          "type": "address"
        },
        {
          "internalType": "uint256",
          "name": "tokenId",
          "type": "uint256"
        }
      ],
      "name": "ERC721InsufficientApproval",
      "type": "error"
    },
    {
      "inputs": [
        {
          "internalType": "address",
          "name": "approver",
          "type": "address"
        }
      ],
      "name": "ERC721InvalidApprover",
      "type": "error"
    },
    {
      "inputs": [
        {
          "internalType": "address",
          "name": "operator",
          "type": "address"
        }
      ],
      "name": "ERC721InvalidOperator",
      "type": "error"
    },
    {
      "inputs": [
        {
          "internalType": "address",
          "name": "owner",
          "type": "address"
        }
      ],
      "name": "ERC721InvalidOwner",
      "type": "error"
    },
    {
      "inputs": [
        {
          "internalType": "address",
          "name": "receiver",
          "type": "address"
        }
      ],
      "name": "ERC721InvalidReceiver",
      "type": "error"
    },
    {
      "inputs": [
        {
          "internalType": "address",
          "name": "sender",
          "type": "address"
        }
      ],
      "name": "ERC721InvalidSender",
      "type": "error"
    },
    {
      "inputs": [
        {
          "internalType": "uint256",
          "name": "tokenId",
          "type": "uint256"
        }
      ],
      "name": "ERC721NonexistentToken",
      "type": "error"
    },
    {
      "anonymous": false,
      "inputs": [
        {
          "indexed": true,
          "internalType": "uint256",
          "name": "tokenId",
          "type": "uint256"
        },
        {
          "indexed": true,
          "internalType": "address",
          "name": "doctor",
          "type": "address"
        },
        {
          "indexed": false,
          "internalType": "bool",
          "name": "granted",
          "type": "bool"
        }
      ],
      "name": "AccessUpdated",
      "type": "event"
    },
    {
      "anonymous": false,
      "inputs": [
        {
          "indexed": true,
          "internalType": "address",
          "name": "owner",
          "type": "address"
        },
        {
          "indexed": true,
          "internalType": "address",
          "name": "approved",
          "type": "address"
        },
        {
          "indexed": true,
          "internalType": "uint256",
          "name": "tokenId",
          "type": "uint256"
        }
      ],
      "name": "Approval",
      "type": "event"
    },
    {
      "anonymous": false,
      "inputs": [
        {
          "indexed": true,
          "internalType": "address",
          "name": "owner",
          "type": "address"
        },
        {
          "indexed": true,
          "internalType": "address",
          "name": "operator",
          "type": "address"
        },
        {
          "indexed": false,
          "internalType": "bool",
          "name": "approved",
          "type": "bool"
        }
      ],
      "name": "ApprovalForAll",
      "type": "event"
    },
    {
      "anonymous": false,
      "inputs": [
        {
          "indexed": true,
          "internalType": "uint256",
          "name": "tokenId",
          "type": "uint256"
        },
        {
          "indexed": false,
          "internalType": "string",
          "name": "newDataURI",
          "type": "string"
        }
      ],
      "name": "DataUpdated",
      "type": "event"
    },
    {
      "anonymous": false,
      "inputs": [
        {
          "indexed": true,
          "internalType": "uint256",
          "name": "tokenId",
          "type": "uint256"
        },
        {
          "indexed": false,
          "internalType": "string",
          "name": "newMetadataURI",
          "type": "string"
        }
      ],
      "name": "MetadataUpdated",
      "type": "event"
    },
    {
      "anonymous": false,
      "inputs": [
        {
          "indexed": true,
          "internalType": "address",
          "name": "patient",
          "type": "address"
        },
        {
          "indexed": true,
          "internalType": "uint256",
          "name": "tokenId",
          "type": "uint256"
        },
        {
          "indexed": false,
          "internalType": "string",
          "name": "initialDataURI",
          "type": "string"
        }
      ],
      "name": "NFTMinted",
      "type": "event"
    },
    {
      "anonymous": false,
      "inputs": [
        {
          "indexed": true,
          "internalType": "address",
          "name": "from",
          "type": "address"
        },
        {
          "indexed": true,
          "internalType": "address",
          "name": "to",
          "type": "address"
        },
        {
          "indexed": true,
          "internalType": "uint256",
          "name": "tokenId",
          "type": "uint256"
        }
      ],
      "name": "Transfer",
      "type": "event"
    },
    {
      "inputs": [],
      "name": "accessController",
      "outputs": [
        {
          "internalType": "contract PatientDoctorAccessController",
          "name": "",
          "type": "address"
        }
      ],
      "stateMutability": "view",
      "type": "function"
    },
    {
      "inputs": [
        {
          "internalType": "address",
          "name": "to",
          "type": "address"
        },
        {
          "internalType": "uint256",
          "name": "tokenId",
          "type": "uint256"
        }
      ],
      "name": "approve",
      "outputs": [],
      "stateMutability": "nonpayable",
      "type": "function"
    },
    {
      "inputs": [
        {
          "internalType": "address",
          "name": "owner",
          "type": "address"
        }
      ],
      "name": "balanceOf",
      "outputs": [
        {
          "internalType": "uint256",
          "name": "",
          "type": "uint256"
        }
      ],
      "stateMutability": "view",
      "type": "function"
    },
    {
      "inputs": [
        {
          "internalType": "uint256",
          "name": "tokenId",
          "type": "uint256"
        }
      ],
      "name": "getApproved",
      "outputs": [
        {
          "internalType": "address",
          "name": "",
          "type": "address"
        }
      ],
      "stateMutability": "view",
      "type": "function"
    },
    {
      "inputs": [
        {
          "internalType": "uint256",
          "name": "tokenId",
          "type": "uint256"
        }
      ],
      "name": "getCurrentDataURI",
      "outputs": [
        {
          "internalType": "string",
          "name": "",
          "type": "string"
        }
      ],
      "stateMutability": "view",
      "type": "function"
    },
    {
      "inputs": [
        {
          "internalType": "uint256",
          "name": "tokenId",
          "type": "uint256"
        }
      ],
      "name": "getDataHistory",
      "outputs": [
        {
          "internalType": "string[]",
          "name": "",
          "type": "string[]"
        }
      ],
      "stateMutability": "view",
      "type": "function"
    },
    {
      "inputs": [
        {
          "internalType": "address",
          "name": "patient",
          "type": "address"
        }
      ],
      "name": "getTokenId",
      "outputs": [
        {
          "internalType": "uint256",
          "name": "",
          "type": "uint256"
        }
      ],
      "stateMutability": "view",
      "type": "function"
    },
    {
      "inputs": [
        {
          "internalType": "address",
          "name": "patient",
          "type": "address"
        }
      ],
      "name": "hasMintedNFT",
      "outputs": [
        {
          "internalType": "bool",
          "name": "",
          "type": "bool"
        }
      ],
      "stateMutability": "view",
      "type": "function"
    },
    {
      "inputs": [
        {
          "internalType": "address",
          "name": "owner",
          "type": "address"
        },
        {
          "internalType": "address",
          "name": "operator",
          "type": "address"
        }
      ],
      "name": "isApprovedForAll",
      "outputs": [
        {
          "internalType": "bool",
          "name": "",
          "type": "bool"
        }
      ],
      "stateMutability": "view",
      "type": "function"
    },
    {
      "inputs": [
        {
          "internalType": "string",
          "name": "metadataURI",
          "type": "string"
        }
      ],
      "name": "mint",
      "outputs": [
        {
          "internalType": "uint256",
          "name": "",
          "type": "uint256"
        }
      ],
      "stateMutability": "nonpayable",
      "type": "function"
    },
    {
      "inputs": [],
      "name": "name",
      "outputs": [
        {
          "internalType": "string",
          "name": "",
          "type": "string"
        }
      ],
      "stateMutability": "view",
      "type": "function"
    },
    {
      "inputs": [
        {
          "internalType": "uint256",
          "name": "tokenId",
          "type": "uint256"
        }
      ],
      "name": "ownerOf",
      "outputs": [
        {
          "internalType": "address",
          "name": "",
          "type": "address"
        }
      ],
      "stateMutability": "view",
      "type": "function"
    },
    {
      "inputs": [
        {
          "internalType": "address",
          "name": "doctor",
          "type": "address"
        }
      ],
      "name": "revokeAccess",
      "outputs": [],
      "stateMutability": "nonpayable",
      "type": "function"
    },
    {
      "inputs": [
        {
          "internalType": "address",
          "name": "from",
          "type": "address"
        },
        {
          "internalType": "address",
          "name": "to",
          "type": "address"
        },
        {
          "internalType": "uint256",
          "name": "tokenId",
          "type": "uint256"
        }
      ],
      "name": "safeTransferFrom",
      "outputs": [],
      "stateMutability": "nonpayable",
      "type": "function"
    },
    {
      "inputs": [
        {
          "internalType": "address",
          "name": "from",
          "type": "address"
        },
        {
          "internalType": "address",
          "name": "to",
          "type": "address"
        },
        {
          "internalType": "uint256",
          "name": "tokenId",
          "type": "uint256"
        },
        {
          "internalType": "bytes",
          "name": "data",
          "type": "bytes"
        }
      ],
      "name": "safeTransferFrom",
      "outputs": [],
      "stateMutability": "nonpayable",
      "type": "function"
    },
    {
      "inputs": [
        {
          "internalType": "address",
          "name": "operator",
          "type": "address"
        },
        {
          "internalType": "bool",
          "name": "approved",
          "type": "bool"
        }
      ],
      "name": "setApprovalForAll",
      "outputs": [],
      "stateMutability": "nonpayable",
      "type": "function"
    },
    {
      "inputs": [
        {
          "internalType": "uint256",
          "name": "tokenId",
          "type": "uint256"
        },
        {
          "internalType": "string",
          "name": "newMetadataURI",
          "type": "string"
        }
      ],
      "name": "setMetadataURI",
      "outputs": [],
      "stateMutability": "nonpayable",
      "type": "function"
    },
    {
      "inputs": [
        {
          "internalType": "address",
          "name": "doctor",
          "type": "address"
        },
        {
          "internalType": "bytes",
          "name": "doctorEncryptedKey",
          "type": "bytes"
        }
      ],
      "name": "shareWithDoctor",
      "outputs": [],
      "stateMutability": "nonpayable",
      "type": "function"
    },
    {
      "inputs": [
        {
          "internalType": "bytes4",
          "name": "interfaceId",
          "type": "bytes4"
        }
      ],
      "name": "supportsInterface",
      "outputs": [
        {
          "internalType": "bool",
          "name": "",
          "type": "bool"
        }
      ],
      "stateMutability": "view",
      "type": "function"
    },
    {
      "inputs": [],
      "name": "symbol",
      "outputs": [
        {
          "internalType": "string",
          "name": "",
          "type": "string"
        }
      ],
      "stateMutability": "view",
      "type": "function"
    },
    {
      "inputs": [
        {
          "internalType": "uint256",
          "name": "tokenId",
          "type": "uint256"
        }
      ],
      "name": "tokenURI",
      "outputs": [
        {
          "internalType": "string",
          "name": "",
          "type": "string"
        }
      ],
      "stateMutability": "view",
      "type": "function"
    },
    {
      "inputs": [
        {
          "internalType": "address",
          "name": "from",
          "type": "address"
        },
        {
          "internalType": "address",
          "name": "to",
          "type": "address"
        },
        {
          "internalType": "uint256",
          "name": "tokenId",
          "type": "uint256"
        }
      ],
      "name": "transferFrom",
      "outputs": [],
      "stateMutability": "nonpayable",
      "type": "function"
    },
    {
      "inputs": [
        {
          "internalType": "uint256",
          "name": "tokenId",
          "type": "uint256"
        },
        {
          "internalType": "string",
          "name": "newDataURI",
          "type": "string"
        }
      ],
      "name": "updateDataURI",
      "outputs": [],
      "stateMutability": "nonpayable",
      "type": "function"
    },
    {
      "inputs": [],
      "name": "userRegistry",
      "outputs": [
        {
          "internalType": "contract UserAccessRegistry",
          "name": "",
          "type": "address"
        }
      ],
      "stateMutability": "view",
      "type": "function"
    }
  ],
  "bytecode": "0x60c06040523480156200001157600080fd5b50604051620040cd380380620040cd8339818101604052810190620000379190620001a3565b6040518060400160405280600d81526020017f4d65646963616c5265636f7264000000000000000000000000000000000000008152506040518060400160405280600381526020017f45485200000000000000000000000000000000000000000000000000000000008152508160009081620000b4919062000464565b508060019081620000c6919062000464565b5050508173ffffffffffffffffffffffffffffffffffffffff1660808173ffffffffffffffffffffffffffffffffffffffff16815250508073ffffffffffffffffffffffffffffffffffffffff1660a08173ffffffffffffffffffffffffffffffffffffffff168152505050506200054b565b600080fd5b600073ffffffffffffffffffffffffffffffffffffffff82169050919050565b60006200016b826200013e565b9050919050565b6200017d816200015e565b81146200018957600080fd5b50565b6000815190506200019d8162000172565b92915050565b60008060408385031215620001bd57620001bc62000139565b5b6000620001cd858286016200018c565b9250506020620001e0858286016200018c565b9150509250929050565b600081519050919050565b7f4e487b7100000000000000000000000000000000000000000000000000000000600052604160045260246000fd5b7f4e487b7100000000000000000000000000000000000000000000000000000000600052602260045260246000fd5b600060028204905060018216806200026c57607f821691505b60208210810362000282576200028162000224565b5b50919050565b60008190508160005260206000209050919050565b60006020601f8301049050919050565b600082821b905092915050565b600060088302620002ec7fffffffffffffffffffffffffffffffffffffffffffffffffffffffffffffffff82620002ad565b620002f88683620002ad565b95508019841693508086168417925050509392505050565b6000819050919050565b6000819050919050565b6000620003456200033f620003398462000310565b6200031a565b62000310565b9050919050565b6000819050919050565b620003618362000324565b6200037962000370826200034c565b848454620002ba565b825550505050565b600090565b6200039062000381565b6200039d81848462000356565b505050565b5b81811015620003c557620003b960008262000386565b600181019050620003a3565b5050565b601f8211156200041457620003de8162000288565b620003e9846200029d565b81016020851015620003f9578190505b6200041162000408856200029d565b830182620003a2565b50505b505050565b600082821c905092915050565b6000620004396000198460080262000419565b1980831691505092915050565b600062000454838362000426565b9150826002028217905092915050565b6200046f82620001ea565b67ffffffffffffffff8111156200048b576200048a620001f5565b5b62000497825462000253565b620004a4828285620003c9565b600060209050601f831160018114620004dc5760008415620004c7578287015190505b620004d3858262000446565b86555062000543565b601f198416620004ec8662000288565b60005b828110156200051657848901518255600182019150602085019450602081019050620004ef565b8683101562000536578489015162000532601f89168262000426565b8355505b6001600288020188555050505b505050505050565b60805160a051613b396200059460003960008181610c0301526113a301526000818161070401528181610df00152818161102d015281816111c901526117800152613b396000f3fe608060405234801561001057600080fd5b50600436106101585760003560e01c806385e68531116100c3578063c87b56dd1161007c578063c87b56dd146103d5578063d85d3d2714610405578063e28cb25a14610435578063e699ef7014610465578063e985e9c514610481578063f1537686146104b157610158565b806385e685311461032957806395d89b4114610345578063a22cb46514610363578063b88d4fde1461037f578063b97a707b1461039b578063bc43cbaf146103b757610158565b80632b67c031116101155780632b67c0311461022f57806332c62d7e1461025f57806342842e0e1461028f5780635c7460d6146102ab5780636352211e146102c957806370a08231146102f957610158565b806301ffc9a71461015d57806306fdde031461018d578063081812fc146101ab578063087dce94146101db578063095ea7b3146101f757806323b872dd14610213575b600080fd5b6101776004803603810190610172919061262a565b6104e1565b6040516101849190612672565b60405180910390f35b6101956105c3565b6040516101a2919061271d565b60405180910390f35b6101c560048036038101906101c09190612775565b610655565b6040516101d291906127e3565b60405180910390f35b6101f560048036038101906101f09190612863565b610671565b005b610211600480360381019061020c91906128ef565b610844565b005b61022d6004803603810190610228919061292f565b61085a565b005b61024960048036038101906102449190612775565b61095c565b6040516102569190612a8e565b60405180910390f35b61027960048036038101906102749190612775565b610ac2565b604051610286919061271d565b60405180910390f35b6102a960048036038101906102a4919061292f565b610be1565b005b6102b3610c01565b6040516102c09190612b0f565b60405180910390f35b6102e360048036038101906102de9190612775565b610c25565b6040516102f091906127e3565b60405180910390f35b610313600480360381019061030e9190612b2a565b610c37565b6040516103209190612b66565b60405180910390f35b610343600480360381019061033e9190612b2a565b610cf1565b005b61034d610ecd565b60405161035a919061271d565b60405180910390f35b61037d60048036038101906103789190612bad565b610f5f565b005b61039960048036038101906103949190612d1d565b610f75565b005b6103b560048036038101906103b09190612863565b610f9a565b005b6103bf6111c7565b6040516103cc9190612dc1565b60405180910390f35b6103ef60048036038101906103ea9190612775565b6111eb565b6040516103fc919061271d565b60405180910390f35b61041f600480360381019061041a9190612ddc565b61130a565b60405161042c9190612b66565b60405180910390f35b61044f600480360381019061044a9190612b2a565b6115ee565b60405161045c9190612672565b60405180910390f35b61047f600480360381019061047a9190612e7f565b611681565b005b61049b60048036038101906104969190612edf565b611863565b6040516104a89190612672565b60405180910390f35b6104cb60048036038101906104c69190612b2a565b6118f7565b6040516104d89190612b66565b60405180910390f35b60007f80ac58cd000000000000000000000000000000000000000000000000000000007bffffffffffffffffffffffffffffffffffffffffffffffffffffffff1916827bffffffffffffffffffffffffffffffffffffffffffffffffffffffff191614806105ac57507f5b5e139f000000000000000000000000000000000000000000000000000000007bffffffffffffffffffffffffffffffffffffffffffffffffffffffff1916827bffffffffffffffffffffffffffffffffffffffffffffffffffffffff1916145b806105bc57506105bb826119ca565b5b9050919050565b6060600080546105d290612f4e565b80601f01602080910402602001604051908101604052809291908181526020018280546105fe90612f4e565b801561064b5780601f106106205761010080835404028352916020019161064b565b820191906000526020600020905b81548152906001019060200180831161062e57829003601f168201915b5050505050905090565b600061066082611a34565b5061066a82611abc565b9050919050565b600061067c84610c25565b90508073ffffffffffffffffffffffffffffffffffffffff163373ffffffffffffffffffffffffffffffffffffffff1614806106eb57503373ffffffffffffffffffffffffffffffffffffffff166106d385610655565b73ffffffffffffffffffffffffffffffffffffffff16145b806106fc57506106fb8133611863565b5b8061079f57507f000000000000000000000000000000000000000000000000000000000000000073ffffffffffffffffffffffffffffffffffffffff16631709ef0782336040518363ffffffff1660e01b815260040161075d929190612f7f565b602060405180830381865afa15801561077a573d6000803e3d6000fd5b505050506040513d601f19601f8201168201806040525081019061079e9190612fbd565b5b6107de576040517f08c379a00000000000000000000000000000000000000000000000000000000081526004016107d590613036565b60405180910390fd5b8282600960008781526020019081526020016000206002019182610803929190613203565b50837f459157ba24c7ab9878b165ef465fa6ae2ab42bcd8445f576be378768b0c473098484604051610836929190613300565b60405180910390a250505050565b6108568282610851611af9565b611b01565b5050565b600073ffffffffffffffffffffffffffffffffffffffff168273ffffffffffffffffffffffffffffffffffffffff16036108cc5760006040517f64a0ae920000000000000000000000000000000000000000000000000000000081526004016108c391906127e3565b60405180910390fd5b60006108e083836108db611af9565b611b13565b90508373ffffffffffffffffffffffffffffffffffffffff168173ffffffffffffffffffffffffffffffffffffffff1614610956578382826040517f64283d7b00000000000000000000000000000000000000000000000000000000815260040161094d93929190613324565b60405180910390fd5b50505050565b6060600073ffffffffffffffffffffffffffffffffffffffff1661097f83611c04565b73ffffffffffffffffffffffffffffffffffffffff16036109d5576040517f08c379a00000000000000000000000000000000000000000000000000000000081526004016109cc906133a7565b60405180910390fd5b60096000838152602001908152602001600020600101805480602002602001604051908101604052809291908181526020016000905b82821015610ab7578382906000526020600020018054610a2a90612f4e565b80601f0160208091040260200160405190810160405280929190818152602001828054610a5690612f4e565b8015610aa35780601f10610a7857610100808354040283529160200191610aa3565b820191906000526020600020905b815481529060010190602001808311610a8657829003601f168201915b505050505081526020019060010190610a0b565b505050509050919050565b6060600073ffffffffffffffffffffffffffffffffffffffff16610ae583611c04565b73ffffffffffffffffffffffffffffffffffffffff1603610b3b576040517f08c379a0000000000000000000000000000000000000000000000000000000008152600401610b32906133a7565b60405180910390fd5b600960008381526020019081526020016000206000018054610b5c90612f4e565b80601f0160208091040260200160405190810160405280929190818152602001828054610b8890612f4e565b8015610bd55780601f10610baa57610100808354040283529160200191610bd5565b820191906000526020600020905b815481529060010190602001808311610bb857829003601f168201915b50505050509050919050565b610bfc83838360405180602001604052806000815250610f75565b505050565b7f000000000000000000000000000000000000000000000000000000000000000081565b6000610c3082611a34565b9050919050565b60008073ffffffffffffffffffffffffffffffffffffffff168273ffffffffffffffffffffffffffffffffffffffff1603610caa5760006040517f89c62b64000000000000000000000000000000000000000000000000000000008152600401610ca191906127e3565b60405180910390fd5b600360008373ffffffffffffffffffffffffffffffffffffffff1673ffffffffffffffffffffffffffffffffffffffff168152602001908152602001600020549050919050565b6000600760003373ffffffffffffffffffffffffffffffffffffffff1673ffffffffffffffffffffffffffffffffffffffff16815260200190815260200160002054905060008103610d78576040517f08c379a0000000000000000000000000000000000000000000000000000000008152600401610d6f90613413565b60405180910390fd5b3373ffffffffffffffffffffffffffffffffffffffff16610d9882611c04565b73ffffffffffffffffffffffffffffffffffffffff1614610dee576040517f08c379a0000000000000000000000000000000000000000000000000000000008152600401610de59061347f565b60405180910390fd5b7f000000000000000000000000000000000000000000000000000000000000000073ffffffffffffffffffffffffffffffffffffffff166385e68531836040518263ffffffff1660e01b8152600401610e4791906127e3565b600060405180830381600087803b158015610e6157600080fd5b505af1158015610e75573d6000803e3d6000fd5b505050508173ffffffffffffffffffffffffffffffffffffffff16817f4f0c9c2b80e157066ff8752bf61141c0f2028908492a5bfec3717255ac9b9b946000604051610ec19190612672565b60405180910390a35050565b606060018054610edc90612f4e565b80601f0160208091040260200160405190810160405280929190818152602001828054610f0890612f4e565b8015610f555780601f10610f2a57610100808354040283529160200191610f55565b820191906000526020600020905b815481529060010190602001808311610f3857829003601f168201915b5050505050905090565b610f71610f6a611af9565b8383611c41565b5050565b610f8084848461085a565b610f94610f8b611af9565b85858585611db0565b50505050565b6000610fa584610c25565b90508073ffffffffffffffffffffffffffffffffffffffff163373ffffffffffffffffffffffffffffffffffffffff16148061101457503373ffffffffffffffffffffffffffffffffffffffff16610ffc85610655565b73ffffffffffffffffffffffffffffffffffffffff16145b8061102557506110248133611863565b5b806110c857507f000000000000000000000000000000000000000000000000000000000000000073ffffffffffffffffffffffffffffffffffffffff16631709ef0782336040518363ffffffff1660e01b8152600401611086929190612f7f565b602060405180830381865afa1580156110a3573d6000803e3d6000fd5b505050506040513d601f19601f820116820180604052508101906110c79190612fbd565b5b611107576040517f08c379a00000000000000000000000000000000000000000000000000000000081526004016110fe90613036565b60405180910390fd5b6000600960008681526020019081526020016000209050600081600001805461112f90612f4e565b9050111561117257806001018160000190806001815401808255809150506001900390600052602060002001600090919091909150908161117091906134ca565b505b8383826000019182611185929190613203565b50847f32ff2de261828e51bc5b40e629ae81310bf58f920815860c9dc61c7ccf785fa185856040516111b8929190613300565b60405180910390a25050505050565b7f000000000000000000000000000000000000000000000000000000000000000081565b6060600073ffffffffffffffffffffffffffffffffffffffff1661120e83611c04565b73ffffffffffffffffffffffffffffffffffffffff1603611264576040517f08c379a000000000000000000000000000000000000000000000000000000000815260040161125b906135fe565b60405180910390fd5b60096000838152602001908152602001600020600201805461128590612f4e565b80601f01602080910402602001604051908101604052809291908181526020018280546112b190612f4e565b80156112fe5780601f106112d3576101008083540402835291602001916112fe565b820191906000526020600020905b8154815290600101906020018083116112e157829003601f168201915b50505050509050919050565b600080600760003373ffffffffffffffffffffffffffffffffffffffff1673ffffffffffffffffffffffffffffffffffffffff168152602001908152602001600020541461138d576040517f08c379a00000000000000000000000000000000000000000000000000000000081526004016113849061366a565b60405180910390fd5b600160028111156113a1576113a061368a565b5b7f000000000000000000000000000000000000000000000000000000000000000073ffffffffffffffffffffffffffffffffffffffff166344276733336040518263ffffffff1660e01b81526004016113fa91906127e3565b602060405180830381865afa158015611417573d6000803e3d6000fd5b505050506040513d601f19601f8201168201806040525081019061143b91906136de565b600281111561144d5761144c61368a565b5b1461148d576040517f08c379a000000000000000000000000000000000000000000000000000000000815260040161148490613757565b60405180910390fd5b600060066000815461149e906137a6565b91905081905590506114b03382611f61565b80600760003373ffffffffffffffffffffffffffffffffffffffff1673ffffffffffffffffffffffffffffffffffffffff16815260200190815260200160002081905550336008600083815260200190815260200160002060006101000a81548173ffffffffffffffffffffffffffffffffffffffff021916908373ffffffffffffffffffffffffffffffffffffffff16021790555060006009600083815260200190815260200160002090508484826002019182611570929190613203565b506040518060200160405280600081525081600001908161159191906137ee565b50813373ffffffffffffffffffffffffffffffffffffffff167fd35bb95e09c04b219e35047ce7b7b300e3384264ef84a40456943dbc0fc17c1487876040516115db929190613300565b60405180910390a3819250505092915050565b600080600760008473ffffffffffffffffffffffffffffffffffffffff1673ffffffffffffffffffffffffffffffffffffffff168152602001908152602001600020549050600081141580156116795750600073ffffffffffffffffffffffffffffffffffffffff1661166082611c04565b73ffffffffffffffffffffffffffffffffffffffff1614155b915050919050565b6000600760003373ffffffffffffffffffffffffffffffffffffffff1673ffffffffffffffffffffffffffffffffffffffff16815260200190815260200160002054905060008103611708576040517f08c379a00000000000000000000000000000000000000000000000000000000081526004016116ff90613413565b60405180910390fd5b3373ffffffffffffffffffffffffffffffffffffffff1661172882611c04565b73ffffffffffffffffffffffffffffffffffffffff161461177e576040517f08c379a00000000000000000000000000000000000000000000000000000000081526004016117759061347f565b60405180910390fd5b7f000000000000000000000000000000000000000000000000000000000000000073ffffffffffffffffffffffffffffffffffffffff1663484a861b8585856040518463ffffffff1660e01b81526004016117db939291906138fe565b600060405180830381600087803b1580156117f557600080fd5b505af1158015611809573d6000803e3d6000fd5b505050508373ffffffffffffffffffffffffffffffffffffffff16817f4f0c9c2b80e157066ff8752bf61141c0f2028908492a5bfec3717255ac9b9b9460016040516118559190612672565b60405180910390a350505050565b6000600560008473ffffffffffffffffffffffffffffffffffffffff1673ffffffffffffffffffffffffffffffffffffffff16815260200190815260200160002060008373ffffffffffffffffffffffffffffffffffffffff1673ffffffffffffffffffffffffffffffffffffffff16815260200190815260200160002060009054906101000a900460ff16905092915050565b600080600760008473ffffffffffffffffffffffffffffffffffffffff1673ffffffffffffffffffffffffffffffffffffffff168152602001908152602001600020549050600081141580156119825750600073ffffffffffffffffffffffffffffffffffffffff1661196982611c04565b73ffffffffffffffffffffffffffffffffffffffff1614155b6119c1576040517f08c379a00000000000000000000000000000000000000000000000000000000081526004016119b89061397c565b60405180910390fd5b80915050919050565b60007f01ffc9a7000000000000000000000000000000000000000000000000000000007bffffffffffffffffffffffffffffffffffffffffffffffffffffffff1916827bffffffffffffffffffffffffffffffffffffffffffffffffffffffff1916149050919050565b600080611a4083611c04565b9050600073ffffffffffffffffffffffffffffffffffffffff168173ffffffffffffffffffffffffffffffffffffffff1603611ab357826040517f7e273289000000000000000000000000000000000000000000000000000000008152600401611aaa9190612b66565b60405180910390fd5b80915050919050565b60006004600083815260200190815260200160002060009054906101000a900473ffffffffffffffffffffffffffffffffffffffff169050919050565b600033905090565b611b0e838383600161205a565b505050565b60008073ffffffffffffffffffffffffffffffffffffffff168273ffffffffffffffffffffffffffffffffffffffff161480611b7b5750600073ffffffffffffffffffffffffffffffffffffffff168473ffffffffffffffffffffffffffffffffffffffff16145b80611bb157508173ffffffffffffffffffffffffffffffffffffffff168473ffffffffffffffffffffffffffffffffffffffff16145b611bf0576040517f08c379a0000000000000000000000000000000000000000000000000000000008152600401611be7906139e8565b60405180910390fd5b611bfb84848461221f565b90509392505050565b60006002600083815260200190815260200160002060009054906101000a900473ffffffffffffffffffffffffffffffffffffffff169050919050565b600073ffffffffffffffffffffffffffffffffffffffff168273ffffffffffffffffffffffffffffffffffffffff1603611cb257816040517f5b08ba18000000000000000000000000000000000000000000000000000000008152600401611ca991906127e3565b60405180910390fd5b80600560008573ffffffffffffffffffffffffffffffffffffffff1673ffffffffffffffffffffffffffffffffffffffff16815260200190815260200160002060008473ffffffffffffffffffffffffffffffffffffffff1673ffffffffffffffffffffffffffffffffffffffff16815260200190815260200160002060006101000a81548160ff0219169083151502179055508173ffffffffffffffffffffffffffffffffffffffff168373ffffffffffffffffffffffffffffffffffffffff167f17307eab39ab6107e8899845ad3d59bd9653f200f220920489ca2b5937696c3183604051611da39190612672565b60405180910390a3505050565b60008373ffffffffffffffffffffffffffffffffffffffff163b1115611f5a578273ffffffffffffffffffffffffffffffffffffffff1663150b7a02868685856040518563ffffffff1660e01b8152600401611e0f9493929190613a4c565b6020604051808303816000875af1925050508015611e4b57506040513d601f19601f82011682018060405250810190611e489190613aad565b60015b611ecf573d8060008114611e7b576040519150601f19603f3d011682016040523d82523d6000602084013e611e80565b606091505b506000815103611ec757836040517f64a0ae92000000000000000000000000000000000000000000000000000000008152600401611ebe91906127e3565b60405180910390fd5b805181602001fd5b63150b7a0260e01b7bffffffffffffffffffffffffffffffffffffffffffffffffffffffff1916817bffffffffffffffffffffffffffffffffffffffffffffffffffffffff191614611f5857836040517f64a0ae92000000000000000000000000000000000000000000000000000000008152600401611f4f91906127e3565b60405180910390fd5b505b5050505050565b600073ffffffffffffffffffffffffffffffffffffffff168273ffffffffffffffffffffffffffffffffffffffff1603611fd35760006040517f64a0ae92000000000000000000000000000000000000000000000000000000008152600401611fca91906127e3565b60405180910390fd5b6000611fe183836000611b13565b9050600073ffffffffffffffffffffffffffffffffffffffff168173ffffffffffffffffffffffffffffffffffffffff16146120555760006040517f73c6ac6e00000000000000000000000000000000000000000000000000000000815260040161204c91906127e3565b60405180910390fd5b505050565b80806120935750600073ffffffffffffffffffffffffffffffffffffffff168273ffffffffffffffffffffffffffffffffffffffff1614155b156121c75760006120a384611a34565b9050600073ffffffffffffffffffffffffffffffffffffffff168373ffffffffffffffffffffffffffffffffffffffff161415801561210e57508273ffffffffffffffffffffffffffffffffffffffff168173ffffffffffffffffffffffffffffffffffffffff1614155b8015612121575061211f8184611863565b155b1561216357826040517fa9fbf51f00000000000000000000000000000000000000000000000000000000815260040161215a91906127e3565b60405180910390fd5b81156121c557838573ffffffffffffffffffffffffffffffffffffffff168273ffffffffffffffffffffffffffffffffffffffff167f8c5be1e5ebec7d5bd14f71427d1e84f3dd0314c0f7b2291e5b200ac8c7c3b92560405160405180910390a45b505b836004600085815260200190815260200160002060006101000a81548173ffffffffffffffffffffffffffffffffffffffff021916908373ffffffffffffffffffffffffffffffffffffffff16021790555050505050565b60008061222b84611c04565b9050600073ffffffffffffffffffffffffffffffffffffffff168373ffffffffffffffffffffffffffffffffffffffff161461226d5761226c818486612439565b5b600073ffffffffffffffffffffffffffffffffffffffff168173ffffffffffffffffffffffffffffffffffffffff16146122fe576122af60008560008061205a565b6001600360008373ffffffffffffffffffffffffffffffffffffffff1673ffffffffffffffffffffffffffffffffffffffff168152602001908152602001600020600082825403925050819055505b600073ffffffffffffffffffffffffffffffffffffffff168573ffffffffffffffffffffffffffffffffffffffff1614612381576001600360008773ffffffffffffffffffffffffffffffffffffffff1673ffffffffffffffffffffffffffffffffffffffff168152602001908152602001600020600082825401925050819055505b846002600086815260200190815260200160002060006101000a81548173ffffffffffffffffffffffffffffffffffffffff021916908373ffffffffffffffffffffffffffffffffffffffff160217905550838573ffffffffffffffffffffffffffffffffffffffff168273ffffffffffffffffffffffffffffffffffffffff167fddf252ad1be2c89b69c2b068fc378daa952ba7f163c4a11628f55a4df523b3ef60405160405180910390a4809150509392505050565b6124448383836124fd565b6124f857600073ffffffffffffffffffffffffffffffffffffffff168373ffffffffffffffffffffffffffffffffffffffff16036124b957806040517f7e2732890000000000000000000000000000000000000000000000000000000081526004016124b09190612b66565b60405180910390fd5b81816040517f177e802f0000000000000000000000000000000000000000000000000000000081526004016124ef929190613ada565b60405180910390fd5b505050565b60008073ffffffffffffffffffffffffffffffffffffffff168373ffffffffffffffffffffffffffffffffffffffff16141580156125b557508273ffffffffffffffffffffffffffffffffffffffff168473ffffffffffffffffffffffffffffffffffffffff16148061257657506125758484611863565b5b806125b457508273ffffffffffffffffffffffffffffffffffffffff1661259c83611abc565b73ffffffffffffffffffffffffffffffffffffffff16145b5b90509392505050565b6000604051905090565b600080fd5b600080fd5b60007fffffffff0000000000000000000000000000000000000000000000000000000082169050919050565b612607816125d2565b811461261257600080fd5b50565b600081359050612624816125fe565b92915050565b6000602082840312156126405761263f6125c8565b5b600061264e84828501612615565b91505092915050565b60008115159050919050565b61266c81612657565b82525050565b60006020820190506126876000830184612663565b92915050565b600081519050919050565b600082825260208201905092915050565b60005b838110156126c75780820151818401526020810190506126ac565b60008484015250505050565b6000601f19601f8301169050919050565b60006126ef8261268d565b6126f98185612698565b93506127098185602086016126a9565b612712816126d3565b840191505092915050565b6000602082019050818103600083015261273781846126e4565b905092915050565b6000819050919050565b6127528161273f565b811461275d57600080fd5b50565b60008135905061276f81612749565b92915050565b60006020828403121561278b5761278a6125c8565b5b600061279984828501612760565b91505092915050565b600073ffffffffffffffffffffffffffffffffffffffff82169050919050565b60006127cd826127a2565b9050919050565b6127dd816127c2565b82525050565b60006020820190506127f860008301846127d4565b92915050565b600080fd5b600080fd5b600080fd5b60008083601f840112612823576128226127fe565b5b8235905067ffffffffffffffff8111156128405761283f612803565b5b60208301915083600182028301111561285c5761285b612808565b5b9250929050565b60008060006040848603121561287c5761287b6125c8565b5b600061288a86828701612760565b935050602084013567ffffffffffffffff8111156128ab576128aa6125cd565b5b6128b78682870161280d565b92509250509250925092565b6128cc816127c2565b81146128d757600080fd5b50565b6000813590506128e9816128c3565b92915050565b60008060408385031215612906576129056125c8565b5b6000612914858286016128da565b925050602061292585828601612760565b9150509250929050565b600080600060608486031215612948576129476125c8565b5b6000612956868287016128da565b9350506020612967868287016128da565b925050604061297886828701612760565b9150509250925092565b600081519050919050565b600082825260208201905092915050565b6000819050602082019050919050565b600082825260208201905092915050565b60006129ca8261268d565b6129d481856129ae565b93506129e48185602086016126a9565b6129ed816126d3565b840191505092915050565b6000612a0483836129bf565b905092915050565b6000602082019050919050565b6000612a2482612982565b612a2e818561298d565b935083602082028501612a408561299e565b8060005b85811015612a7c5784840389528151612a5d85826129f8565b9450612a6883612a0c565b925060208a01995050600181019050612a44565b50829750879550505050505092915050565b60006020820190508181036000830152612aa88184612a19565b905092915050565b6000819050919050565b6000612ad5612ad0612acb846127a2565b612ab0565b6127a2565b9050919050565b6000612ae782612aba565b9050919050565b6000612af982612adc565b9050919050565b612b0981612aee565b82525050565b6000602082019050612b246000830184612b00565b92915050565b600060208284031215612b4057612b3f6125c8565b5b6000612b4e848285016128da565b91505092915050565b612b608161273f565b82525050565b6000602082019050612b7b6000830184612b57565b92915050565b612b8a81612657565b8114612b9557600080fd5b50565b600081359050612ba781612b81565b92915050565b60008060408385031215612bc457612bc36125c8565b5b6000612bd2858286016128da565b9250506020612be385828601612b98565b9150509250929050565b600080fd5b7f4e487b7100000000000000000000000000000000000000000000000000000000600052604160045260246000fd5b612c2a826126d3565b810181811067ffffffffffffffff82111715612c4957612c48612bf2565b5b80604052505050565b6000612c5c6125be565b9050612c688282612c21565b919050565b600067ffffffffffffffff821115612c8857612c87612bf2565b5b612c91826126d3565b9050602081019050919050565b82818337600083830152505050565b6000612cc0612cbb84612c6d565b612c52565b905082815260208101848484011115612cdc57612cdb612bed565b5b612ce7848285612c9e565b509392505050565b600082601f830112612d0457612d036127fe565b5b8135612d14848260208601612cad565b91505092915050565b60008060008060808587031215612d3757612d366125c8565b5b6000612d45878288016128da565b9450506020612d56878288016128da565b9350506040612d6787828801612760565b925050606085013567ffffffffffffffff811115612d8857612d876125cd565b5b612d9487828801612cef565b91505092959194509250565b6000612dab82612adc565b9050919050565b612dbb81612da0565b82525050565b6000602082019050612dd66000830184612db2565b92915050565b60008060208385031215612df357612df26125c8565b5b600083013567ffffffffffffffff811115612e1157612e106125cd565b5b612e1d8582860161280d565b92509250509250929050565b60008083601f840112612e3f57612e3e6127fe565b5b8235905067ffffffffffffffff811115612e5c57612e5b612803565b5b602083019150836001820283011115612e7857612e77612808565b5b9250929050565b600080600060408486031215612e9857612e976125c8565b5b6000612ea6868287016128da565b935050602084013567ffffffffffffffff811115612ec757612ec66125cd565b5b612ed386828701612e29565b92509250509250925092565b60008060408385031215612ef657612ef56125c8565b5b6000612f04858286016128da565b9250506020612f15858286016128da565b9150509250929050565b7f4e487b7100000000000000000000000000000000000000000000000000000000600052602260045260246000fd5b60006002820490506001821680612f6657607f821691505b602082108103612f7957612f78612f1f565b5b50919050565b6000604082019050612f9460008301856127d4565b612fa160208301846127d4565b9392505050565b600081519050612fb781612b81565b92915050565b600060208284031215612fd357612fd26125c8565b5b6000612fe184828501612fa8565b91505092915050565b7f4e6f7420617574686f72697a6564000000000000000000000000000000000000600082015250565b6000613020600e83612698565b915061302b82612fea565b602082019050919050565b6000602082019050818103600083015261304f81613013565b9050919050565b600082905092915050565b60008190508160005260206000209050919050565b60006020601f8301049050919050565b600082821b905092915050565b6000600883026130c37fffffffffffffffffffffffffffffffffffffffffffffffffffffffffffffffff82613086565b6130cd8683613086565b95508019841693508086168417925050509392505050565b60006131006130fb6130f68461273f565b612ab0565b61273f565b9050919050565b6000819050919050565b61311a836130e5565b61312e61312682613107565b848454613093565b825550505050565b600090565b613143613136565b61314e818484613111565b505050565b5b818110156131725761316760008261313b565b600181019050613154565b5050565b601f8211156131b75761318881613061565b61319184613076565b810160208510156131a0578190505b6131b46131ac85613076565b830182613153565b50505b505050565b600082821c905092915050565b60006131da600019846008026131bc565b1980831691505092915050565b60006131f383836131c9565b9150826002028217905092915050565b61320d8383613056565b67ffffffffffffffff81111561322657613225612bf2565b5b6132308254612f4e565b61323b828285613176565b6000601f83116001811461326a5760008415613258578287013590505b61326285826131e7565b8655506132ca565b601f19841661327886613061565b60005b828110156132a05784890135825560018201915060208501945060208101905061327b565b868310156132bd57848901356132b9601f8916826131c9565b8355505b6001600288020188555050505b50505050505050565b60006132df8385612698565b93506132ec838584612c9e565b6132f5836126d3565b840190509392505050565b6000602082019050818103600083015261331b8184866132d3565b90509392505050565b600060608201905061333960008301866127d4565b6133466020830185612b57565b61335360408301846127d4565b949350505050565b7f4d65646963616c207265636f726420646f6573206e6f74206578697374000000600082015250565b6000613391601d83612698565b915061339c8261335b565b602082019050919050565b600060208201905081810360008301526133c081613384565b9050919050565b7f4e6f204e4654206d696e74656400000000000000000000000000000000000000600082015250565b60006133fd600d83612698565b9150613408826133c7565b602082019050919050565b6000602082019050818103600083015261342c816133f0565b9050919050565b7f4e6f7420746865204e4654206f776e6572000000000000000000000000000000600082015250565b6000613469601183612698565b915061347482613433565b602082019050919050565b600060208201905081810360008301526134988161345c565b9050919050565b6000815490506134ae81612f4e565b9050919050565b60008190508160005260206000209050919050565b8181036134d85750506135b0565b6134e18261349f565b67ffffffffffffffff8111156134fa576134f9612bf2565b5b6135048254612f4e565b61350f828285613176565b6000601f83116001811461353e576000841561352c578287015490505b61353685826131e7565b8655506135a9565b601f19841661354c876134b5565b965061355786613061565b60005b8281101561357f5784890154825560018201915060018501945060208101905061355a565b8683101561359c5784890154613598601f8916826131c9565b8355505b6001600288020188555050505b5050505050505b565b7f4e6f6e6578697374656e7420746f6b656e000000000000000000000000000000600082015250565b60006135e8601183612698565b91506135f3826135b2565b602082019050919050565b60006020820190508181036000830152613617816135db565b9050919050565b7f416c7265616479206d696e746564000000000000000000000000000000000000600082015250565b6000613654600e83612698565b915061365f8261361e565b602082019050919050565b6000602082019050818103600083015261368381613647565b9050919050565b7f4e487b7100000000000000000000000000000000000000000000000000000000600052602160045260246000fd5b600381106136c657600080fd5b50565b6000815190506136d8816136b9565b92915050565b6000602082840312156136f4576136f36125c8565b5b6000613702848285016136c9565b91505092915050565b7f4f6e6c792070617469656e747300000000000000000000000000000000000000600082015250565b6000613741600d83612698565b915061374c8261370b565b602082019050919050565b6000602082019050818103600083015261377081613734565b9050919050565b7f4e487b7100000000000000000000000000000000000000000000000000000000600052601160045260246000fd5b60006137b18261273f565b91507fffffffffffffffffffffffffffffffffffffffffffffffffffffffffffffffff82036137e3576137e2613777565b5b600182019050919050565b6137f78261268d565b67ffffffffffffffff8111156138105761380f612bf2565b5b61381a8254612f4e565b613825828285613176565b600060209050601f8311600181146138585760008415613846578287015190505b61385085826131e7565b8655506138b8565b601f19841661386686613061565b60005b8281101561388e57848901518255600182019150602085019450602081019050613869565b868310156138ab57848901516138a7601f8916826131c9565b8355505b6001600288020188555050505b505050505050565b600082825260208201905092915050565b60006138dd83856138c0565b93506138ea838584612c9e565b6138f3836126d3565b840190509392505050565b600060408201905061391360008301866127d4565b81810360208301526139268184866138d1565b9050949350505050565b7f4e6f2076616c6964204e465420666f722070617469656e740000000000000000600082015250565b6000613966601883612698565b915061397182613930565b602082019050919050565b6000602082019050818103600083015261399581613959565b9050919050565b7f4e6f6e2d7472616e7366657261626c65204e4654000000000000000000000000600082015250565b60006139d2601483612698565b91506139dd8261399c565b602082019050919050565b60006020820190508181036000830152613a01816139c5565b9050919050565b600081519050919050565b6000613a1e82613a08565b613a2881856138c0565b9350613a388185602086016126a9565b613a41816126d3565b840191505092915050565b6000608082019050613a6160008301876127d4565b613a6e60208301866127d4565b613a7b6040830185612b57565b8181036060830152613a8d8184613a13565b905095945050505050565b600081519050613aa7816125fe565b92915050565b600060208284031215613ac357613ac26125c8565b5b6000613ad184828501613a98565b91505092915050565b6000604082019050613aef60008301856127d4565b613afc6020830184612b57565b939250505056fea2646970667358221220c0ee95fe0910b7f2d3eba48ecbd4798cefeb5675a8a5000736f0b865e61c5c7664736f6c63430008140033",
  "linkReferences": {},
  "deployedLinkReferences": {}
}