{
    "_format": "hh-sol-artifact-1",
    "contractName": "EHRNFT",
    "sourceName": "contracts/EHRNFT.sol",
    "abi": [
        {
            "inputs": [
                {
                    "internalType": "address",
                    "name": "initialOwner",
                    "type": "address"
                }
            ],
            "stateMutability": "nonpayable",
            "type": "constructor"
        },
        {
            "inputs": [
                {
                    "internalType": "address",
                    "name": "sender",
                    "type": "address"
                },
                {
                    "internalType": "uint256",
                    "name": "tokenId",
                    "type": "uint256"
                },
                {
                    "internalType": "address",
                    "name": "owner",
                    "type": "address"
                }
            ],
            "name": "ERC721IncorrectOwner",
            "type": "error"
        },
        {
            "inputs": [
                {
                    "internalType": "address",
                    "name": "operator",
                    "type": "address"
                },
                {
                    "internalType": "uint256",
                    "name": "tokenId",
                    "type": "uint256"
                }
            ],
            "name": "ERC721InsufficientApproval",
            "type": "error"
        },
        {
            "inputs": [
                {
                    "internalType": "address",
                    "name": "approver",
                    "type": "address"
                }
            ],
            "name": "ERC721InvalidApprover",
            "type": "error"
        },
        {
            "inputs": [
                {
                    "internalType": "address",
                    "name": "operator",
                    "type": "address"
                }
            ],
            "name": "ERC721InvalidOperator",
            "type": "error"
        },
        {
            "inputs": [
                {
                    "internalType": "address",
                    "name": "owner",
                    "type": "address"
                }
            ],
            "name": "ERC721InvalidOwner",
            "type": "error"
        },
        {
            "inputs": [
                {
                    "internalType": "address",
                    "name": "receiver",
                    "type": "address"
                }
            ],
            "name": "ERC721InvalidReceiver",
            "type": "error"
        },
        {
            "inputs": [
                {
                    "internalType": "address",
                    "name": "sender",
                    "type": "address"
                }
            ],
            "name": "ERC721InvalidSender",
            "type": "error"
        },
        {
            "inputs": [
                {
                    "internalType": "uint256",
                    "name": "tokenId",
                    "type": "uint256"
                }
            ],
            "name": "ERC721NonexistentToken",
            "type": "error"
        },
        {
            "inputs": [
                {
                    "internalType": "address",
                    "name": "owner",
                    "type": "address"
                }
            ],
            "name": "OwnableInvalidOwner",
            "type": "error"
        },
        {
            "inputs": [
                {
                    "internalType": "address",
                    "name": "account",
                    "type": "address"
                }
            ],
            "name": "OwnableUnauthorizedAccount",
            "type": "error"
        },
        {
            "anonymous": false,
            "inputs": [
                {
                    "indexed": true,
                    "internalType": "address",
                    "name": "owner",
                    "type": "address"
                },
                {
                    "indexed": true,
                    "internalType": "address",
                    "name": "approved",
                    "type": "address"
                },
                {
                    "indexed": true,
                    "internalType": "uint256",
                    "name": "tokenId",
                    "type": "uint256"
                }
            ],
            "name": "Approval",
            "type": "event"
        },
        {
            "anonymous": false,
            "inputs": [
                {
                    "indexed": true,
                    "internalType": "address",
                    "name": "owner",
                    "type": "address"
                },
                {
                    "indexed": true,
                    "internalType": "address",
                    "name": "operator",
                    "type": "address"
                },
                {
                    "indexed": false,
                    "internalType": "bool",
                    "name": "approved",
                    "type": "bool"
                }
            ],
            "name": "ApprovalForAll",
            "type": "event"
        },
        {
            "anonymous": false,
            "inputs": [
                {
                    "indexed": true,
                    "internalType": "address",
                    "name": "previousOwner",
                    "type": "address"
                },
                {
                    "indexed": true,
                    "internalType": "address",
                    "name": "newOwner",
                    "type": "address"
                }
            ],
            "name": "OwnershipTransferred",
            "type": "event"
        },
        {
            "anonymous": false,
            "inputs": [
                {
                    "indexed": true,
                    "internalType": "address",
                    "name": "from",
                    "type": "address"
                },
                {
                    "indexed": true,
                    "internalType": "address",
                    "name": "to",
                    "type": "address"
                },
                {
                    "indexed": true,
                    "internalType": "uint256",
                    "name": "tokenId",
                    "type": "uint256"
                }
            ],
            "name": "Transfer",
            "type": "event"
        },
        {
            "inputs": [
                {
                    "internalType": "address",
                    "name": "to",
                    "type": "address"
                },
                {
                    "internalType": "uint256",
                    "name": "tokenId",
                    "type": "uint256"
                }
            ],
            "name": "approve",
            "outputs": [],
            "stateMutability": "nonpayable",
            "type": "function"
        },
        {
            "inputs": [
                {
                    "internalType": "address",
                    "name": "owner",
                    "type": "address"
                }
            ],
            "name": "balanceOf",
            "outputs": [
                {
                    "internalType": "uint256",
                    "name": "",
                    "type": "uint256"
                }
            ],
            "stateMutability": "view",
            "type": "function"
        },
        {
            "inputs": [
                {
                    "internalType": "uint256",
                    "name": "tokenId",
                    "type": "uint256"
                }
            ],
            "name": "getApproved",
            "outputs": [
                {
                    "internalType": "address",
                    "name": "",
                    "type": "address"
                }
            ],
            "stateMutability": "view",
            "type": "function"
        },
        {
            "inputs": [
                {
                    "internalType": "address",
                    "name": "owner",
                    "type": "address"
                },
                {
                    "internalType": "address",
                    "name": "operator",
                    "type": "address"
                }
            ],
            "name": "isApprovedForAll",
            "outputs": [
                {
                    "internalType": "bool",
                    "name": "",
                    "type": "bool"
                }
            ],
            "stateMutability": "view",
            "type": "function"
        },
        {
            "inputs": [
                {
                    "internalType": "address",
                    "name": "to",
                    "type": "address"
                },
                {
                    "internalType": "string",
                    "name": "uri",
                    "type": "string"
                }
            ],
            "name": "mintNFT",
            "outputs": [],
            "stateMutability": "nonpayable",
            "type": "function"
        },
        {
            "inputs": [],
            "name": "name",
            "outputs": [
                {
                    "internalType": "string",
                    "name": "",
                    "type": "string"
                }
            ],
            "stateMutability": "view",
            "type": "function"
        },
        {
            "inputs": [],
            "name": "owner",
            "outputs": [
                {
                    "internalType": "address",
                    "name": "",
                    "type": "address"
                }
            ],
            "stateMutability": "view",
            "type": "function"
        },
        {
            "inputs": [
                {
                    "internalType": "uint256",
                    "name": "tokenId",
                    "type": "uint256"
                }
            ],
            "name": "ownerOf",
            "outputs": [
                {
                    "internalType": "address",
                    "name": "",
                    "type": "address"
                }
            ],
            "stateMutability": "view",
            "type": "function"
        },
        {
            "inputs": [],
            "name": "renounceOwnership",
            "outputs": [],
            "stateMutability": "nonpayable",
            "type": "function"
        },
        {
            "inputs": [
                {
                    "internalType": "address",
                    "name": "from",
                    "type": "address"
                },
                {
                    "internalType": "address",
                    "name": "to",
                    "type": "address"
                },
                {
                    "internalType": "uint256",
                    "name": "tokenId",
                    "type": "uint256"
                }
            ],
            "name": "safeTransferFrom",
            "outputs": [],
            "stateMutability": "nonpayable",
            "type": "function"
        },
        {
            "inputs": [
                {
                    "internalType": "address",
                    "name": "from",
                    "type": "address"
                },
                {
                    "internalType": "address",
                    "name": "to",
                    "type": "address"
                },
                {
                    "internalType": "uint256",
                    "name": "tokenId",
                    "type": "uint256"
                },
                {
                    "internalType": "bytes",
                    "name": "data",
                    "type": "bytes"
                }
            ],
            "name": "safeTransferFrom",
            "outputs": [],
            "stateMutability": "nonpayable",
            "type": "function"
        },
        {
            "inputs": [
                {
                    "internalType": "address",
                    "name": "operator",
                    "type": "address"
                },
                {
                    "internalType": "bool",
                    "name": "approved",
                    "type": "bool"
                }
            ],
            "name": "setApprovalForAll",
            "outputs": [],
            "stateMutability": "nonpayable",
            "type": "function"
        },
        {
            "inputs": [
                {
                    "internalType": "bytes4",
                    "name": "interfaceId",
                    "type": "bytes4"
                }
            ],
            "name": "supportsInterface",
            "outputs": [
                {
                    "internalType": "bool",
                    "name": "",
                    "type": "bool"
                }
            ],
            "stateMutability": "view",
            "type": "function"
        },
        {
            "inputs": [],
            "name": "symbol",
            "outputs": [
                {
                    "internalType": "string",
                    "name": "",
                    "type": "string"
                }
            ],
            "stateMutability": "view",
            "type": "function"
        },
        {
            "inputs": [
                {
                    "internalType": "uint256",
                    "name": "tokenId",
                    "type": "uint256"
                }
            ],
            "name": "tokenURI",
            "outputs": [
                {
                    "internalType": "string",
                    "name": "",
                    "type": "string"
                }
            ],
            "stateMutability": "view",
            "type": "function"
        },
        {
            "inputs": [
                {
                    "internalType": "address",
                    "name": "from",
                    "type": "address"
                },
                {
                    "internalType": "address",
                    "name": "to",
                    "type": "address"
                },
                {
                    "internalType": "uint256",
                    "name": "tokenId",
                    "type": "uint256"
                }
            ],
            "name": "transferFrom",
            "outputs": [],
            "stateMutability": "nonpayable",
            "type": "function"
        },
        {
            "inputs": [
                {
                    "internalType": "address",
                    "name": "newOwner",
                    "type": "address"
                }
            ],
            "name": "transferOwnership",
            "outputs": [],
            "stateMutability": "nonpayable",
            "type": "function"
        },
        {
            "inputs": [
                {
                    "internalType": "uint256",
                    "name": "tokenId",
                    "type": "uint256"
                },
                {
                    "internalType": "string",
                    "name": "newTokenURI",
                    "type": "string"
                }
            ],
            "name": "updateTokenURI",
            "outputs": [],
            "stateMutability": "nonpayable",
            "type": "function"
        }
    ],
    "bytecode": "0x608060405234801561001057600080fd5b506040516129a83803806129a883398181016040528101906100329190610272565b806040518060400160405280600681526020017f4548524e465400000000000000000000000000000000000000000000000000008152506040518060400160405280600381526020017f454852000000000000000000000000000000000000000000000000000000000081525081600090816100ae91906104ef565b5080600190816100be91906104ef565b505050600073ffffffffffffffffffffffffffffffffffffffff168173ffffffffffffffffffffffffffffffffffffffff16036101335760006040517f1e4fbdf700000000000000000000000000000000000000000000000000000000815260040161012a91906105d0565b60405180910390fd5b6101428161014960201b60201c565b50506105eb565b6000600660009054906101000a900473ffffffffffffffffffffffffffffffffffffffff16905081600660006101000a81548173ffffffffffffffffffffffffffffffffffffffff021916908373ffffffffffffffffffffffffffffffffffffffff1602179055508173ffffffffffffffffffffffffffffffffffffffff168173ffffffffffffffffffffffffffffffffffffffff167f8be0079c531659141344cd1fd0a4f28419497f9722a3daafe3b4186f6b6457e060405160405180910390a35050565b600080fd5b600073ffffffffffffffffffffffffffffffffffffffff82169050919050565b600061023f82610214565b9050919050565b61024f81610234565b811461025a57600080fd5b50565b60008151905061026c81610246565b92915050565b6000602082840312156102885761028761020f565b5b60006102968482850161025d565b91505092915050565b600081519050919050565b7f4e487b7100000000000000000000000000000000000000000000000000000000600052604160045260246000fd5b7f4e487b7100000000000000000000000000000000000000000000000000000000600052602260045260246000fd5b6000600282049050600182168061032057607f821691505b602082108103610333576103326102d9565b5b50919050565b60008190508160005260206000209050919050565b60006020601f8301049050919050565b600082821b905092915050565b60006008830261039b7fffffffffffffffffffffffffffffffffffffffffffffffffffffffffffffffff8261035e565b6103a5868361035e565b95508019841693508086168417925050509392505050565b6000819050919050565b6000819050919050565b60006103ec6103e76103e2846103bd565b6103c7565b6103bd565b9050919050565b6000819050919050565b610406836103d1565b61041a610412826103f3565b84845461036b565b825550505050565b600090565b61042f610422565b61043a8184846103fd565b505050565b5b8181101561045e57610453600082610427565b600181019050610440565b5050565b601f8211156104a35761047481610339565b61047d8461034e565b8101602085101561048c578190505b6104a06104988561034e565b83018261043f565b50505b505050565b600082821c905092915050565b60006104c6600019846008026104a8565b1980831691505092915050565b60006104df83836104b5565b9150826002028217905092915050565b6104f88261029f565b67ffffffffffffffff811115610511576105106102aa565b5b61051b8254610308565b610526828285610462565b600060209050601f8311600181146105595760008415610547578287015190505b61055185826104d3565b8655506105b9565b601f19841661056786610339565b60005b8281101561058f5784890151825560018201915060208501945060208101905061056a565b868310156105ac57848901516105a8601f8916826104b5565b8355505b6001600288020188555050505b505050505050565b6105ca81610234565b82525050565b60006020820190506105e560008301846105c1565b92915050565b6123ae806105fa6000396000f3fe608060405234801561001057600080fd5b50600436106101165760003560e01c8063715018a6116100a2578063b88d4fde11610071578063b88d4fde146102cb578063c87b56dd146102e7578063e985e9c514610317578063eacabe1414610347578063f2fde38b1461036357610116565b8063715018a6146102695780638da5cb5b1461027357806395d89b4114610291578063a22cb465146102af57610116565b806318e97fd1116100e957806318e97fd1146101b557806323b872dd146101d157806342842e0e146101ed5780636352211e1461020957806370a082311461023957610116565b806301ffc9a71461011b57806306fdde031461014b578063081812fc14610169578063095ea7b314610199575b600080fd5b610135600480360381019061013091906117cd565b61037f565b6040516101429190611815565b60405180910390f35b610153610461565b60405161016091906118c0565b60405180910390f35b610183600480360381019061017e9190611918565b6104f3565b6040516101909190611986565b60405180910390f35b6101b360048036038101906101ae91906119cd565b61050f565b005b6101cf60048036038101906101ca9190611b42565b610525565b005b6101eb60048036038101906101e69190611b9e565b6105c0565b005b61020760048036038101906102029190611b9e565b6106c2565b005b610223600480360381019061021e9190611918565b6106e2565b6040516102309190611986565b60405180910390f35b610253600480360381019061024e9190611bf1565b6106f4565b6040516102609190611c2d565b60405180910390f35b6102716107ae565b005b61027b6107c2565b6040516102889190611986565b60405180910390f35b6102996107ec565b6040516102a691906118c0565b60405180910390f35b6102c960048036038101906102c49190611c74565b61087e565b005b6102e560048036038101906102e09190611d55565b610894565b005b61030160048036038101906102fc9190611918565b6108b9565b60405161030e91906118c0565b60405180910390f35b610331600480360381019061032c9190611dd8565b61095e565b60405161033e9190611815565b60405180910390f35b610361600480360381019061035c9190611e18565b6109f2565b005b61037d60048036038101906103789190611bf1565b610a49565b005b60007f80ac58cd000000000000000000000000000000000000000000000000000000007bffffffffffffffffffffffffffffffffffffffffffffffffffffffff1916827bffffffffffffffffffffffffffffffffffffffffffffffffffffffff1916148061044a57507f5b5e139f000000000000000000000000000000000000000000000000000000007bffffffffffffffffffffffffffffffffffffffffffffffffffffffff1916827bffffffffffffffffffffffffffffffffffffffffffffffffffffffff1916145b8061045a575061045982610acf565b5b9050919050565b60606000805461047090611ea3565b80601f016020809104026020016040519081016040528092919081815260200182805461049c90611ea3565b80156104e95780601f106104be576101008083540402835291602001916104e9565b820191906000526020600020905b8154815290600101906020018083116104cc57829003601f168201915b5050505050905090565b60006104fe82610b39565b5061050882610bc1565b9050919050565b610521828261051c610bfe565b610c06565b5050565b3373ffffffffffffffffffffffffffffffffffffffff16610545836106e2565b73ffffffffffffffffffffffffffffffffffffffff161461059b576040517f08c379a000000000000000000000000000000000000000000000000000000000815260040161059290611f20565b60405180910390fd5b806008600084815260200190815260200160002090816105bb91906120ec565b505050565b600073ffffffffffffffffffffffffffffffffffffffff168273ffffffffffffffffffffffffffffffffffffffff16036106325760006040517f64a0ae920000000000000000000000000000000000000000000000000000000081526004016106299190611986565b60405180910390fd5b60006106468383610641610bfe565b610c18565b90508373ffffffffffffffffffffffffffffffffffffffff168173ffffffffffffffffffffffffffffffffffffffff16146106bc578382826040517f64283d7b0000000000000000000000000000000000000000000000000000000081526004016106b3939291906121be565b60405180910390fd5b50505050565b6106dd83838360405180602001604052806000815250610894565b505050565b60006106ed82610b39565b9050919050565b60008073ffffffffffffffffffffffffffffffffffffffff168273ffffffffffffffffffffffffffffffffffffffff16036107675760006040517f89c62b6400000000000000000000000000000000000000000000000000000000815260040161075e9190611986565b60405180910390fd5b600360008373ffffffffffffffffffffffffffffffffffffffff1673ffffffffffffffffffffffffffffffffffffffff168152602001908152602001600020549050919050565b6107b6610e32565b6107c06000610eb9565b565b6000600660009054906101000a900473ffffffffffffffffffffffffffffffffffffffff16905090565b6060600180546107fb90611ea3565b80601f016020809104026020016040519081016040528092919081815260200182805461082790611ea3565b80156108745780601f1061084957610100808354040283529160200191610874565b820191906000526020600020905b81548152906001019060200180831161085757829003601f168201915b5050505050905090565b610890610889610bfe565b8383610f7f565b5050565b61089f8484846105c0565b6108b36108aa610bfe565b858585856110ee565b50505050565b60606008600083815260200190815260200160002080546108d990611ea3565b80601f016020809104026020016040519081016040528092919081815260200182805461090590611ea3565b80156109525780601f1061092757610100808354040283529160200191610952565b820191906000526020600020905b81548152906001019060200180831161093557829003601f168201915b50505050509050919050565b6000600560008473ffffffffffffffffffffffffffffffffffffffff1673ffffffffffffffffffffffffffffffffffffffff16815260200190815260200160002060008373ffffffffffffffffffffffffffffffffffffffff1673ffffffffffffffffffffffffffffffffffffffff16815260200190815260200160002060009054906101000a900460ff16905092915050565b6109fa610e32565b60076000815480929190610a0d90612224565b919050555060006007549050610a23838261129f565b81600860008381526020019081526020016000209081610a4391906120ec565b50505050565b610a51610e32565b600073ffffffffffffffffffffffffffffffffffffffff168173ffffffffffffffffffffffffffffffffffffffff1603610ac35760006040517f1e4fbdf7000000000000000000000000000000000000000000000000000000008152600401610aba9190611986565b60405180910390fd5b610acc81610eb9565b50565b60007f01ffc9a7000000000000000000000000000000000000000000000000000000007bffffffffffffffffffffffffffffffffffffffffffffffffffffffff1916827bffffffffffffffffffffffffffffffffffffffffffffffffffffffff1916149050919050565b600080610b45836112bd565b9050600073ffffffffffffffffffffffffffffffffffffffff168173ffffffffffffffffffffffffffffffffffffffff1603610bb857826040517f7e273289000000000000000000000000000000000000000000000000000000008152600401610baf9190611c2d565b60405180910390fd5b80915050919050565b60006004600083815260200190815260200160002060009054906101000a900473ffffffffffffffffffffffffffffffffffffffff169050919050565b600033905090565b610c1383838360016112fa565b505050565b600080610c24846112bd565b9050600073ffffffffffffffffffffffffffffffffffffffff168373ffffffffffffffffffffffffffffffffffffffff1614610c6657610c658184866114bf565b5b600073ffffffffffffffffffffffffffffffffffffffff168173ffffffffffffffffffffffffffffffffffffffff1614610cf757610ca86000856000806112fa565b6001600360008373ffffffffffffffffffffffffffffffffffffffff1673ffffffffffffffffffffffffffffffffffffffff168152602001908152602001600020600082825403925050819055505b600073ffffffffffffffffffffffffffffffffffffffff168573ffffffffffffffffffffffffffffffffffffffff1614610d7a576001600360008773ffffffffffffffffffffffffffffffffffffffff1673ffffffffffffffffffffffffffffffffffffffff168152602001908152602001600020600082825401925050819055505b846002600086815260200190815260200160002060006101000a81548173ffffffffffffffffffffffffffffffffffffffff021916908373ffffffffffffffffffffffffffffffffffffffff160217905550838573ffffffffffffffffffffffffffffffffffffffff168273ffffffffffffffffffffffffffffffffffffffff167fddf252ad1be2c89b69c2b068fc378daa952ba7f163c4a11628f55a4df523b3ef60405160405180910390a4809150509392505050565b610e3a610bfe565b73ffffffffffffffffffffffffffffffffffffffff16610e586107c2565b73ffffffffffffffffffffffffffffffffffffffff1614610eb757610e7b610bfe565b6040517f118cdaa7000000000000000000000000000000000000000000000000000000008152600401610eae9190611986565b60405180910390fd5b565b6000600660009054906101000a900473ffffffffffffffffffffffffffffffffffffffff16905081600660006101000a81548173ffffffffffffffffffffffffffffffffffffffff021916908373ffffffffffffffffffffffffffffffffffffffff1602179055508173ffffffffffffffffffffffffffffffffffffffff168173ffffffffffffffffffffffffffffffffffffffff167f8be0079c531659141344cd1fd0a4f28419497f9722a3daafe3b4186f6b6457e060405160405180910390a35050565b600073ffffffffffffffffffffffffffffffffffffffff168273ffffffffffffffffffffffffffffffffffffffff1603610ff057816040517f5b08ba18000000000000000000000000000000000000000000000000000000008152600401610fe79190611986565b60405180910390fd5b80600560008573ffffffffffffffffffffffffffffffffffffffff1673ffffffffffffffffffffffffffffffffffffffff16815260200190815260200160002060008473ffffffffffffffffffffffffffffffffffffffff1673ffffffffffffffffffffffffffffffffffffffff16815260200190815260200160002060006101000a81548160ff0219169083151502179055508173ffffffffffffffffffffffffffffffffffffffff168373ffffffffffffffffffffffffffffffffffffffff167f17307eab39ab6107e8899845ad3d59bd9653f200f220920489ca2b5937696c31836040516110e19190611815565b60405180910390a3505050565b60008373ffffffffffffffffffffffffffffffffffffffff163b1115611298578273ffffffffffffffffffffffffffffffffffffffff1663150b7a02868685856040518563ffffffff1660e01b815260040161114d94939291906122c1565b6020604051808303816000875af192505050801561118957506040513d601f19601f820116820180604052508101906111869190612322565b60015b61120d573d80600081146111b9576040519150601f19603f3d011682016040523d82523d6000602084013e6111be565b606091505b50600081510361120557836040517f64a0ae920000000000000000000000000000000000000000000000000000000081526004016111fc9190611986565b60405180910390fd5b805181602001fd5b63150b7a0260e01b7bffffffffffffffffffffffffffffffffffffffffffffffffffffffff1916817bffffffffffffffffffffffffffffffffffffffffffffffffffffffff19161461129657836040517f64a0ae9200000000000000000000000000000000000000000000000000000000815260040161128d9190611986565b60405180910390fd5b505b5050505050565b6112b9828260405180602001604052806000815250611583565b5050565b60006002600083815260200190815260200160002060009054906101000a900473ffffffffffffffffffffffffffffffffffffffff169050919050565b80806113335750600073ffffffffffffffffffffffffffffffffffffffff168273ffffffffffffffffffffffffffffffffffffffff1614155b1561146757600061134384610b39565b9050600073ffffffffffffffffffffffffffffffffffffffff168373ffffffffffffffffffffffffffffffffffffffff16141580156113ae57508273ffffffffffffffffffffffffffffffffffffffff168173ffffffffffffffffffffffffffffffffffffffff1614155b80156113c157506113bf818461095e565b155b1561140357826040517fa9fbf51f0000000000000000000000000000000000000000000000000000000081526004016113fa9190611986565b60405180910390fd5b811561146557838573ffffffffffffffffffffffffffffffffffffffff168273ffffffffffffffffffffffffffffffffffffffff167f8c5be1e5ebec7d5bd14f71427d1e84f3dd0314c0f7b2291e5b200ac8c7c3b92560405160405180910390a45b505b836004600085815260200190815260200160002060006101000a81548173ffffffffffffffffffffffffffffffffffffffff021916908373ffffffffffffffffffffffffffffffffffffffff16021790555050505050565b6114ca8383836115a7565b61157e57600073ffffffffffffffffffffffffffffffffffffffff168373ffffffffffffffffffffffffffffffffffffffff160361153f57806040517f7e2732890000000000000000000000000000000000000000000000000000000081526004016115369190611c2d565b60405180910390fd5b81816040517f177e802f00000000000000000000000000000000000000000000000000000000815260040161157592919061234f565b60405180910390fd5b505050565b61158d8383611668565b6115a2611598610bfe565b60008585856110ee565b505050565b60008073ffffffffffffffffffffffffffffffffffffffff168373ffffffffffffffffffffffffffffffffffffffff161415801561165f57508273ffffffffffffffffffffffffffffffffffffffff168473ffffffffffffffffffffffffffffffffffffffff161480611620575061161f848461095e565b5b8061165e57508273ffffffffffffffffffffffffffffffffffffffff1661164683610bc1565b73ffffffffffffffffffffffffffffffffffffffff16145b5b90509392505050565b600073ffffffffffffffffffffffffffffffffffffffff168273ffffffffffffffffffffffffffffffffffffffff16036116da5760006040517f64a0ae920000000000000000000000000000000000000000000000000000000081526004016116d19190611986565b60405180910390fd5b60006116e883836000610c18565b9050600073ffffffffffffffffffffffffffffffffffffffff168173ffffffffffffffffffffffffffffffffffffffff161461175c5760006040517f73c6ac6e0000000000000000000000000000000000000000000000000000000081526004016117539190611986565b60405180910390fd5b505050565b6000604051905090565b600080fd5b600080fd5b60007fffffffff0000000000000000000000000000000000000000000000000000000082169050919050565b6117aa81611775565b81146117b557600080fd5b50565b6000813590506117c7816117a1565b92915050565b6000602082840312156117e3576117e261176b565b5b60006117f1848285016117b8565b91505092915050565b60008115159050919050565b61180f816117fa565b82525050565b600060208201905061182a6000830184611806565b92915050565b600081519050919050565b600082825260208201905092915050565b60005b8381101561186a57808201518184015260208101905061184f565b60008484015250505050565b6000601f19601f8301169050919050565b600061189282611830565b61189c818561183b565b93506118ac81856020860161184c565b6118b581611876565b840191505092915050565b600060208201905081810360008301526118da8184611887565b905092915050565b6000819050919050565b6118f5816118e2565b811461190057600080fd5b50565b600081359050611912816118ec565b92915050565b60006020828403121561192e5761192d61176b565b5b600061193c84828501611903565b91505092915050565b600073ffffffffffffffffffffffffffffffffffffffff82169050919050565b600061197082611945565b9050919050565b61198081611965565b82525050565b600060208201905061199b6000830184611977565b92915050565b6119aa81611965565b81146119b557600080fd5b50565b6000813590506119c7816119a1565b92915050565b600080604083850312156119e4576119e361176b565b5b60006119f2858286016119b8565b9250506020611a0385828601611903565b9150509250929050565b600080fd5b600080fd5b7f4e487b7100000000000000000000000000000000000000000000000000000000600052604160045260246000fd5b611a4f82611876565b810181811067ffffffffffffffff82111715611a6e57611a6d611a17565b5b80604052505050565b6000611a81611761565b9050611a8d8282611a46565b919050565b600067ffffffffffffffff821115611aad57611aac611a17565b5b611ab682611876565b9050602081019050919050565b82818337600083830152505050565b6000611ae5611ae084611a92565b611a77565b905082815260208101848484011115611b0157611b00611a12565b5b611b0c848285611ac3565b509392505050565b600082601f830112611b2957611b28611a0d565b5b8135611b39848260208601611ad2565b91505092915050565b60008060408385031215611b5957611b5861176b565b5b6000611b6785828601611903565b925050602083013567ffffffffffffffff811115611b8857611b87611770565b5b611b9485828601611b14565b9150509250929050565b600080600060608486031215611bb757611bb661176b565b5b6000611bc5868287016119b8565b9350506020611bd6868287016119b8565b9250506040611be786828701611903565b9150509250925092565b600060208284031215611c0757611c0661176b565b5b6000611c15848285016119b8565b91505092915050565b611c27816118e2565b82525050565b6000602082019050611c426000830184611c1e565b92915050565b611c51816117fa565b8114611c5c57600080fd5b50565b600081359050611c6e81611c48565b92915050565b60008060408385031215611c8b57611c8a61176b565b5b6000611c99858286016119b8565b9250506020611caa85828601611c5f565b9150509250929050565b600067ffffffffffffffff821115611ccf57611cce611a17565b5b611cd882611876565b9050602081019050919050565b6000611cf8611cf384611cb4565b611a77565b905082815260208101848484011115611d1457611d13611a12565b5b611d1f848285611ac3565b509392505050565b600082601f830112611d3c57611d3b611a0d565b5b8135611d4c848260208601611ce5565b91505092915050565b60008060008060808587031215611d6f57611d6e61176b565b5b6000611d7d878288016119b8565b9450506020611d8e878288016119b8565b9350506040611d9f87828801611903565b925050606085013567ffffffffffffffff811115611dc057611dbf611770565b5b611dcc87828801611d27565b91505092959194509250565b60008060408385031215611def57611dee61176b565b5b6000611dfd858286016119b8565b9250506020611e0e858286016119b8565b9150509250929050565b60008060408385031215611e2f57611e2e61176b565b5b6000611e3d858286016119b8565b925050602083013567ffffffffffffffff811115611e5e57611e5d611770565b5b611e6a85828601611b14565b9150509250929050565b7f4e487b7100000000000000000000000000000000000000000000000000000000600052602260045260246000fd5b60006002820490506001821680611ebb57607f821691505b602082108103611ece57611ecd611e74565b5b50919050565b7f4e6f7420746865206f776e657200000000000000000000000000000000000000600082015250565b6000611f0a600d8361183b565b9150611f1582611ed4565b602082019050919050565b60006020820190508181036000830152611f3981611efd565b9050919050565b60008190508160005260206000209050919050565b60006020601f8301049050919050565b600082821b905092915050565b600060088302611fa27fffffffffffffffffffffffffffffffffffffffffffffffffffffffffffffffff82611f65565b611fac8683611f65565b95508019841693508086168417925050509392505050565b6000819050919050565b6000611fe9611fe4611fdf846118e2565b611fc4565b6118e2565b9050919050565b6000819050919050565b61200383611fce565b61201761200f82611ff0565b848454611f72565b825550505050565b600090565b61202c61201f565b612037818484611ffa565b505050565b5b8181101561205b57612050600082612024565b60018101905061203d565b5050565b601f8211156120a05761207181611f40565b61207a84611f55565b81016020851015612089578190505b61209d61209585611f55565b83018261203c565b50505b505050565b600082821c905092915050565b60006120c3600019846008026120a5565b1980831691505092915050565b60006120dc83836120b2565b9150826002028217905092915050565b6120f582611830565b67ffffffffffffffff81111561210e5761210d611a17565b5b6121188254611ea3565b61212382828561205f565b600060209050601f8311600181146121565760008415612144578287015190505b61214e85826120d0565b8655506121b6565b601f19841661216486611f40565b60005b8281101561218c57848901518255600182019150602085019450602081019050612167565b868310156121a957848901516121a5601f8916826120b2565b8355505b6001600288020188555050505b505050505050565b60006060820190506121d36000830186611977565b6121e06020830185611c1e565b6121ed6040830184611977565b949350505050565b7f4e487b7100000000000000000000000000000000000000000000000000000000600052601160045260246000fd5b600061222f826118e2565b91507fffffffffffffffffffffffffffffffffffffffffffffffffffffffffffffffff8203612261576122606121f5565b5b600182019050919050565b600081519050919050565b600082825260208201905092915050565b60006122938261226c565b61229d8185612277565b93506122ad81856020860161184c565b6122b681611876565b840191505092915050565b60006080820190506122d66000830187611977565b6122e36020830186611977565b6122f06040830185611c1e565b81810360608301526123028184612288565b905095945050505050565b60008151905061231c816117a1565b92915050565b6000602082840312156123385761233761176b565b5b60006123468482850161230d565b91505092915050565b60006040820190506123646000830185611977565b6123716020830184611c1e565b939250505056fea2646970667358221220b73e33efafca6c928db8c02f401a446f95a240052b859b05e580f37d933061c864736f6c634300081c0033",
    "linkReferences": {},
    "deployedLinkReferences": {}
}