{
  "_format": "hh-sol-artifact-1",
  "contractName": "PatientDoctorAccess",
  "sourceName": "contracts/PatientDoctorAccess.sol",
  "abi": [
    {
      "inputs": [
        {
          "internalType": "address",
          "name": "_userRegistryAddress",
          "type": "address"
        }
      ],
      "stateMutability": "nonpayable",
      "type": "constructor"
    },
    {
      "anonymous": false,
      "inputs": [
        {
          "indexed": true,
          "internalType": "address",
          "name": "patient",
          "type": "address"
        },
        {
          "indexed": true,
          "internalType": "address",
          "name": "doctor",
          "type": "address"
        },
        {
          "indexed": false,
          "internalType": "uint256",
          "name": "timestamp",
          "type": "uint256"
        }
      ],
      "name": "AccessGranted",
      "type": "event"
    },
    {
      "anonymous": false,
      "inputs": [
        {
          "indexed": true,
          "internalType": "address",
          "name": "patient",
          "type": "address"
        },
        {
          "indexed": true,
          "internalType": "address",
          "name": "doctor",
          "type": "address"
        },
        {
          "indexed": false,
          "internalType": "uint256",
          "name": "timestamp",
          "type": "uint256"
        }
      ],
      "name": "AccessRevoked",
      "type": "event"
    },
    {
      "inputs": [
        {
          "internalType": "address",
          "name": "patientAddress",
          "type": "address"
        }
      ],
      "name": "getActiveAuthorizations",
      "outputs": [
        {
          "components": [
            {
              "internalType": "address",
              "name": "doctorAddress",
              "type": "address"
            },
            {
              "internalType": "uint256",
              "name": "grantTimestamp",
              "type": "uint256"
            },
            {
              "internalType": "bool",
              "name": "isActive",
              "type": "bool"
            }
          ],
          "internalType": "struct PatientDoctorAccess.DoctorAccess[]",
          "name": "",
          "type": "tuple[]"
        }
      ],
      "stateMutability": "view",
      "type": "function"
    },
    {
      "inputs": [
        {
          "internalType": "address",
          "name": "patientAddress",
          "type": "address"
        }
      ],
      "name": "getAllAuthorizations",
      "outputs": [
        {
          "components": [
            {
              "internalType": "address",
              "name": "doctorAddress",
              "type": "address"
            },
            {
              "internalType": "uint256",
              "name": "grantTimestamp",
              "type": "uint256"
            },
            {
              "internalType": "bool",
              "name": "isActive",
              "type": "bool"
            }
          ],
          "internalType": "struct PatientDoctorAccess.DoctorAccess[]",
          "name": "",
          "type": "tuple[]"
        }
      ],
      "stateMutability": "view",
      "type": "function"
    },
    {
      "inputs": [
        {
          "internalType": "address",
          "name": "patientAddress",
          "type": "address"
        },
        {
          "internalType": "address",
          "name": "doctorAddress",
          "type": "address"
        }
      ],
      "name": "getAuthorizationTime",
      "outputs": [
        {
          "internalType": "uint256",
          "name": "",
          "type": "uint256"
        }
      ],
      "stateMutability": "view",
      "type": "function"
    },
    {
      "inputs": [
        {
          "internalType": "address",
          "name": "doctorAddress",
          "type": "address"
        }
      ],
      "name": "grantDoctorAccess",
      "outputs": [],
      "stateMutability": "nonpayable",
      "type": "function"
    },
    {
      "inputs": [
        {
          "internalType": "address",
          "name": "patientAddress",
          "type": "address"
        },
        {
          "internalType": "address",
          "name": "doctorAddress",
          "type": "address"
        }
      ],
      "name": "hasAccess",
      "outputs": [
        {
          "internalType": "bool",
          "name": "",
          "type": "bool"
        }
      ],
      "stateMutability": "view",
      "type": "function"
    },
    {
      "inputs": [
        {
          "internalType": "address",
          "name": "doctorAddress",
          "type": "address"
        }
      ],
      "name": "revokeDoctorAccess",
      "outputs": [],
      "stateMutability": "nonpayable",
      "type": "function"
    },
    {
      "inputs": [
        {
          "internalType": "address",
          "name": "_doctorPatientAccessAddress",
          "type": "address"
        }
      ],
      "name": "setDoctorPatientAccess",
      "outputs": [],
      "stateMutability": "nonpayable",
      "type": "function"
    }
  ],
  "bytecode": "0x608060405234801561001057600080fd5b5060405161259e38038061259e833981810160405281019061003291906100db565b806000806101000a81548173ffffffffffffffffffffffffffffffffffffffff021916908373ffffffffffffffffffffffffffffffffffffffff16021790555050610108565b600080fd5b600073ffffffffffffffffffffffffffffffffffffffff82169050919050565b60006100a88261007d565b9050919050565b6100b88161009d565b81146100c357600080fd5b50565b6000815190506100d5816100af565b92915050565b6000602082840312156100f1576100f0610078565b5b60006100ff848285016100c6565b91505092915050565b612487806101176000396000f3fe608060405234801561001057600080fd5b506004361061007d5760003560e01c80632177228a1161005b5780632177228a146100fe5780633df95ab81461011a57806344d758d81461013657806370b9dd9c146101665761007d565b80630dfa1ec31461008257806312e0808f146100b25780631709ef07146100ce575b600080fd5b61009c60048036038101906100979190611b80565b610196565b6040516100a99190611ce1565b60405180910390f35b6100cc60048036038101906100c79190611b80565b61041f565b005b6100e860048036038101906100e39190611d03565b610abd565b6040516100f59190611d52565b60405180910390f35b61011860048036038101906101139190611b80565b610e18565b005b610134600480360381019061012f9190611b80565b610eed565b005b610150600480360381019061014b9190611d03565b61138b565b60405161015d9190611d7c565b60405180910390f35b610180600480360381019061017b9190611b80565b611740565b60405161018d9190611ce1565b60405180910390f35b6060818073ffffffffffffffffffffffffffffffffffffffff163373ffffffffffffffffffffffffffffffffffffffff1614610207576040517f08c379a00000000000000000000000000000000000000000000000000000000081526004016101fe90611e1a565b60405180910390fd5b6001600281111561021b5761021a611e3a565b5b60008054906101000a900473ffffffffffffffffffffffffffffffffffffffff1673ffffffffffffffffffffffffffffffffffffffff166327820851856040518263ffffffff1660e01b81526004016102749190611e78565b602060405180830381865afa158015610291573d6000803e3d6000fd5b505050506040513d601f19601f820116820180604052508101906102b59190611eb8565b60028111156102c7576102c6611e3a565b5b14610307576040517f08c379a00000000000000000000000000000000000000000000000000000000081526004016102fe90611f57565b60405180910390fd5b600260008473ffffffffffffffffffffffffffffffffffffffff1673ffffffffffffffffffffffffffffffffffffffff168152602001908152602001600020805480602002602001604051908101604052809291908181526020016000905b8282101561041357838290600052602060002090600302016040518060600160405290816000820160009054906101000a900473ffffffffffffffffffffffffffffffffffffffff1673ffffffffffffffffffffffffffffffffffffffff1673ffffffffffffffffffffffffffffffffffffffff168152602001600182015481526020016002820160009054906101000a900460ff16151515158152505081526020019060010190610366565b50505050915050919050565b6001600281111561043357610432611e3a565b5b60008054906101000a900473ffffffffffffffffffffffffffffffffffffffff1673ffffffffffffffffffffffffffffffffffffffff166327820851336040518263ffffffff1660e01b815260040161048c9190611e78565b602060405180830381865afa1580156104a9573d6000803e3d6000fd5b505050506040513d601f19601f820116820180604052508101906104cd9190611eb8565b60028111156104df576104de611e3a565b5b1461051f576040517f08c379a000000000000000000000000000000000000000000000000000000000815260040161051690611fe9565b60405180910390fd5b8060028081111561053357610532611e3a565b5b60008054906101000a900473ffffffffffffffffffffffffffffffffffffffff1673ffffffffffffffffffffffffffffffffffffffff166327820851836040518263ffffffff1660e01b815260040161058c9190611e78565b602060405180830381865afa1580156105a9573d6000803e3d6000fd5b505050506040513d601f19601f820116820180604052508101906105cd9190611eb8565b60028111156105df576105de611e3a565b5b1461061f576040517f08c379a00000000000000000000000000000000000000000000000000000000081526004016106169061207b565b60405180910390fd5b6000600360003373ffffffffffffffffffffffffffffffffffffffff1673ffffffffffffffffffffffffffffffffffffffff16815260200190815260200160002060008473ffffffffffffffffffffffffffffffffffffffff1673ffffffffffffffffffffffffffffffffffffffff16815260200190815260200160002054148061079f5750600260003373ffffffffffffffffffffffffffffffffffffffff1673ffffffffffffffffffffffffffffffffffffffff1681526020019081526020016000206001600360003373ffffffffffffffffffffffffffffffffffffffff1673ffffffffffffffffffffffffffffffffffffffff16815260200190815260200160002060008573ffffffffffffffffffffffffffffffffffffffff1673ffffffffffffffffffffffffffffffffffffffff1681526020019081526020016000205461076d91906120ca565b8154811061077e5761077d6120fe565b5b906000526020600020906003020160020160009054906101000a900460ff16155b6107de576040517f08c379a00000000000000000000000000000000000000000000000000000000081526004016107d590612179565b60405180910390fd5b6000600260003373ffffffffffffffffffffffffffffffffffffffff1673ffffffffffffffffffffffffffffffffffffffff168152602001908152602001600020805490509050600260003373ffffffffffffffffffffffffffffffffffffffff1673ffffffffffffffffffffffffffffffffffffffff16815260200190815260200160002060405180606001604052808573ffffffffffffffffffffffffffffffffffffffff16815260200142815260200160011515815250908060018154018082558091505060019003906000526020600020906003020160009091909190915060008201518160000160006101000a81548173ffffffffffffffffffffffffffffffffffffffff021916908373ffffffffffffffffffffffffffffffffffffffff1602179055506020820151816001015560408201518160020160006101000a81548160ff02191690831515021790555050506001816109419190612199565b600360003373ffffffffffffffffffffffffffffffffffffffff1673ffffffffffffffffffffffffffffffffffffffff16815260200190815260200160002060008573ffffffffffffffffffffffffffffffffffffffff1673ffffffffffffffffffffffffffffffffffffffff16815260200190815260200160002081905550600160009054906101000a900473ffffffffffffffffffffffffffffffffffffffff1673ffffffffffffffffffffffffffffffffffffffff166343a3ed63338560016040518463ffffffff1660e01b8152600401610a21939291906121cd565b600060405180830381600087803b158015610a3b57600080fd5b505af1158015610a4f573d6000803e3d6000fd5b505050508273ffffffffffffffffffffffffffffffffffffffff163373ffffffffffffffffffffffffffffffffffffffff167f65d0cc1e52d49938ca4ad9f423c79c1b84d914b9a683fbc5d3f93ac3cc5635f542604051610ab09190611d7c565b60405180910390a3505050565b600082828173ffffffffffffffffffffffffffffffffffffffff163373ffffffffffffffffffffffffffffffffffffffff161480610b2657508073ffffffffffffffffffffffffffffffffffffffff163373ffffffffffffffffffffffffffffffffffffffff16145b610b65576040517f08c379a0000000000000000000000000000000000000000000000000000000008152600401610b5c90612276565b60405180910390fd5b60016002811115610b7957610b78611e3a565b5b60008054906101000a900473ffffffffffffffffffffffffffffffffffffffff1673ffffffffffffffffffffffffffffffffffffffff166327820851876040518263ffffffff1660e01b8152600401610bd29190611e78565b602060405180830381865afa158015610bef573d6000803e3d6000fd5b505050506040513d601f19601f82011682018060405250810190610c139190611eb8565b6002811115610c2557610c24611e3a565b5b141580610cef5750600280811115610c4057610c3f611e3a565b5b60008054906101000a900473ffffffffffffffffffffffffffffffffffffffff1673ffffffffffffffffffffffffffffffffffffffff166327820851866040518263ffffffff1660e01b8152600401610c999190611e78565b602060405180830381865afa158015610cb6573d6000803e3d6000fd5b505050506040513d601f19601f82011682018060405250810190610cda9190611eb8565b6002811115610cec57610ceb611e3a565b5b14155b15610cfd5760009250610e10565b6000600360008773ffffffffffffffffffffffffffffffffffffffff1673ffffffffffffffffffffffffffffffffffffffff16815260200190815260200160002060008673ffffffffffffffffffffffffffffffffffffffff1673ffffffffffffffffffffffffffffffffffffffff16815260200190815260200160002054905060008103610d90576000935050610e10565b600260008773ffffffffffffffffffffffffffffffffffffffff1673ffffffffffffffffffffffffffffffffffffffff168152602001908152602001600020600182610ddc91906120ca565b81548110610ded57610dec6120fe565b5b906000526020600020906003020160020160009054906101000a900460ff169350505b505092915050565b600073ffffffffffffffffffffffffffffffffffffffff16600160009054906101000a900473ffffffffffffffffffffffffffffffffffffffff1673ffffffffffffffffffffffffffffffffffffffff1614610ea9576040517f08c379a0000000000000000000000000000000000000000000000000000000008152600401610ea0906122e2565b60405180910390fd5b80600160006101000a81548173ffffffffffffffffffffffffffffffffffffffff021916908373ffffffffffffffffffffffffffffffffffffffff16021790555050565b60016002811115610f0157610f00611e3a565b5b60008054906101000a900473ffffffffffffffffffffffffffffffffffffffff1673ffffffffffffffffffffffffffffffffffffffff166327820851336040518263ffffffff1660e01b8152600401610f5a9190611e78565b602060405180830381865afa158015610f77573d6000803e3d6000fd5b505050506040513d601f19601f82011682018060405250810190610f9b9190611eb8565b6002811115610fad57610fac611e3a565b5b14610fed576040517f08c379a0000000000000000000000000000000000000000000000000000000008152600401610fe490611fe9565b60405180910390fd5b8060028081111561100157611000611e3a565b5b60008054906101000a900473ffffffffffffffffffffffffffffffffffffffff1673ffffffffffffffffffffffffffffffffffffffff166327820851836040518263ffffffff1660e01b815260040161105a9190611e78565b602060405180830381865afa158015611077573d6000803e3d6000fd5b505050506040513d601f19601f8201168201806040525081019061109b9190611eb8565b60028111156110ad576110ac611e3a565b5b146110ed576040517f08c379a00000000000000000000000000000000000000000000000000000000081526004016110e49061207b565b60405180910390fd5b6000600360003373ffffffffffffffffffffffffffffffffffffffff1673ffffffffffffffffffffffffffffffffffffffff16815260200190815260200160002060008473ffffffffffffffffffffffffffffffffffffffff1673ffffffffffffffffffffffffffffffffffffffff168152602001908152602001600020549050600081116111b1576040517f08c379a00000000000000000000000000000000000000000000000000000000081526004016111a89061234e565b60405180910390fd5b6000600260003373ffffffffffffffffffffffffffffffffffffffff1673ffffffffffffffffffffffffffffffffffffffff1681526020019081526020016000206001836111ff91906120ca565b815481106112105761120f6120fe565b5b906000526020600020906003020190508060020160009054906101000a900460ff16611271576040517f08c379a0000000000000000000000000000000000000000000000000000000008152600401611268906123ba565b60405180910390fd5b60008160020160006101000a81548160ff021916908315150217905550600160009054906101000a900473ffffffffffffffffffffffffffffffffffffffff1673ffffffffffffffffffffffffffffffffffffffff166343a3ed63338660006040518463ffffffff1660e01b81526004016112ee939291906121cd565b600060405180830381600087803b15801561130857600080fd5b505af115801561131c573d6000803e3d6000fd5b505050508373ffffffffffffffffffffffffffffffffffffffff163373ffffffffffffffffffffffffffffffffffffffff167f6f6a404ffd2cea4713256a4fd9ce99c8cf8cf32d85c2bb8061d1603ff57d50c34260405161137d9190611d7c565b60405180910390a350505050565b600082828173ffffffffffffffffffffffffffffffffffffffff163373ffffffffffffffffffffffffffffffffffffffff1614806113f457508073ffffffffffffffffffffffffffffffffffffffff163373ffffffffffffffffffffffffffffffffffffffff16145b611433576040517f08c379a000000000000000000000000000000000000000000000000000000000815260040161142a90612276565b60405180910390fd5b6001600281111561144757611446611e3a565b5b60008054906101000a900473ffffffffffffffffffffffffffffffffffffffff1673ffffffffffffffffffffffffffffffffffffffff166327820851876040518263ffffffff1660e01b81526004016114a09190611e78565b602060405180830381865afa1580156114bd573d6000803e3d6000fd5b505050506040513d601f19601f820116820180604052508101906114e19190611eb8565b60028111156114f3576114f2611e3a565b5b14611533576040517f08c379a000000000000000000000000000000000000000000000000000000000815260040161152a90611f57565b60405180910390fd5b60028081111561154657611545611e3a565b5b60008054906101000a900473ffffffffffffffffffffffffffffffffffffffff1673ffffffffffffffffffffffffffffffffffffffff166327820851866040518263ffffffff1660e01b815260040161159f9190611e78565b602060405180830381865afa1580156115bc573d6000803e3d6000fd5b505050506040513d601f19601f820116820180604052508101906115e09190611eb8565b60028111156115f2576115f1611e3a565b5b14611632576040517f08c379a00000000000000000000000000000000000000000000000000000000081526004016116299061207b565b60405180910390fd5b6000600360008773ffffffffffffffffffffffffffffffffffffffff1673ffffffffffffffffffffffffffffffffffffffff16815260200190815260200160002060008673ffffffffffffffffffffffffffffffffffffffff1673ffffffffffffffffffffffffffffffffffffffff168152602001908152602001600020549050600081036116c5576000935050611738565b600260008773ffffffffffffffffffffffffffffffffffffffff1673ffffffffffffffffffffffffffffffffffffffff16815260200190815260200160002060018261171191906120ca565b81548110611722576117216120fe565b5b9060005260206000209060030201600101549350505b505092915050565b6060818073ffffffffffffffffffffffffffffffffffffffff163373ffffffffffffffffffffffffffffffffffffffff16146117b1576040517f08c379a00000000000000000000000000000000000000000000000000000000081526004016117a890611e1a565b60405180910390fd5b600160028111156117c5576117c4611e3a565b5b60008054906101000a900473ffffffffffffffffffffffffffffffffffffffff1673ffffffffffffffffffffffffffffffffffffffff166327820851856040518263ffffffff1660e01b815260040161181e9190611e78565b602060405180830381865afa15801561183b573d6000803e3d6000fd5b505050506040513d601f19601f8201168201806040525081019061185f9190611eb8565b600281111561187157611870611e3a565b5b146118b1576040517f08c379a00000000000000000000000000000000000000000000000000000000081526004016118a890611f57565b60405180910390fd5b6000600260008573ffffffffffffffffffffffffffffffffffffffff1673ffffffffffffffffffffffffffffffffffffffff16815260200190815260200160002090506000805b828054905081101561195757828181548110611917576119166120fe565b5b906000526020600020906003020160020160009054906101000a900460ff161561194a578180611946906123da565b9250505b80806001019150506118f8565b5060008167ffffffffffffffff81111561197457611973612422565b5b6040519080825280602002602001820160405280156119ad57816020015b61199a611ae4565b8152602001906001900390816119925790505b5090506000805b8480549050811015611ad6578481815481106119d3576119d26120fe565b5b906000526020600020906003020160020160009054906101000a900460ff1615611ac957848181548110611a0a57611a096120fe565b5b90600052602060002090600302016040518060600160405290816000820160009054906101000a900473ffffffffffffffffffffffffffffffffffffffff1673ffffffffffffffffffffffffffffffffffffffff1673ffffffffffffffffffffffffffffffffffffffff168152602001600182015481526020016002820160009054906101000a900460ff161515151581525050838380611aaa906123da565b945081518110611abd57611abc6120fe565b5b60200260200101819052505b80806001019150506119b4565b508195505050505050919050565b6040518060600160405280600073ffffffffffffffffffffffffffffffffffffffff168152602001600081526020016000151581525090565b600080fd5b600073ffffffffffffffffffffffffffffffffffffffff82169050919050565b6000611b4d82611b22565b9050919050565b611b5d81611b42565b8114611b6857600080fd5b50565b600081359050611b7a81611b54565b92915050565b600060208284031215611b9657611b95611b1d565b5b6000611ba484828501611b6b565b91505092915050565b600081519050919050565b600082825260208201905092915050565b6000819050602082019050919050565b611be281611b42565b82525050565b6000819050919050565b611bfb81611be8565b82525050565b60008115159050919050565b611c1681611c01565b82525050565b606082016000820151611c326000850182611bd9565b506020820151611c456020850182611bf2565b506040820151611c586040850182611c0d565b50505050565b6000611c6a8383611c1c565b60608301905092915050565b6000602082019050919050565b6000611c8e82611bad565b611c988185611bb8565b9350611ca383611bc9565b8060005b83811015611cd4578151611cbb8882611c5e565b9750611cc683611c76565b925050600181019050611ca7565b5085935050505092915050565b60006020820190508181036000830152611cfb8184611c83565b905092915050565b60008060408385031215611d1a57611d19611b1d565b5b6000611d2885828601611b6b565b9250506020611d3985828601611b6b565b9150509250929050565b611d4c81611c01565b82525050565b6000602082019050611d676000830184611d43565b92915050565b611d7681611be8565b82525050565b6000602082019050611d916000830184611d6d565b92915050565b600082825260208201905092915050565b7f4f6e6c79207468652070617469656e742063616e20766965772074686973206960008201527f6e666f726d6174696f6e00000000000000000000000000000000000000000000602082015250565b6000611e04602a83611d97565b9150611e0f82611da8565b604082019050919050565b60006020820190508181036000830152611e3381611df7565b9050919050565b7f4e487b7100000000000000000000000000000000000000000000000000000000600052602160045260246000fd5b611e7281611b42565b82525050565b6000602082019050611e8d6000830184611e69565b92915050565b60038110611ea057600080fd5b50565b600081519050611eb281611e93565b92915050565b600060208284031215611ece57611ecd611b1d565b5b6000611edc84828501611ea3565b91505092915050565b7f41646472657373206973206e6f7420612072656769737465726564207061746960008201527f656e740000000000000000000000000000000000000000000000000000000000602082015250565b6000611f41602383611d97565b9150611f4c82611ee5565b604082019050919050565b60006020820190508181036000830152611f7081611f34565b9050919050565b7f4f6e6c792070617469656e74732063616e2063616c6c20746869732066756e6360008201527f74696f6e00000000000000000000000000000000000000000000000000000000602082015250565b6000611fd3602483611d97565b9150611fde82611f77565b604082019050919050565b6000602082019050818103600083015261200281611fc6565b9050919050565b7f41646472657373206973206e6f742061207265676973746572656420646f637460008201527f6f72000000000000000000000000000000000000000000000000000000000000602082015250565b6000612065602283611d97565b915061207082612009565b604082019050919050565b6000602082019050818103600083015261209481612058565b9050919050565b7f4e487b7100000000000000000000000000000000000000000000000000000000600052601160045260246000fd5b60006120d582611be8565b91506120e083611be8565b92508282039050818111156120f8576120f761209b565b5b92915050565b7f4e487b7100000000000000000000000000000000000000000000000000000000600052603260045260246000fd5b7f41636365737320616c7265616479206772616e74656400000000000000000000600082015250565b6000612163601683611d97565b915061216e8261212d565b602082019050919050565b6000602082019050818103600083015261219281612156565b9050919050565b60006121a482611be8565b91506121af83611be8565b92508282019050808211156121c7576121c661209b565b5b92915050565b60006060820190506121e26000830186611e69565b6121ef6020830185611e69565b6121fc6040830184611d43565b949350505050565b7f4e6f7420617574686f72697a656420746f20766965772074686973206163636560008201527f7373000000000000000000000000000000000000000000000000000000000000602082015250565b6000612260602283611d97565b915061226b82612204565b604082019050919050565b6000602082019050818103600083015261228f81612253565b9050919050565b7f416c726561647920696e697469616c697a656400000000000000000000000000600082015250565b60006122cc601383611d97565b91506122d782612296565b602082019050919050565b600060208201905081810360008301526122fb816122bf565b9050919050565b7f4e6f20616363657373206772616e74656420746f207468697320646f63746f72600082015250565b6000612338602083611d97565b915061234382612302565b602082019050919050565b600060208201905081810360008301526123678161232b565b9050919050565b7f41636365737320616c7265616479207265766f6b656400000000000000000000600082015250565b60006123a4601683611d97565b91506123af8261236e565b602082019050919050565b600060208201905081810360008301526123d381612397565b9050919050565b60006123e582611be8565b91507fffffffffffffffffffffffffffffffffffffffffffffffffffffffffffffffff82036124175761241661209b565b5b600182019050919050565b7f4e487b7100000000000000000000000000000000000000000000000000000000600052604160045260246000fdfea2646970667358221220315f7237afb629a2a03f54a422b8f3d3dd70a080854c5d0e73e3ee7368dcd4c464736f6c634300081c0033",
  "linkReferences": {},
  "deployedLinkReferences": {}
}