{
  "_format": "hh-sol-artifact-1",
  "contractName": "PatientDoctorAccessController",
  "sourceName": "contracts/PatientDoctorAccessController.sol",
  "abi": [
    {
      "inputs": [
        {
          "internalType": "address",
          "name": "_userRegistry",
          "type": "address"
        }
      ],
      "stateMutability": "nonpayable",
      "type": "constructor"
    },
    {
      "anonymous": false,
      "inputs": [
        {
          "indexed": true,
          "internalType": "address",
          "name": "patient",
          "type": "address"
        },
        {
          "indexed": true,
          "internalType": "address",
          "name": "doctor",
          "type": "address"
        }
      ],
      "name": "AccessGranted",
      "type": "event"
    },
    {
      "anonymous": false,
      "inputs": [
        {
          "indexed": true,
          "internalType": "address",
          "name": "patient",
          "type": "address"
        },
        {
          "indexed": true,
          "internalType": "address",
          "name": "doctor",
          "type": "address"
        }
      ],
      "name": "AccessRevoked",
      "type": "event"
    },
    {
      "anonymous": false,
      "inputs": [
        {
          "indexed": true,
          "internalType": "address",
          "name": "patient",
          "type": "address"
        },
        {
          "indexed": true,
          "internalType": "address",
          "name": "doctor",
          "type": "address"
        },
        {
          "indexed": true,
          "internalType": "address",
          "name": "initiator",
          "type": "address"
        }
      ],
      "name": "EmergencyAccessRevoked",
      "type": "event"
    },
    {
      "anonymous": false,
      "inputs": [
        {
          "indexed": true,
          "internalType": "address",
          "name": "patient",
          "type": "address"
        },
        {
          "indexed": false,
          "internalType": "bytes",
          "name": "newEncryptedKey",
          "type": "bytes"
        }
      ],
      "name": "SymmetricKeyRotated",
      "type": "event"
    },
    {
      "anonymous": false,
      "inputs": [
        {
          "indexed": true,
          "internalType": "address",
          "name": "patient",
          "type": "address"
        },
        {
          "indexed": true,
          "internalType": "address",
          "name": "doctor",
          "type": "address"
        }
      ],
      "name": "SymmetricKeySet",
      "type": "event"
    },
    {
      "inputs": [],
      "name": "emergencyRevokeAllAccess",
      "outputs": [],
      "stateMutability": "nonpayable",
      "type": "function"
    },
    {
      "inputs": [
        {
          "internalType": "address",
          "name": "patient",
          "type": "address"
        }
      ],
      "name": "getActiveDoctors",
      "outputs": [
        {
          "internalType": "address[]",
          "name": "",
          "type": "address[]"
        }
      ],
      "stateMutability": "view",
      "type": "function"
    },
    {
      "inputs": [
        {
          "internalType": "address",
          "name": "doctor",
          "type": "address"
        }
      ],
      "name": "getActivePatients",
      "outputs": [
        {
          "internalType": "address[]",
          "name": "",
          "type": "address[]"
        }
      ],
      "stateMutability": "view",
      "type": "function"
    },
    {
      "inputs": [
        {
          "internalType": "address",
          "name": "patient",
          "type": "address"
        }
      ],
      "name": "getDoctorSymmetricKey",
      "outputs": [
        {
          "internalType": "bytes",
          "name": "",
          "type": "bytes"
        }
      ],
      "stateMutability": "view",
      "type": "function"
    },
    {
      "inputs": [
        {
          "internalType": "address",
          "name": "patient",
          "type": "address"
        }
      ],
      "name": "getPatientSymmetricKey",
      "outputs": [
        {
          "internalType": "bytes",
          "name": "",
          "type": "bytes"
        }
      ],
      "stateMutability": "view",
      "type": "function"
    },
    {
      "inputs": [
        {
          "internalType": "address",
          "name": "doctor",
          "type": "address"
        },
        {
          "internalType": "bytes",
          "name": "encryptedSymmetricKeyForDoctor",
          "type": "bytes"
        }
      ],
      "name": "grantAccess",
      "outputs": [],
      "stateMutability": "nonpayable",
      "type": "function"
    },
    {
      "inputs": [
        {
          "internalType": "address",
          "name": "patient",
          "type": "address"
        },
        {
          "internalType": "address",
          "name": "doctor",
          "type": "address"
        }
      ],
      "name": "hasAccess",
      "outputs": [
        {
          "internalType": "bool",
          "name": "",
          "type": "bool"
        }
      ],
      "stateMutability": "view",
      "type": "function"
    },
    {
      "inputs": [
        {
          "internalType": "address",
          "name": "counterparty",
          "type": "address"
        }
      ],
      "name": "revokeAccess",
      "outputs": [],
      "stateMutability": "nonpayable",
      "type": "function"
    },
    {
      "inputs": [
        {
          "internalType": "bytes",
          "name": "encryptedKey",
          "type": "bytes"
        }
      ],
      "name": "setPatientSymmetricKey",
      "outputs": [],
      "stateMutability": "nonpayable",
      "type": "function"
    },
    {
      "inputs": [],
      "name": "userRegistry",
      "outputs": [
        {
          "internalType": "contract UserAccessRegistry",
          "name": "",
          "type": "address"
        }
      ],
      "stateMutability": "view",
      "type": "function"
    }
  ],
  "bytecode": "0x60a06040523480156200001157600080fd5b5060405162003039380380620030398339818101604052810190620000379190620000dc565b8073ffffffffffffffffffffffffffffffffffffffff1660808173ffffffffffffffffffffffffffffffffffffffff1681525050506200010e565b600080fd5b600073ffffffffffffffffffffffffffffffffffffffff82169050919050565b6000620000a48262000077565b9050919050565b620000b68162000097565b8114620000c257600080fd5b50565b600081519050620000d681620000ab565b92915050565b600060208284031215620000f557620000f462000072565b5b60006200010584828501620000c5565b91505092915050565b608051612eec6200014d6000396000818161049401528181610d84015281816112040152818161123c0152818161143201526114f60152612eec6000f3fe608060405234801561001057600080fd5b506004361061009e5760003560e01c806380da636c1161006657806380da636c1461014757806385e685311461016357806389e8f6c51461017f578063947cdb6e146101af578063a4d36042146101df5761009e565b806308ea115a146100a35780631709ef07146100d3578063484a861b146101035780634ff652ee1461011f5780635c7460d614610129575b600080fd5b6100bd60048036038101906100b89190612150565b61020f565b6040516100ca919061220d565b60405180910390f35b6100ed60048036038101906100e8919061222f565b6103e8565b6040516100fa919061228a565b60405180910390f35b61011d6004803603810190610118919061230a565b61047e565b005b610127610d6e565b005b610131611202565b60405161013e91906123c9565b60405180910390f35b610161600480360381019061015c91906123e4565b611226565b005b61017d60048036038101906101789190612150565b61141a565b005b61019960048036038101906101949190612150565b6119b7565b6040516101a6919061220d565b60405180910390f35b6101c960048036038101906101c49190612150565b611af6565b6040516101d691906124ef565b60405180910390f35b6101f960048036038101906101f49190612150565b611b49565b60405161020691906124ef565b60405180910390f35b60606000808373ffffffffffffffffffffffffffffffffffffffff1673ffffffffffffffffffffffffffffffffffffffff16815260200190815260200160002060003373ffffffffffffffffffffffffffffffffffffffff1673ffffffffffffffffffffffffffffffffffffffff16815260200190815260200160002060000160089054906101000a900460ff166102dc576040517f08c379a00000000000000000000000000000000000000000000000000000000081526004016102d39061256e565b60405180910390fd5b600860008373ffffffffffffffffffffffffffffffffffffffff1673ffffffffffffffffffffffffffffffffffffffff16815260200190815260200160002060003373ffffffffffffffffffffffffffffffffffffffff1673ffffffffffffffffffffffffffffffffffffffff1681526020019081526020016000208054610363906125bd565b80601f016020809104026020016040519081016040528092919081815260200182805461038f906125bd565b80156103dc5780601f106103b1576101008083540402835291602001916103dc565b820191906000526020600020905b8154815290600101906020018083116103bf57829003601f168201915b50505050509050919050565b60008060008473ffffffffffffffffffffffffffffffffffffffff1673ffffffffffffffffffffffffffffffffffffffff16815260200190815260200160002060008373ffffffffffffffffffffffffffffffffffffffff1673ffffffffffffffffffffffffffffffffffffffff16815260200190815260200160002060000160089054906101000a900460ff16905092915050565b60016002811115610492576104916125ee565b5b7f000000000000000000000000000000000000000000000000000000000000000073ffffffffffffffffffffffffffffffffffffffff166344276733336040518263ffffffff1660e01b81526004016104eb919061262c565b602060405180830381865afa158015610508573d6000803e3d6000fd5b505050506040513d601f19601f8201168201806040525081019061052c919061266c565b600281111561053e5761053d6125ee565b5b1461057e576040517f08c379a0000000000000000000000000000000000000000000000000000000008152600401610575906126e5565b60405180910390fd5b600073ffffffffffffffffffffffffffffffffffffffff168373ffffffffffffffffffffffffffffffffffffffff16036105ed576040517f08c379a00000000000000000000000000000000000000000000000000000000081526004016105e490612751565b60405180910390fd5b3373ffffffffffffffffffffffffffffffffffffffff168373ffffffffffffffffffffffffffffffffffffffff160361065b576040517f08c379a0000000000000000000000000000000000000000000000000000000008152600401610652906127bd565b60405180910390fd5b60208282905010156106a2576040517f08c379a000000000000000000000000000000000000000000000000000000000815260040161069990612829565b60405180910390fd5b60008060003373ffffffffffffffffffffffffffffffffffffffff1673ffffffffffffffffffffffffffffffffffffffff16815260200190815260200160002060008573ffffffffffffffffffffffffffffffffffffffff1673ffffffffffffffffffffffffffffffffffffffff16815260200190815260200160002090508060000160089054906101000a900460ff1615610773576040517f08c379a000000000000000000000000000000000000000000000000000000000815260040161076a90612895565b60405180910390fd5b6000600260003373ffffffffffffffffffffffffffffffffffffffff1673ffffffffffffffffffffffffffffffffffffffff16815260200190815260200160002060008673ffffffffffffffffffffffffffffffffffffffff1673ffffffffffffffffffffffffffffffffffffffff1681526020019081526020016000205403610abe57600160003373ffffffffffffffffffffffffffffffffffffffff1673ffffffffffffffffffffffffffffffffffffffff168152602001908152602001600020849080600181540180825580915050600190039060005260206000200160009091909190916101000a81548173ffffffffffffffffffffffffffffffffffffffff021916908373ffffffffffffffffffffffffffffffffffffffff160217905550600160003373ffffffffffffffffffffffffffffffffffffffff1673ffffffffffffffffffffffffffffffffffffffff16815260200190815260200160002080549050600260003373ffffffffffffffffffffffffffffffffffffffff1673ffffffffffffffffffffffffffffffffffffffff16815260200190815260200160002060008673ffffffffffffffffffffffffffffffffffffffff1673ffffffffffffffffffffffffffffffffffffffff16815260200190815260200160002081905550600360008573ffffffffffffffffffffffffffffffffffffffff1673ffffffffffffffffffffffffffffffffffffffff168152602001908152602001600020339080600181540180825580915050600190039060005260206000200160009091909190916101000a81548173ffffffffffffffffffffffffffffffffffffffff021916908373ffffffffffffffffffffffffffffffffffffffff160217905550600360008573ffffffffffffffffffffffffffffffffffffffff1673ffffffffffffffffffffffffffffffffffffffff16815260200190815260200160002080549050600460008673ffffffffffffffffffffffffffffffffffffffff1673ffffffffffffffffffffffffffffffffffffffff16815260200190815260200160002060003373ffffffffffffffffffffffffffffffffffffffff1673ffffffffffffffffffffffffffffffffffffffff168152602001908152602001600020819055505b60018160000160086101000a81548160ff021916908315150217905550428160000160006101000a81548163ffffffff021916908363ffffffff1602179055508282600860003373ffffffffffffffffffffffffffffffffffffffff1673ffffffffffffffffffffffffffffffffffffffff16815260200190815260200160002060008773ffffffffffffffffffffffffffffffffffffffff1673ffffffffffffffffffffffffffffffffffffffff1681526020019081526020016000209182610b89929190612a9b565b506001600560003373ffffffffffffffffffffffffffffffffffffffff1673ffffffffffffffffffffffffffffffffffffffff16815260200190815260200160002060008673ffffffffffffffffffffffffffffffffffffffff1673ffffffffffffffffffffffffffffffffffffffff16815260200190815260200160002060006101000a81548160ff0219169083151502179055506001600660008673ffffffffffffffffffffffffffffffffffffffff1673ffffffffffffffffffffffffffffffffffffffff16815260200190815260200160002060003373ffffffffffffffffffffffffffffffffffffffff1673ffffffffffffffffffffffffffffffffffffffff16815260200190815260200160002060006101000a81548160ff0219169083151502179055508373ffffffffffffffffffffffffffffffffffffffff163373ffffffffffffffffffffffffffffffffffffffff167f9f520b3bfc56d06f7065d10b4683b3f57ac8895d5026cd176dee95ce1454cb8d60405160405180910390a38373ffffffffffffffffffffffffffffffffffffffff163373ffffffffffffffffffffffffffffffffffffffff167fea46f362b75ab7ff56fd454d5b59b2d3e52d5b6fa36dc507b836c15a9a0f1cba60405160405180910390a350505050565b60016002811115610d8257610d816125ee565b5b7f000000000000000000000000000000000000000000000000000000000000000073ffffffffffffffffffffffffffffffffffffffff166344276733336040518263ffffffff1660e01b8152600401610ddb919061262c565b602060405180830381865afa158015610df8573d6000803e3d6000fd5b505050506040513d601f19601f82011682018060405250810190610e1c919061266c565b6002811115610e2e57610e2d6125ee565b5b14610e6e576040517f08c379a0000000000000000000000000000000000000000000000000000000008152600401610e65906126e5565b60405180910390fd5b6000600160003373ffffffffffffffffffffffffffffffffffffffff1673ffffffffffffffffffffffffffffffffffffffff168152602001908152602001600020905060005b81805490508110156111fe576000803373ffffffffffffffffffffffffffffffffffffffff1673ffffffffffffffffffffffffffffffffffffffff1681526020019081526020016000206000838381548110610f1357610f12612b6b565b5b9060005260206000200160009054906101000a900473ffffffffffffffffffffffffffffffffffffffff1673ffffffffffffffffffffffffffffffffffffffff1673ffffffffffffffffffffffffffffffffffffffff16815260200190815260200160002060000160089054906101000a900460ff16156111eb5760008060003373ffffffffffffffffffffffffffffffffffffffff1673ffffffffffffffffffffffffffffffffffffffff1681526020019081526020016000206000848481548110610fe357610fe2612b6b565b5b9060005260206000200160009054906101000a900473ffffffffffffffffffffffffffffffffffffffff1673ffffffffffffffffffffffffffffffffffffffff1673ffffffffffffffffffffffffffffffffffffffff16815260200190815260200160002060000160086101000a81548160ff021916908315150217905550426000803373ffffffffffffffffffffffffffffffffffffffff1673ffffffffffffffffffffffffffffffffffffffff16815260200190815260200160002060008484815481106110b6576110b5612b6b565b5b9060005260206000200160009054906101000a900473ffffffffffffffffffffffffffffffffffffffff1673ffffffffffffffffffffffffffffffffffffffff1673ffffffffffffffffffffffffffffffffffffffff16815260200190815260200160002060000160046101000a81548163ffffffff021916908363ffffffff1602179055503373ffffffffffffffffffffffffffffffffffffffff1682828154811061116657611165612b6b565b5b9060005260206000200160009054906101000a900473ffffffffffffffffffffffffffffffffffffffff1673ffffffffffffffffffffffffffffffffffffffff163373ffffffffffffffffffffffffffffffffffffffff167f7ad4711b7b30807e7eb3faf4b558b02c7da716ddd2a85f8ede6643b891ff182f60405160405180910390a45b80806111f690612bc9565b915050610eb4565b5050565b7f000000000000000000000000000000000000000000000000000000000000000081565b6001600281111561123a576112396125ee565b5b7f000000000000000000000000000000000000000000000000000000000000000073ffffffffffffffffffffffffffffffffffffffff166344276733336040518263ffffffff1660e01b8152600401611293919061262c565b602060405180830381865afa1580156112b0573d6000803e3d6000fd5b505050506040513d601f19601f820116820180604052508101906112d4919061266c565b60028111156112e6576112e56125ee565b5b14611326576040517f08c379a000000000000000000000000000000000000000000000000000000000815260040161131d906126e5565b60405180910390fd5b6000828290501161136c576040517f08c379a000000000000000000000000000000000000000000000000000000000815260040161136390612c5d565b60405180910390fd5b8181600760003373ffffffffffffffffffffffffffffffffffffffff1673ffffffffffffffffffffffffffffffffffffffff16815260200190815260200160002091826113ba929190612a9b565b50600073ffffffffffffffffffffffffffffffffffffffff163373ffffffffffffffffffffffffffffffffffffffff167fea46f362b75ab7ff56fd454d5b59b2d3e52d5b6fa36dc507b836c15a9a0f1cba60405160405180910390a35050565b6000600160028111156114305761142f6125ee565b5b7f000000000000000000000000000000000000000000000000000000000000000073ffffffffffffffffffffffffffffffffffffffff166344276733336040518263ffffffff1660e01b8152600401611489919061262c565b602060405180830381865afa1580156114a6573d6000803e3d6000fd5b505050506040513d601f19601f820116820180604052508101906114ca919061266c565b60028111156114dc576114db6125ee565b5b14905060006002808111156114f4576114f36125ee565b5b7f000000000000000000000000000000000000000000000000000000000000000073ffffffffffffffffffffffffffffffffffffffff166344276733336040518263ffffffff1660e01b815260040161154d919061262c565b602060405180830381865afa15801561156a573d6000803e3d6000fd5b505050506040513d601f19601f8201168201806040525081019061158e919061266c565b60028111156115a05761159f6125ee565b5b14905081806115ac5750805b6115eb576040517f08c379a00000000000000000000000000000000000000000000000000000000081526004016115e290612cc9565b60405180910390fd5b6000826115f857836115fa565b335b9050600083611609573361160b565b845b905060008060008473ffffffffffffffffffffffffffffffffffffffff1673ffffffffffffffffffffffffffffffffffffffff16815260200190815260200160002060008373ffffffffffffffffffffffffffffffffffffffff1673ffffffffffffffffffffffffffffffffffffffff16815260200190815260200160002090508060000160089054906101000a900460ff166116dd576040517f08c379a00000000000000000000000000000000000000000000000000000000081526004016116d490612d35565b60405180910390fd5b60008160000160086101000a81548160ff021916908315150217905550428160000160046101000a81548163ffffffff021916908363ffffffff1602179055506000600560008573ffffffffffffffffffffffffffffffffffffffff1673ffffffffffffffffffffffffffffffffffffffff16815260200190815260200160002060008473ffffffffffffffffffffffffffffffffffffffff1673ffffffffffffffffffffffffffffffffffffffff16815260200190815260200160002060006101000a81548160ff0219169083151502179055506000600660008473ffffffffffffffffffffffffffffffffffffffff1673ffffffffffffffffffffffffffffffffffffffff16815260200190815260200160002060008573ffffffffffffffffffffffffffffffffffffffff1673ffffffffffffffffffffffffffffffffffffffff16815260200190815260200160002060006101000a81548160ff0219169083151502179055506118ce600160008573ffffffffffffffffffffffffffffffffffffffff1673ffffffffffffffffffffffffffffffffffffffff168152602001908152602001600020600260008673ffffffffffffffffffffffffffffffffffffffff1673ffffffffffffffffffffffffffffffffffffffff16815260200190815260200160002084611b9c565b611955600360008473ffffffffffffffffffffffffffffffffffffffff1673ffffffffffffffffffffffffffffffffffffffff168152602001908152602001600020600460008573ffffffffffffffffffffffffffffffffffffffff1673ffffffffffffffffffffffffffffffffffffffff16815260200190815260200160002085611b9c565b8173ffffffffffffffffffffffffffffffffffffffff168373ffffffffffffffffffffffffffffffffffffffff167f825c8be24eb0df19500f63e86c29e7d0d951e73056b889b891d85e40938d9b6e60405160405180910390a3505050505050565b60608173ffffffffffffffffffffffffffffffffffffffff163373ffffffffffffffffffffffffffffffffffffffff1614611a27576040517f08c379a0000000000000000000000000000000000000000000000000000000008152600401611a1e90612dc7565b60405180910390fd5b600760008373ffffffffffffffffffffffffffffffffffffffff1673ffffffffffffffffffffffffffffffffffffffff1681526020019081526020016000208054611a71906125bd565b80601f0160208091040260200160405190810160405280929190818152602001828054611a9d906125bd565b8015611aea5780601f10611abf57610100808354040283529160200191611aea565b820191906000526020600020905b815481529060010190602001808311611acd57829003601f168201915b50505050509050919050565b6060611b4282600160008573ffffffffffffffffffffffffffffffffffffffff1673ffffffffffffffffffffffffffffffffffffffff1681526020019081526020016000206001611dc8565b9050919050565b6060611b9582600360008573ffffffffffffffffffffffffffffffffffffffff1673ffffffffffffffffffffffffffffffffffffffff1681526020019081526020016000206000611dc8565b9050919050565b60008260008373ffffffffffffffffffffffffffffffffffffffff1673ffffffffffffffffffffffffffffffffffffffff16815260200190815260200160002054905060008103611c22576040517f08c379a0000000000000000000000000000000000000000000000000000000008152600401611c1990612e33565b60405180910390fd5b600060018580549050611c359190612e53565b905080600183611c459190612e53565b14611d39576000858281548110611c5f57611c5e612b6b565b5b9060005260206000200160009054906101000a900473ffffffffffffffffffffffffffffffffffffffff1690508086600185611c9b9190612e53565b81548110611cac57611cab612b6b565b5b9060005260206000200160006101000a81548173ffffffffffffffffffffffffffffffffffffffff021916908373ffffffffffffffffffffffffffffffffffffffff160217905550828560008373ffffffffffffffffffffffffffffffffffffffff1673ffffffffffffffffffffffffffffffffffffffff16815260200190815260200160002081905550505b84805480611d4a57611d49612e87565b5b6001900381819060005260206000200160006101000a81549073ffffffffffffffffffffffffffffffffffffffff021916905590558360008473ffffffffffffffffffffffffffffffffffffffff1673ffffffffffffffffffffffffffffffffffffffff168152602001908152602001600020600090555050505050565b6060600080848054905067ffffffffffffffff811115611deb57611dea6128c0565b5b604051908082528060200260200182016040528015611e195781602001602082028036833780820191505090505b50905060005b8580549050811015612006576000868281548110611e4057611e3f612b6b565b5b9060005260206000200160009054906101000a900473ffffffffffffffffffffffffffffffffffffffff169050600086611f0357600660008a73ffffffffffffffffffffffffffffffffffffffff1673ffffffffffffffffffffffffffffffffffffffff16815260200190815260200160002060008373ffffffffffffffffffffffffffffffffffffffff1673ffffffffffffffffffffffffffffffffffffffff16815260200190815260200160002060009054906101000a900460ff16611f8e565b600560008a73ffffffffffffffffffffffffffffffffffffffff1673ffffffffffffffffffffffffffffffffffffffff16815260200190815260200160002060008373ffffffffffffffffffffffffffffffffffffffff1673ffffffffffffffffffffffffffffffffffffffff16815260200190815260200160002060009054906101000a900460ff165b90508015611ff15781848680611fa390612bc9565b975081518110611fb657611fb5612b6b565b5b602002602001019073ffffffffffffffffffffffffffffffffffffffff16908173ffffffffffffffffffffffffffffffffffffffff16815250505b50508080611ffe90612bc9565b915050611e1f565b5060008267ffffffffffffffff811115612023576120226128c0565b5b6040519080825280602002602001820160405280156120515781602001602082028036833780820191505090505b50905060005b838110156120da5782818151811061207257612071612b6b565b5b602002602001015182828151811061208d5761208c612b6b565b5b602002602001019073ffffffffffffffffffffffffffffffffffffffff16908173ffffffffffffffffffffffffffffffffffffffff168152505080806120d290612bc9565b915050612057565b508093505050509392505050565b600080fd5b600080fd5b600073ffffffffffffffffffffffffffffffffffffffff82169050919050565b600061211d826120f2565b9050919050565b61212d81612112565b811461213857600080fd5b50565b60008135905061214a81612124565b92915050565b600060208284031215612166576121656120e8565b5b60006121748482850161213b565b91505092915050565b600081519050919050565b600082825260208201905092915050565b60005b838110156121b757808201518184015260208101905061219c565b60008484015250505050565b6000601f19601f8301169050919050565b60006121df8261217d565b6121e98185612188565b93506121f9818560208601612199565b612202816121c3565b840191505092915050565b6000602082019050818103600083015261222781846121d4565b905092915050565b60008060408385031215612246576122456120e8565b5b60006122548582860161213b565b92505060206122658582860161213b565b9150509250929050565b60008115159050919050565b6122848161226f565b82525050565b600060208201905061229f600083018461227b565b92915050565b600080fd5b600080fd5b600080fd5b60008083601f8401126122ca576122c96122a5565b5b8235905067ffffffffffffffff8111156122e7576122e66122aa565b5b602083019150836001820283011115612303576123026122af565b5b9250929050565b600080600060408486031215612323576123226120e8565b5b60006123318682870161213b565b935050602084013567ffffffffffffffff811115612352576123516120ed565b5b61235e868287016122b4565b92509250509250925092565b6000819050919050565b600061238f61238a612385846120f2565b61236a565b6120f2565b9050919050565b60006123a182612374565b9050919050565b60006123b382612396565b9050919050565b6123c3816123a8565b82525050565b60006020820190506123de60008301846123ba565b92915050565b600080602083850312156123fb576123fa6120e8565b5b600083013567ffffffffffffffff811115612419576124186120ed565b5b612425858286016122b4565b92509250509250929050565b600081519050919050565b600082825260208201905092915050565b6000819050602082019050919050565b61246681612112565b82525050565b6000612478838361245d565b60208301905092915050565b6000602082019050919050565b600061249c82612431565b6124a6818561243c565b93506124b18361244d565b8060005b838110156124e25781516124c9888261246c565b97506124d483612484565b9250506001810190506124b5565b5085935050505092915050565b600060208201905081810360008301526125098184612491565b905092915050565b600082825260208201905092915050565b7f4e6f206163746976652061636365737300000000000000000000000000000000600082015250565b6000612558601083612511565b915061256382612522565b602082019050919050565b600060208201905081810360008301526125878161254b565b9050919050565b7f4e487b7100000000000000000000000000000000000000000000000000000000600052602260045260246000fd5b600060028204905060018216806125d557607f821691505b6020821081036125e8576125e761258e565b5b50919050565b7f4e487b7100000000000000000000000000000000000000000000000000000000600052602160045260246000fd5b61262681612112565b82525050565b6000602082019050612641600083018461261d565b92915050565b6003811061265457600080fd5b50565b60008151905061266681612647565b92915050565b600060208284031215612682576126816120e8565b5b600061269084828501612657565b91505092915050565b7f4e6f7420612070617469656e7400000000000000000000000000000000000000600082015250565b60006126cf600d83612511565b91506126da82612699565b602082019050919050565b600060208201905081810360008301526126fe816126c2565b9050919050565b7f496e76616c696420646f63746f72206164647265737300000000000000000000600082015250565b600061273b601683612511565b915061274682612705565b602082019050919050565b6000602082019050818103600083015261276a8161272e565b9050919050565b7f43616e6e6f74206772616e742061636365737320746f2073656c660000000000600082015250565b60006127a7601b83612511565b91506127b282612771565b602082019050919050565b600060208201905081810360008301526127d68161279a565b9050919050565b7f4b657920746f6f2073686f727400000000000000000000000000000000000000600082015250565b6000612813600d83612511565b915061281e826127dd565b602082019050919050565b6000602082019050818103600083015261284281612806565b9050919050565b7f41636365737320616c7265616479206772616e74656400000000000000000000600082015250565b600061287f601683612511565b915061288a82612849565b602082019050919050565b600060208201905081810360008301526128ae81612872565b9050919050565b600082905092915050565b7f4e487b7100000000000000000000000000000000000000000000000000000000600052604160045260246000fd5b60008190508160005260206000209050919050565b60006020601f8301049050919050565b600082821b905092915050565b6000600883026129517fffffffffffffffffffffffffffffffffffffffffffffffffffffffffffffffff82612914565b61295b8683612914565b95508019841693508086168417925050509392505050565b6000819050919050565b600061299861299361298e84612973565b61236a565b612973565b9050919050565b6000819050919050565b6129b28361297d565b6129c66129be8261299f565b848454612921565b825550505050565b600090565b6129db6129ce565b6129e68184846129a9565b505050565b5b81811015612a0a576129ff6000826129d3565b6001810190506129ec565b5050565b601f821115612a4f57612a20816128ef565b612a2984612904565b81016020851015612a38578190505b612a4c612a4485612904565b8301826129eb565b50505b505050565b600082821c905092915050565b6000612a7260001984600802612a54565b1980831691505092915050565b6000612a8b8383612a61565b9150826002028217905092915050565b612aa583836128b5565b67ffffffffffffffff811115612abe57612abd6128c0565b5b612ac882546125bd565b612ad3828285612a0e565b6000601f831160018114612b025760008415612af0578287013590505b612afa8582612a7f565b865550612b62565b601f198416612b10866128ef565b60005b82811015612b3857848901358255600182019150602085019450602081019050612b13565b86831015612b555784890135612b51601f891682612a61565b8355505b6001600288020188555050505b50505050505050565b7f4e487b7100000000000000000000000000000000000000000000000000000000600052603260045260246000fd5b7f4e487b7100000000000000000000000000000000000000000000000000000000600052601160045260246000fd5b6000612bd482612973565b91507fffffffffffffffffffffffffffffffffffffffffffffffffffffffffffffffff8203612c0657612c05612b9a565b5b600182019050919050565b7f496e76616c6964206b6579000000000000000000000000000000000000000000600082015250565b6000612c47600b83612511565b9150612c5282612c11565b602082019050919050565b60006020820190508181036000830152612c7681612c3a565b9050919050565b7f556e617574686f72697a65640000000000000000000000000000000000000000600082015250565b6000612cb3600c83612511565b9150612cbe82612c7d565b602082019050919050565b60006020820190508181036000830152612ce281612ca6565b9050919050565b7f416363657373206e6f7420616374697665000000000000000000000000000000600082015250565b6000612d1f601183612511565b9150612d2a82612ce9565b602082019050919050565b60006020820190508181036000830152612d4e81612d12565b9050919050565b7f4f6e6c792070617469656e742063616e20616363657373207468656972206f7760008201527f6e206b6579000000000000000000000000000000000000000000000000000000602082015250565b6000612db1602583612511565b9150612dbc82612d55565b604082019050919050565b60006020820190508181036000830152612de081612da4565b9050919050565b7f456c656d656e74206e6f7420666f756e64000000000000000000000000000000600082015250565b6000612e1d601183612511565b9150612e2882612de7565b602082019050919050565b60006020820190508181036000830152612e4c81612e10565b9050919050565b6000612e5e82612973565b9150612e6983612973565b9250828203905081811115612e8157612e80612b9a565b5b92915050565b7f4e487b7100000000000000000000000000000000000000000000000000000000600052603160045260246000fdfea264697066735822122050dbc5cc9e7988e82a66c75ea54970c80f40448771a1af0487a0a15c96494d3664736f6c63430008140033",
  "linkReferences": {},
  "deployedLinkReferences": {}
}