{
  "_format": "hh-sol-artifact-1",
  "contractName": "PatientDoctorAccessController",
  "sourceName": "contracts/PatientDoctorAccessController .sol",
  "abi": [
    {
      "inputs": [
        {
          "internalType": "address",
          "name": "_userRegistry",
          "type": "address"
        }
      ],
      "stateMutability": "nonpayable",
      "type": "constructor"
    },
    {
      "anonymous": false,
      "inputs": [
        {
          "indexed": true,
          "internalType": "address",
          "name": "patient",
          "type": "address"
        },
        {
          "indexed": true,
          "internalType": "address",
          "name": "doctor",
          "type": "address"
        },
        {
          "indexed": false,
          "internalType": "uint256",
          "name": "timestamp",
          "type": "uint256"
        }
      ],
      "name": "AccessGranted",
      "type": "event"
    },
    {
      "anonymous": false,
      "inputs": [
        {
          "indexed": true,
          "internalType": "address",
          "name": "patient",
          "type": "address"
        },
        {
          "indexed": true,
          "internalType": "address",
          "name": "doctor",
          "type": "address"
        },
        {
          "indexed": false,
          "internalType": "uint256",
          "name": "timestamp",
          "type": "uint256"
        }
      ],
      "name": "AccessRevoked",
      "type": "event"
    },
    {
      "inputs": [
        {
          "internalType": "address",
          "name": "patient",
          "type": "address"
        }
      ],
      "name": "doctorRevokeAccess",
      "outputs": [],
      "stateMutability": "nonpayable",
      "type": "function"
    },
    {
      "inputs": [
        {
          "internalType": "address",
          "name": "patient",
          "type": "address"
        },
        {
          "internalType": "address",
          "name": "doctor",
          "type": "address"
        }
      ],
      "name": "getAccessDetails",
      "outputs": [
        {
          "internalType": "bool",
          "name": "",
          "type": "bool"
        },
        {
          "internalType": "uint256",
          "name": "",
          "type": "uint256"
        },
        {
          "internalType": "uint256",
          "name": "",
          "type": "uint256"
        }
      ],
      "stateMutability": "view",
      "type": "function"
    },
    {
      "inputs": [],
      "name": "getActiveDoctorsForPatient",
      "outputs": [
        {
          "internalType": "address[]",
          "name": "",
          "type": "address[]"
        }
      ],
      "stateMutability": "view",
      "type": "function"
    },
    {
      "inputs": [],
      "name": "getActivePatientsForDoctor",
      "outputs": [
        {
          "internalType": "address[]",
          "name": "",
          "type": "address[]"
        }
      ],
      "stateMutability": "view",
      "type": "function"
    },
    {
      "inputs": [
        {
          "internalType": "address",
          "name": "patient",
          "type": "address"
        }
      ],
      "name": "getAllDoctorsForPatient",
      "outputs": [
        {
          "internalType": "address[]",
          "name": "",
          "type": "address[]"
        }
      ],
      "stateMutability": "view",
      "type": "function"
    },
    {
      "inputs": [
        {
          "internalType": "address",
          "name": "doctor",
          "type": "address"
        }
      ],
      "name": "getAllPatientsForDoctor",
      "outputs": [
        {
          "internalType": "address[]",
          "name": "",
          "type": "address[]"
        }
      ],
      "stateMutability": "view",
      "type": "function"
    },
    {
      "inputs": [
        {
          "internalType": "address",
          "name": "doctor",
          "type": "address"
        }
      ],
      "name": "patientGrantAccess",
      "outputs": [],
      "stateMutability": "nonpayable",
      "type": "function"
    },
    {
      "inputs": [
        {
          "internalType": "address",
          "name": "doctor",
          "type": "address"
        }
      ],
      "name": "patientRevokeAccess",
      "outputs": [],
      "stateMutability": "nonpayable",
      "type": "function"
    }
  ],
  "bytecode": "0x60806040523480156200001157600080fd5b5060405162001c8938038062001c898339818101604052810190620000379190620000e8565b806000806101000a81548173ffffffffffffffffffffffffffffffffffffffff021916908373ffffffffffffffffffffffffffffffffffffffff160217905550506200011a565b600080fd5b600073ffffffffffffffffffffffffffffffffffffffff82169050919050565b6000620000b08262000083565b9050919050565b620000c281620000a3565b8114620000ce57600080fd5b50565b600081519050620000e281620000b7565b92915050565b6000602082840312156200010157620001006200007e565b5b60006200011184828501620000d1565b91505092915050565b611b5f806200012a6000396000f3fe608060405234801561001057600080fd5b50600436106100885760003560e01c80637965ffe81161005b5780637965ffe8146101295780638695c98e14610145578063e4fa076014610163578063f0f81c101461019357610088565b8063014235b21461008d57806305b8a2b3146100a957806317f532c2146100c757806364c35791146100f7575b600080fd5b6100a760048036038101906100a291906115a9565b6101af565b005b6100b1610813565b6040516100be9190611694565b60405180910390f35b6100e160048036038101906100dc91906115a9565b610b12565b6040516100ee9190611694565b60405180910390f35b610111600480360381019061010c91906116b6565b610bdf565b6040516101209392919061172a565b60405180910390f35b610143600480360381019061013e91906115a9565b610cba565b005b61014d610f1a565b60405161015a9190611694565b60405180910390f35b61017d600480360381019061017891906115a9565b611219565b60405161018a9190611694565b60405180910390f35b6101ad60048036038101906101a891906115a9565b6112e6565b005b600160038111156101c3576101c2611761565b5b60008054906101000a900473ffffffffffffffffffffffffffffffffffffffff1673ffffffffffffffffffffffffffffffffffffffff166327820851336040518263ffffffff1660e01b815260040161021c919061179f565b602060405180830381865afa158015610239573d6000803e3d6000fd5b505050506040513d601f19601f8201168201806040525081019061025d91906117df565b600381111561026f5761026e611761565b5b146102af576040517f08c379a00000000000000000000000000000000000000000000000000000000081526004016102a690611869565b60405180910390fd5b600260038111156102c3576102c2611761565b5b60008054906101000a900473ffffffffffffffffffffffffffffffffffffffff1673ffffffffffffffffffffffffffffffffffffffff166327820851836040518263ffffffff1660e01b815260040161031c919061179f565b602060405180830381865afa158015610339573d6000803e3d6000fd5b505050506040513d601f19601f8201168201806040525081019061035d91906117df565b600381111561036f5761036e611761565b5b146103af576040517f08c379a00000000000000000000000000000000000000000000000000000000081526004016103a6906118d5565b60405180910390fd5b6000600160003373ffffffffffffffffffffffffffffffffffffffff1673ffffffffffffffffffffffffffffffffffffffff16815260200190815260200160002060008373ffffffffffffffffffffffffffffffffffffffff1673ffffffffffffffffffffffffffffffffffffffff16815260200190815260200160002090508060020160009054906101000a900460ff1615610481576040517f08c379a000000000000000000000000000000000000000000000000000000000815260040161047890611941565b60405180910390fd5b600360003373ffffffffffffffffffffffffffffffffffffffff1673ffffffffffffffffffffffffffffffffffffffff16815260200190815260200160002060008373ffffffffffffffffffffffffffffffffffffffff1673ffffffffffffffffffffffffffffffffffffffff16815260200190815260200160002060009054906101000a900460ff1661077a57600260003373ffffffffffffffffffffffffffffffffffffffff1673ffffffffffffffffffffffffffffffffffffffff168152602001908152602001600020829080600181540180825580915050600190039060005260206000200160009091909190916101000a81548173ffffffffffffffffffffffffffffffffffffffff021916908373ffffffffffffffffffffffffffffffffffffffff1602179055506001600360003373ffffffffffffffffffffffffffffffffffffffff1673ffffffffffffffffffffffffffffffffffffffff16815260200190815260200160002060008473ffffffffffffffffffffffffffffffffffffffff1673ffffffffffffffffffffffffffffffffffffffff16815260200190815260200160002060006101000a81548160ff021916908315150217905550600460008373ffffffffffffffffffffffffffffffffffffffff1673ffffffffffffffffffffffffffffffffffffffff168152602001908152602001600020339080600181540180825580915050600190039060005260206000200160009091909190916101000a81548173ffffffffffffffffffffffffffffffffffffffff021916908373ffffffffffffffffffffffffffffffffffffffff1602179055506001600560008473ffffffffffffffffffffffffffffffffffffffff1673ffffffffffffffffffffffffffffffffffffffff16815260200190815260200160002060003373ffffffffffffffffffffffffffffffffffffffff1673ffffffffffffffffffffffffffffffffffffffff16815260200190815260200160002060006101000a81548160ff0219169083151502179055505b60018160020160006101000a81548160ff021916908315150217905550428160000181905550600081600101819055508173ffffffffffffffffffffffffffffffffffffffff163373ffffffffffffffffffffffffffffffffffffffff167f65d0cc1e52d49938ca4ad9f423c79c1b84d914b9a683fbc5d3f93ac3cc5635f5426040516108079190611961565b60405180910390a35050565b60606000600260003373ffffffffffffffffffffffffffffffffffffffff1673ffffffffffffffffffffffffffffffffffffffff16815260200190815260200160002090506000818054905067ffffffffffffffff8111156108785761087761197c565b5b6040519080825280602002602001820160405280156108a65781602001602082028036833780820191505090505b5090506000805b8380549050811015610a3357600160003373ffffffffffffffffffffffffffffffffffffffff1673ffffffffffffffffffffffffffffffffffffffff168152602001908152602001600020600085838154811061090d5761090c6119ab565b5b9060005260206000200160009054906101000a900473ffffffffffffffffffffffffffffffffffffffff1673ffffffffffffffffffffffffffffffffffffffff1673ffffffffffffffffffffffffffffffffffffffff16815260200190815260200160002060020160009054906101000a900460ff1615610a205783818154811061099b5761099a6119ab565b5b9060005260206000200160009054906101000a900473ffffffffffffffffffffffffffffffffffffffff168383806109d290611a09565b9450815181106109e5576109e46119ab565b5b602002602001019073ffffffffffffffffffffffffffffffffffffffff16908173ffffffffffffffffffffffffffffffffffffffff16815250505b8080610a2b90611a09565b9150506108ad565b5060008167ffffffffffffffff811115610a5057610a4f61197c565b5b604051908082528060200260200182016040528015610a7e5781602001602082028036833780820191505090505b50905060005b82811015610b0757838181518110610a9f57610a9e6119ab565b5b6020026020010151828281518110610aba57610ab96119ab565b5b602002602001019073ffffffffffffffffffffffffffffffffffffffff16908173ffffffffffffffffffffffffffffffffffffffff16815250508080610aff90611a09565b915050610a84565b508094505050505090565b6060600460008373ffffffffffffffffffffffffffffffffffffffff1673ffffffffffffffffffffffffffffffffffffffff168152602001908152602001600020805480602002602001604051908101604052809291908181526020018280548015610bd357602002820191906000526020600020905b8160009054906101000a900473ffffffffffffffffffffffffffffffffffffffff1673ffffffffffffffffffffffffffffffffffffffff1681526020019060010190808311610b89575b50505050509050919050565b600080600080600160008773ffffffffffffffffffffffffffffffffffffffff1673ffffffffffffffffffffffffffffffffffffffff16815260200190815260200160002060008673ffffffffffffffffffffffffffffffffffffffff1673ffffffffffffffffffffffffffffffffffffffff16815260200190815260200160002060405180606001604052908160008201548152602001600182015481526020016002820160009054906101000a900460ff1615151515815250509050806040015181600001518260200151935093509350509250925092565b60016003811115610cce57610ccd611761565b5b60008054906101000a900473ffffffffffffffffffffffffffffffffffffffff1673ffffffffffffffffffffffffffffffffffffffff166327820851336040518263ffffffff1660e01b8152600401610d27919061179f565b602060405180830381865afa158015610d44573d6000803e3d6000fd5b505050506040513d601f19601f82011682018060405250810190610d6891906117df565b6003811115610d7a57610d79611761565b5b14610dba576040517f08c379a0000000000000000000000000000000000000000000000000000000008152600401610db190611869565b60405180910390fd5b6000600160003373ffffffffffffffffffffffffffffffffffffffff1673ffffffffffffffffffffffffffffffffffffffff16815260200190815260200160002060008373ffffffffffffffffffffffffffffffffffffffff1673ffffffffffffffffffffffffffffffffffffffff16815260200190815260200160002090508060020160009054906101000a900460ff16610e8b576040517f08c379a0000000000000000000000000000000000000000000000000000000008152600401610e8290611a9d565b60405180910390fd5b60008160020160006101000a81548160ff0219169083151502179055504281600101819055508173ffffffffffffffffffffffffffffffffffffffff163373ffffffffffffffffffffffffffffffffffffffff167f6f6a404ffd2cea4713256a4fd9ce99c8cf8cf32d85c2bb8061d1603ff57d50c342604051610f0e9190611961565b60405180910390a35050565b60606000600460003373ffffffffffffffffffffffffffffffffffffffff1673ffffffffffffffffffffffffffffffffffffffff16815260200190815260200160002090506000818054905067ffffffffffffffff811115610f7f57610f7e61197c565b5b604051908082528060200260200182016040528015610fad5781602001602082028036833780820191505090505b5090506000805b838054905081101561113a5760016000858381548110610fd757610fd66119ab565b5b9060005260206000200160009054906101000a900473ffffffffffffffffffffffffffffffffffffffff1673ffffffffffffffffffffffffffffffffffffffff1673ffffffffffffffffffffffffffffffffffffffff16815260200190815260200160002060003373ffffffffffffffffffffffffffffffffffffffff1673ffffffffffffffffffffffffffffffffffffffff16815260200190815260200160002060020160009054906101000a900460ff1615611127578381815481106110a2576110a16119ab565b5b9060005260206000200160009054906101000a900473ffffffffffffffffffffffffffffffffffffffff168383806110d990611a09565b9450815181106110ec576110eb6119ab565b5b602002602001019073ffffffffffffffffffffffffffffffffffffffff16908173ffffffffffffffffffffffffffffffffffffffff16815250505b808061113290611a09565b915050610fb4565b5060008167ffffffffffffffff8111156111575761115661197c565b5b6040519080825280602002602001820160405280156111855781602001602082028036833780820191505090505b50905060005b8281101561120e578381815181106111a6576111a56119ab565b5b60200260200101518282815181106111c1576111c06119ab565b5b602002602001019073ffffffffffffffffffffffffffffffffffffffff16908173ffffffffffffffffffffffffffffffffffffffff1681525050808061120690611a09565b91505061118b565b508094505050505090565b6060600260008373ffffffffffffffffffffffffffffffffffffffff1673ffffffffffffffffffffffffffffffffffffffff1681526020019081526020016000208054806020026020016040519081016040528092919081815260200182805480156112da57602002820191906000526020600020905b8160009054906101000a900473ffffffffffffffffffffffffffffffffffffffff1673ffffffffffffffffffffffffffffffffffffffff1681526020019060010190808311611290575b50505050509050919050565b600260038111156112fa576112f9611761565b5b60008054906101000a900473ffffffffffffffffffffffffffffffffffffffff1673ffffffffffffffffffffffffffffffffffffffff166327820851336040518263ffffffff1660e01b8152600401611353919061179f565b602060405180830381865afa158015611370573d6000803e3d6000fd5b505050506040513d601f19601f8201168201806040525081019061139491906117df565b60038111156113a6576113a5611761565b5b146113e6576040517f08c379a00000000000000000000000000000000000000000000000000000000081526004016113dd90611b09565b60405180910390fd5b6000600160008373ffffffffffffffffffffffffffffffffffffffff1673ffffffffffffffffffffffffffffffffffffffff16815260200190815260200160002060003373ffffffffffffffffffffffffffffffffffffffff1673ffffffffffffffffffffffffffffffffffffffff16815260200190815260200160002090508060020160009054906101000a900460ff166114b7576040517f08c379a00000000000000000000000000000000000000000000000000000000081526004016114ae90611a9d565b60405180910390fd5b60008160020160006101000a81548160ff0219169083151502179055504281600101819055503373ffffffffffffffffffffffffffffffffffffffff168273ffffffffffffffffffffffffffffffffffffffff167f6f6a404ffd2cea4713256a4fd9ce99c8cf8cf32d85c2bb8061d1603ff57d50c34260405161153a9190611961565b60405180910390a35050565b600080fd5b600073ffffffffffffffffffffffffffffffffffffffff82169050919050565b60006115768261154b565b9050919050565b6115868161156b565b811461159157600080fd5b50565b6000813590506115a38161157d565b92915050565b6000602082840312156115bf576115be611546565b5b60006115cd84828501611594565b91505092915050565b600081519050919050565b600082825260208201905092915050565b6000819050602082019050919050565b61160b8161156b565b82525050565b600061161d8383611602565b60208301905092915050565b6000602082019050919050565b6000611641826115d6565b61164b81856115e1565b9350611656836115f2565b8060005b8381101561168757815161166e8882611611565b975061167983611629565b92505060018101905061165a565b5085935050505092915050565b600060208201905081810360008301526116ae8184611636565b905092915050565b600080604083850312156116cd576116cc611546565b5b60006116db85828601611594565b92505060206116ec85828601611594565b9150509250929050565b60008115159050919050565b61170b816116f6565b82525050565b6000819050919050565b61172481611711565b82525050565b600060608201905061173f6000830186611702565b61174c602083018561171b565b611759604083018461171b565b949350505050565b7f4e487b7100000000000000000000000000000000000000000000000000000000600052602160045260246000fd5b6117998161156b565b82525050565b60006020820190506117b46000830184611790565b92915050565b600481106117c757600080fd5b50565b6000815190506117d9816117ba565b92915050565b6000602082840312156117f5576117f4611546565b5b6000611803848285016117ca565b91505092915050565b600082825260208201905092915050565b7f4e6f7420612070617469656e7400000000000000000000000000000000000000600082015250565b6000611853600d8361180c565b915061185e8261181d565b602082019050919050565b6000602082019050818103600083015261188281611846565b9050919050565b7f496e76616c696420646f63746f72000000000000000000000000000000000000600082015250565b60006118bf600e8361180c565b91506118ca82611889565b602082019050919050565b600060208201905081810360008301526118ee816118b2565b9050919050565b7f416c7265616479206772616e7465640000000000000000000000000000000000600082015250565b600061192b600f8361180c565b9150611936826118f5565b602082019050919050565b6000602082019050818103600083015261195a8161191e565b9050919050565b6000602082019050611976600083018461171b565b92915050565b7f4e487b7100000000000000000000000000000000000000000000000000000000600052604160045260246000fd5b7f4e487b7100000000000000000000000000000000000000000000000000000000600052603260045260246000fd5b7f4e487b7100000000000000000000000000000000000000000000000000000000600052601160045260246000fd5b6000611a1482611711565b91507fffffffffffffffffffffffffffffffffffffffffffffffffffffffffffffffff8203611a4657611a456119da565b5b600182019050919050565b7f4e6f742061637469766500000000000000000000000000000000000000000000600082015250565b6000611a87600a8361180c565b9150611a9282611a51565b602082019050919050565b60006020820190508181036000830152611ab681611a7a565b9050919050565b7f4e6f74206120646f63746f720000000000000000000000000000000000000000600082015250565b6000611af3600c8361180c565b9150611afe82611abd565b602082019050919050565b60006020820190508181036000830152611b2281611ae6565b905091905056fea264697066735822122073b53a086f932c1f2607cff2c765c049dc9d6ea614f9fe41558b07d81b9d02d064736f6c63430008140033",
  "linkReferences": {},
  "deployedLinkReferences": {}
}