{
  "_format": "hh-sol-artifact-1",
  "contractName": "PatientDoctorAccess",
  "sourceName": "contracts/PatientDoctorAccess.sol",
  "abi": [
    {
      "inputs": [
        {
          "internalType": "address",
          "name": "_userRegistryAddress",
          "type": "address"
        }
      ],
      "stateMutability": "nonpayable",
      "type": "constructor"
    },
    {
      "anonymous": false,
      "inputs": [
        {
          "indexed": true,
          "internalType": "address",
          "name": "patient",
          "type": "address"
        },
        {
          "indexed": true,
          "internalType": "address",
          "name": "doctor",
          "type": "address"
        },
        {
          "indexed": false,
          "internalType": "uint256",
          "name": "timestamp",
          "type": "uint256"
        }
      ],
      "name": "AccessGranted",
      "type": "event"
    },
    {
      "anonymous": false,
      "inputs": [
        {
          "indexed": true,
          "internalType": "address",
          "name": "patient",
          "type": "address"
        },
        {
          "indexed": true,
          "internalType": "address",
          "name": "doctor",
          "type": "address"
        },
        {
          "indexed": false,
          "internalType": "uint256",
          "name": "timestamp",
          "type": "uint256"
        }
      ],
      "name": "AccessRevoked",
      "type": "event"
    },
    {
      "inputs": [
        {
          "internalType": "address",
          "name": "patientAddress",
          "type": "address"
        }
      ],
      "name": "getActiveAuthorizations",
      "outputs": [
        {
          "components": [
            {
              "internalType": "address",
              "name": "doctorAddress",
              "type": "address"
            },
            {
              "internalType": "uint256",
              "name": "grantTimestamp",
              "type": "uint256"
            },
            {
              "internalType": "bool",
              "name": "isActive",
              "type": "bool"
            }
          ],
          "internalType": "struct PatientDoctorAccess.DoctorAccess[]",
          "name": "",
          "type": "tuple[]"
        }
      ],
      "stateMutability": "view",
      "type": "function"
    },
    {
      "inputs": [
        {
          "internalType": "address",
          "name": "patientAddress",
          "type": "address"
        }
      ],
      "name": "getAllAuthorizations",
      "outputs": [
        {
          "components": [
            {
              "internalType": "address",
              "name": "doctorAddress",
              "type": "address"
            },
            {
              "internalType": "uint256",
              "name": "grantTimestamp",
              "type": "uint256"
            },
            {
              "internalType": "bool",
              "name": "isActive",
              "type": "bool"
            }
          ],
          "internalType": "struct PatientDoctorAccess.DoctorAccess[]",
          "name": "",
          "type": "tuple[]"
        }
      ],
      "stateMutability": "view",
      "type": "function"
    },
    {
      "inputs": [
        {
          "internalType": "address",
          "name": "patientAddress",
          "type": "address"
        },
        {
          "internalType": "address",
          "name": "doctorAddress",
          "type": "address"
        }
      ],
      "name": "getAuthorizationTime",
      "outputs": [
        {
          "internalType": "uint256",
          "name": "",
          "type": "uint256"
        }
      ],
      "stateMutability": "view",
      "type": "function"
    },
    {
      "inputs": [
        {
          "internalType": "address",
          "name": "doctorAddress",
          "type": "address"
        }
      ],
      "name": "grantDoctorAccess",
      "outputs": [],
      "stateMutability": "nonpayable",
      "type": "function"
    },
    {
      "inputs": [
        {
          "internalType": "address",
          "name": "patientAddress",
          "type": "address"
        },
        {
          "internalType": "address",
          "name": "doctorAddress",
          "type": "address"
        }
      ],
      "name": "hasAccess",
      "outputs": [
        {
          "internalType": "bool",
          "name": "",
          "type": "bool"
        }
      ],
      "stateMutability": "view",
      "type": "function"
    },
    {
      "inputs": [
        {
          "internalType": "address",
          "name": "doctorAddress",
          "type": "address"
        }
      ],
      "name": "revokeDoctorAccess",
      "outputs": [],
      "stateMutability": "nonpayable",
      "type": "function"
    },
    {
      "inputs": [
        {
          "internalType": "address",
          "name": "_doctorPatientAccessAddress",
          "type": "address"
        }
      ],
      "name": "setDoctorPatientAccess",
      "outputs": [],
      "stateMutability": "nonpayable",
      "type": "function"
    }
  ],
  "bytecode": "0x608060405234801561001057600080fd5b5060405161234c38038061234c833981810160405281019061003291906100db565b806000806101000a81548173ffffffffffffffffffffffffffffffffffffffff021916908373ffffffffffffffffffffffffffffffffffffffff16021790555050610108565b600080fd5b600073ffffffffffffffffffffffffffffffffffffffff82169050919050565b60006100a88261007d565b9050919050565b6100b88161009d565b81146100c357600080fd5b50565b6000815190506100d5816100af565b92915050565b6000602082840312156100f1576100f0610078565b5b60006100ff848285016100c6565b91505092915050565b612235806101176000396000f3fe608060405234801561001057600080fd5b506004361061007d5760003560e01c80632177228a1161005b5780632177228a146100fe5780633df95ab81461011a57806344d758d81461013657806370b9dd9c146101665761007d565b80630dfa1ec31461008257806312e0808f146100b25780631709ef07146100ce575b600080fd5b61009c60048036038101906100979190611a52565b610196565b6040516100a99190611bb3565b60405180910390f35b6100cc60048036038101906100c79190611a52565b6103af565b005b6100e860048036038101906100e39190611bd5565b610a4d565b6040516100f59190611c24565b60405180910390f35b61011860048036038101906101139190611a52565b610d00565b005b610134600480360381019061012f9190611a52565b610ed5565b005b610150600480360381019061014b9190611bd5565b611373565b60405161015d9190611c4e565b60405180910390f35b610180600480360381019061017b9190611a52565b611680565b60405161018d9190611bb3565b60405180910390f35b6060600160028111156101ac576101ab611c69565b5b60008054906101000a900473ffffffffffffffffffffffffffffffffffffffff1673ffffffffffffffffffffffffffffffffffffffff166327820851846040518263ffffffff1660e01b81526004016102059190611ca7565b602060405180830381865afa158015610222573d6000803e3d6000fd5b505050506040513d601f19601f820116820180604052508101906102469190611ce7565b600281111561025857610257611c69565b5b14610298576040517f08c379a000000000000000000000000000000000000000000000000000000000815260040161028f90611d97565b60405180910390fd5b600260008373ffffffffffffffffffffffffffffffffffffffff1673ffffffffffffffffffffffffffffffffffffffff168152602001908152602001600020805480602002602001604051908101604052809291908181526020016000905b828210156103a457838290600052602060002090600302016040518060600160405290816000820160009054906101000a900473ffffffffffffffffffffffffffffffffffffffff1673ffffffffffffffffffffffffffffffffffffffff1673ffffffffffffffffffffffffffffffffffffffff168152602001600182015481526020016002820160009054906101000a900460ff161515151581525050815260200190600101906102f7565b505050509050919050565b600160028111156103c3576103c2611c69565b5b60008054906101000a900473ffffffffffffffffffffffffffffffffffffffff1673ffffffffffffffffffffffffffffffffffffffff166327820851336040518263ffffffff1660e01b815260040161041c9190611ca7565b602060405180830381865afa158015610439573d6000803e3d6000fd5b505050506040513d601f19601f8201168201806040525081019061045d9190611ce7565b600281111561046f5761046e611c69565b5b146104af576040517f08c379a00000000000000000000000000000000000000000000000000000000081526004016104a690611e29565b60405180910390fd5b806002808111156104c3576104c2611c69565b5b60008054906101000a900473ffffffffffffffffffffffffffffffffffffffff1673ffffffffffffffffffffffffffffffffffffffff166327820851836040518263ffffffff1660e01b815260040161051c9190611ca7565b602060405180830381865afa158015610539573d6000803e3d6000fd5b505050506040513d601f19601f8201168201806040525081019061055d9190611ce7565b600281111561056f5761056e611c69565b5b146105af576040517f08c379a00000000000000000000000000000000000000000000000000000000081526004016105a690611ebb565b60405180910390fd5b6000600360003373ffffffffffffffffffffffffffffffffffffffff1673ffffffffffffffffffffffffffffffffffffffff16815260200190815260200160002060008473ffffffffffffffffffffffffffffffffffffffff1673ffffffffffffffffffffffffffffffffffffffff16815260200190815260200160002054148061072f5750600260003373ffffffffffffffffffffffffffffffffffffffff1673ffffffffffffffffffffffffffffffffffffffff1681526020019081526020016000206001600360003373ffffffffffffffffffffffffffffffffffffffff1673ffffffffffffffffffffffffffffffffffffffff16815260200190815260200160002060008573ffffffffffffffffffffffffffffffffffffffff1673ffffffffffffffffffffffffffffffffffffffff168152602001908152602001600020546106fd9190611f0a565b8154811061070e5761070d611f3e565b5b906000526020600020906003020160020160009054906101000a900460ff16155b61076e576040517f08c379a000000000000000000000000000000000000000000000000000000000815260040161076590611fb9565b60405180910390fd5b6000600260003373ffffffffffffffffffffffffffffffffffffffff1673ffffffffffffffffffffffffffffffffffffffff168152602001908152602001600020805490509050600260003373ffffffffffffffffffffffffffffffffffffffff1673ffffffffffffffffffffffffffffffffffffffff16815260200190815260200160002060405180606001604052808573ffffffffffffffffffffffffffffffffffffffff16815260200142815260200160011515815250908060018154018082558091505060019003906000526020600020906003020160009091909190915060008201518160000160006101000a81548173ffffffffffffffffffffffffffffffffffffffff021916908373ffffffffffffffffffffffffffffffffffffffff1602179055506020820151816001015560408201518160020160006101000a81548160ff02191690831515021790555050506001816108d19190611fd9565b600360003373ffffffffffffffffffffffffffffffffffffffff1673ffffffffffffffffffffffffffffffffffffffff16815260200190815260200160002060008573ffffffffffffffffffffffffffffffffffffffff1673ffffffffffffffffffffffffffffffffffffffff16815260200190815260200160002081905550600160009054906101000a900473ffffffffffffffffffffffffffffffffffffffff1673ffffffffffffffffffffffffffffffffffffffff166343a3ed63338560016040518463ffffffff1660e01b81526004016109b19392919061200d565b600060405180830381600087803b1580156109cb57600080fd5b505af11580156109df573d6000803e3d6000fd5b505050508273ffffffffffffffffffffffffffffffffffffffff163373ffffffffffffffffffffffffffffffffffffffff167f65d0cc1e52d49938ca4ad9f423c79c1b84d914b9a683fbc5d3f93ac3cc5635f542604051610a409190611c4e565b60405180910390a3505050565b600060016002811115610a6357610a62611c69565b5b60008054906101000a900473ffffffffffffffffffffffffffffffffffffffff1673ffffffffffffffffffffffffffffffffffffffff166327820851856040518263ffffffff1660e01b8152600401610abc9190611ca7565b602060405180830381865afa158015610ad9573d6000803e3d6000fd5b505050506040513d601f19601f82011682018060405250810190610afd9190611ce7565b6002811115610b0f57610b0e611c69565b5b141580610bd95750600280811115610b2a57610b29611c69565b5b60008054906101000a900473ffffffffffffffffffffffffffffffffffffffff1673ffffffffffffffffffffffffffffffffffffffff166327820851846040518263ffffffff1660e01b8152600401610b839190611ca7565b602060405180830381865afa158015610ba0573d6000803e3d6000fd5b505050506040513d601f19601f82011682018060405250810190610bc49190611ce7565b6002811115610bd657610bd5611c69565b5b14155b15610be75760009050610cfa565b6000600360008573ffffffffffffffffffffffffffffffffffffffff1673ffffffffffffffffffffffffffffffffffffffff16815260200190815260200160002060008473ffffffffffffffffffffffffffffffffffffffff1673ffffffffffffffffffffffffffffffffffffffff16815260200190815260200160002054905060008103610c7a576000915050610cfa565b600260008573ffffffffffffffffffffffffffffffffffffffff1673ffffffffffffffffffffffffffffffffffffffff168152602001908152602001600020600182610cc69190611f0a565b81548110610cd757610cd6611f3e565b5b906000526020600020906003020160020160009054906101000a900460ff169150505b92915050565b60016002811115610d1457610d13611c69565b5b60008054906101000a900473ffffffffffffffffffffffffffffffffffffffff1673ffffffffffffffffffffffffffffffffffffffff166327820851336040518263ffffffff1660e01b8152600401610d6d9190611ca7565b602060405180830381865afa158015610d8a573d6000803e3d6000fd5b505050506040513d601f19601f82011682018060405250810190610dae9190611ce7565b6002811115610dc057610dbf611c69565b5b14610e00576040517f08c379a0000000000000000000000000000000000000000000000000000000008152600401610df790611e29565b60405180910390fd5b600073ffffffffffffffffffffffffffffffffffffffff16600160009054906101000a900473ffffffffffffffffffffffffffffffffffffffff1673ffffffffffffffffffffffffffffffffffffffff1614610e91576040517f08c379a0000000000000000000000000000000000000000000000000000000008152600401610e8890612090565b60405180910390fd5b80600160006101000a81548173ffffffffffffffffffffffffffffffffffffffff021916908373ffffffffffffffffffffffffffffffffffffffff16021790555050565b60016002811115610ee957610ee8611c69565b5b60008054906101000a900473ffffffffffffffffffffffffffffffffffffffff1673ffffffffffffffffffffffffffffffffffffffff166327820851336040518263ffffffff1660e01b8152600401610f429190611ca7565b602060405180830381865afa158015610f5f573d6000803e3d6000fd5b505050506040513d601f19601f82011682018060405250810190610f839190611ce7565b6002811115610f9557610f94611c69565b5b14610fd5576040517f08c379a0000000000000000000000000000000000000000000000000000000008152600401610fcc90611e29565b60405180910390fd5b80600280811115610fe957610fe8611c69565b5b60008054906101000a900473ffffffffffffffffffffffffffffffffffffffff1673ffffffffffffffffffffffffffffffffffffffff166327820851836040518263ffffffff1660e01b81526004016110429190611ca7565b602060405180830381865afa15801561105f573d6000803e3d6000fd5b505050506040513d601f19601f820116820180604052508101906110839190611ce7565b600281111561109557611094611c69565b5b146110d5576040517f08c379a00000000000000000000000000000000000000000000000000000000081526004016110cc90611ebb565b60405180910390fd5b6000600360003373ffffffffffffffffffffffffffffffffffffffff1673ffffffffffffffffffffffffffffffffffffffff16815260200190815260200160002060008473ffffffffffffffffffffffffffffffffffffffff1673ffffffffffffffffffffffffffffffffffffffff16815260200190815260200160002054905060008111611199576040517f08c379a0000000000000000000000000000000000000000000000000000000008152600401611190906120fc565b60405180910390fd5b6000600260003373ffffffffffffffffffffffffffffffffffffffff1673ffffffffffffffffffffffffffffffffffffffff1681526020019081526020016000206001836111e79190611f0a565b815481106111f8576111f7611f3e565b5b906000526020600020906003020190508060020160009054906101000a900460ff16611259576040517f08c379a000000000000000000000000000000000000000000000000000000000815260040161125090612168565b60405180910390fd5b60008160020160006101000a81548160ff021916908315150217905550600160009054906101000a900473ffffffffffffffffffffffffffffffffffffffff1673ffffffffffffffffffffffffffffffffffffffff166343a3ed63338660006040518463ffffffff1660e01b81526004016112d69392919061200d565b600060405180830381600087803b1580156112f057600080fd5b505af1158015611304573d6000803e3d6000fd5b505050508373ffffffffffffffffffffffffffffffffffffffff163373ffffffffffffffffffffffffffffffffffffffff167f6f6a404ffd2cea4713256a4fd9ce99c8cf8cf32d85c2bb8061d1603ff57d50c3426040516113659190611c4e565b60405180910390a350505050565b60006001600281111561138957611388611c69565b5b60008054906101000a900473ffffffffffffffffffffffffffffffffffffffff1673ffffffffffffffffffffffffffffffffffffffff166327820851856040518263ffffffff1660e01b81526004016113e29190611ca7565b602060405180830381865afa1580156113ff573d6000803e3d6000fd5b505050506040513d601f19601f820116820180604052508101906114239190611ce7565b600281111561143557611434611c69565b5b14611475576040517f08c379a000000000000000000000000000000000000000000000000000000000815260040161146c90611d97565b60405180910390fd5b60028081111561148857611487611c69565b5b60008054906101000a900473ffffffffffffffffffffffffffffffffffffffff1673ffffffffffffffffffffffffffffffffffffffff166327820851846040518263ffffffff1660e01b81526004016114e19190611ca7565b602060405180830381865afa1580156114fe573d6000803e3d6000fd5b505050506040513d601f19601f820116820180604052508101906115229190611ce7565b600281111561153457611533611c69565b5b14611574576040517f08c379a000000000000000000000000000000000000000000000000000000000815260040161156b90611ebb565b60405180910390fd5b6000600360008573ffffffffffffffffffffffffffffffffffffffff1673ffffffffffffffffffffffffffffffffffffffff16815260200190815260200160002060008473ffffffffffffffffffffffffffffffffffffffff1673ffffffffffffffffffffffffffffffffffffffff1681526020019081526020016000205490506000810361160757600091505061167a565b600260008573ffffffffffffffffffffffffffffffffffffffff1673ffffffffffffffffffffffffffffffffffffffff1681526020019081526020016000206001826116539190611f0a565b8154811061166457611663611f3e565b5b9060005260206000209060030201600101549150505b92915050565b60606001600281111561169657611695611c69565b5b60008054906101000a900473ffffffffffffffffffffffffffffffffffffffff1673ffffffffffffffffffffffffffffffffffffffff166327820851846040518263ffffffff1660e01b81526004016116ef9190611ca7565b602060405180830381865afa15801561170c573d6000803e3d6000fd5b505050506040513d601f19601f820116820180604052508101906117309190611ce7565b600281111561174257611741611c69565b5b14611782576040517f08c379a000000000000000000000000000000000000000000000000000000000815260040161177990611d97565b60405180910390fd5b6000600260008473ffffffffffffffffffffffffffffffffffffffff1673ffffffffffffffffffffffffffffffffffffffff16815260200190815260200160002090506000805b8280549050811015611828578281815481106117e8576117e7611f3e565b5b906000526020600020906003020160020160009054906101000a900460ff161561181b57818061181790612188565b9250505b80806001019150506117c9565b5060008167ffffffffffffffff811115611845576118446121d0565b5b60405190808252806020026020018201604052801561187e57816020015b61186b6119b6565b8152602001906001900390816118635790505b5090506000805b84805490508110156119a9578481815481106118a4576118a3611f3e565b5b906000526020600020906003020160020160009054906101000a900460ff161561199c578481815481106118db576118da611f3e565b5b90600052602060002090600302016040518060600160405290816000820160009054906101000a900473ffffffffffffffffffffffffffffffffffffffff1673ffffffffffffffffffffffffffffffffffffffff1673ffffffffffffffffffffffffffffffffffffffff168152602001600182015481526020016002820160009054906101000a900460ff16151515158152505083838151811061198257611981611f3e565b5b6020026020010181905250818061199890612188565b9250505b8080600101915050611885565b5081945050505050919050565b6040518060600160405280600073ffffffffffffffffffffffffffffffffffffffff168152602001600081526020016000151581525090565b600080fd5b600073ffffffffffffffffffffffffffffffffffffffff82169050919050565b6000611a1f826119f4565b9050919050565b611a2f81611a14565b8114611a3a57600080fd5b50565b600081359050611a4c81611a26565b92915050565b600060208284031215611a6857611a676119ef565b5b6000611a7684828501611a3d565b91505092915050565b600081519050919050565b600082825260208201905092915050565b6000819050602082019050919050565b611ab481611a14565b82525050565b6000819050919050565b611acd81611aba565b82525050565b60008115159050919050565b611ae881611ad3565b82525050565b606082016000820151611b046000850182611aab565b506020820151611b176020850182611ac4565b506040820151611b2a6040850182611adf565b50505050565b6000611b3c8383611aee565b60608301905092915050565b6000602082019050919050565b6000611b6082611a7f565b611b6a8185611a8a565b9350611b7583611a9b565b8060005b83811015611ba6578151611b8d8882611b30565b9750611b9883611b48565b925050600181019050611b79565b5085935050505092915050565b60006020820190508181036000830152611bcd8184611b55565b905092915050565b60008060408385031215611bec57611beb6119ef565b5b6000611bfa85828601611a3d565b9250506020611c0b85828601611a3d565b9150509250929050565b611c1e81611ad3565b82525050565b6000602082019050611c396000830184611c15565b92915050565b611c4881611aba565b82525050565b6000602082019050611c636000830184611c3f565b92915050565b7f4e487b7100000000000000000000000000000000000000000000000000000000600052602160045260246000fd5b611ca181611a14565b82525050565b6000602082019050611cbc6000830184611c98565b92915050565b60038110611ccf57600080fd5b50565b600081519050611ce181611cc2565b92915050565b600060208284031215611cfd57611cfc6119ef565b5b6000611d0b84828501611cd2565b91505092915050565b600082825260208201905092915050565b7f41646472657373206973206e6f7420612072656769737465726564207061746960008201527f656e740000000000000000000000000000000000000000000000000000000000602082015250565b6000611d81602383611d14565b9150611d8c82611d25565b604082019050919050565b60006020820190508181036000830152611db081611d74565b9050919050565b7f4f6e6c792070617469656e74732063616e2063616c6c20746869732066756e6360008201527f74696f6e00000000000000000000000000000000000000000000000000000000602082015250565b6000611e13602483611d14565b9150611e1e82611db7565b604082019050919050565b60006020820190508181036000830152611e4281611e06565b9050919050565b7f41646472657373206973206e6f742061207265676973746572656420646f637460008201527f6f72000000000000000000000000000000000000000000000000000000000000602082015250565b6000611ea5602283611d14565b9150611eb082611e49565b604082019050919050565b60006020820190508181036000830152611ed481611e98565b9050919050565b7f4e487b7100000000000000000000000000000000000000000000000000000000600052601160045260246000fd5b6000611f1582611aba565b9150611f2083611aba565b9250828203905081811115611f3857611f37611edb565b5b92915050565b7f4e487b7100000000000000000000000000000000000000000000000000000000600052603260045260246000fd5b7f41636365737320616c7265616479206772616e74656400000000000000000000600082015250565b6000611fa3601683611d14565b9150611fae82611f6d565b602082019050919050565b60006020820190508181036000830152611fd281611f96565b9050919050565b6000611fe482611aba565b9150611fef83611aba565b925082820190508082111561200757612006611edb565b5b92915050565b60006060820190506120226000830186611c98565b61202f6020830185611c98565b61203c6040830184611c15565b949350505050565b7f416c726561647920696e697469616c697a656400000000000000000000000000600082015250565b600061207a601383611d14565b915061208582612044565b602082019050919050565b600060208201905081810360008301526120a98161206d565b9050919050565b7f4e6f20616363657373206772616e74656420746f207468697320646f63746f72600082015250565b60006120e6602083611d14565b91506120f1826120b0565b602082019050919050565b60006020820190508181036000830152612115816120d9565b9050919050565b7f41636365737320616c7265616479207265766f6b656400000000000000000000600082015250565b6000612152601683611d14565b915061215d8261211c565b602082019050919050565b6000602082019050818103600083015261218181612145565b9050919050565b600061219382611aba565b91507fffffffffffffffffffffffffffffffffffffffffffffffffffffffffffffffff82036121c5576121c4611edb565b5b600182019050919050565b7f4e487b7100000000000000000000000000000000000000000000000000000000600052604160045260246000fdfea26469706673582212206390a4607713f228f0bf3b942b8089474c9c6559fe226ca4718784d4733ed93e64736f6c634300081c0033",
  "linkReferences": {},
  "deployedLinkReferences": {}
}