{
  "_format": "hh-sol-artifact-1",
  "contractName": "UserAccessRegistry",
  "sourceName": "contracts/UserAccessRegistry.sol",
  "abi": [
    {
      "anonymous": false,
      "inputs": [
        {
          "indexed": true,
          "internalType": "address",
          "name": "user",
          "type": "address"
        },
        {
          "indexed": false,
          "internalType": "enum UserAccessRegistry.Role",
          "name": "role",
          "type": "uint8"
        }
      ],
      "name": "UserRegistered",
      "type": "event"
    },
    {
      "inputs": [
        {
          "internalType": "address",
          "name": "user",
          "type": "address"
        }
      ],
      "name": "getUserRole",
      "outputs": [
        {
          "internalType": "enum UserAccessRegistry.Role",
          "name": "",
          "type": "uint8"
        }
      ],
      "stateMutability": "view",
      "type": "function"
    },
    {
      "inputs": [],
      "name": "isUserAuthenticated",
      "outputs": [
        {
          "internalType": "bool",
          "name": "",
          "type": "bool"
        }
      ],
      "stateMutability": "view",
      "type": "function"
    },
    {
      "inputs": [
        {
          "internalType": "enum UserAccessRegistry.Role",
          "name": "role",
          "type": "uint8"
        }
      ],
      "name": "registerUser",
      "outputs": [],
      "stateMutability": "nonpayable",
      "type": "function"
    }
  ],
  "bytecode": "0x608060405234801561001057600080fd5b5061067e806100206000396000f3fe608060405234801561001057600080fd5b50600436106100415760003560e01c806302b8c8cd146100465780632782085114610062578063c7e3b0a314610092575b600080fd5b610060600480360381019061005b91906103b9565b6100b0565b005b61007c60048036038101906100779190610444565b6102e1565b60405161008991906104e8565b60405180910390f35b61009a610339565b6040516100a7919061051e565b60405180910390f35b6000803373ffffffffffffffffffffffffffffffffffffffff1673ffffffffffffffffffffffffffffffffffffffff16815260200190815260200160002060000160009054906101000a900460ff161561013f576040517f08c379a000000000000000000000000000000000000000000000000000000000815260040161013690610596565b60405180910390fd5b6001600381111561015357610152610471565b5b81600381111561016657610165610471565b5b148061019657506002600381111561018157610180610471565b5b81600381111561019457610193610471565b5b145b6101d5576040517f08c379a00000000000000000000000000000000000000000000000000000000081526004016101cc90610628565b60405180910390fd5b60405180604001604052806001151581526020018260038111156101fc576101fb610471565b5b8152506000803373ffffffffffffffffffffffffffffffffffffffff1673ffffffffffffffffffffffffffffffffffffffff16815260200190815260200160002060008201518160000160006101000a81548160ff02191690831515021790555060208201518160000160016101000a81548160ff0219169083600381111561028857610287610471565b5b02179055509050503373ffffffffffffffffffffffffffffffffffffffff167f8e18574f8a7333e6a87112742a55853a643e2f0550f4e1a3a2c3f1bb2994441d826040516102d691906104e8565b60405180910390a250565b60008060008373ffffffffffffffffffffffffffffffffffffffff1673ffffffffffffffffffffffffffffffffffffffff16815260200190815260200160002060000160019054906101000a900460ff169050919050565b60008060003373ffffffffffffffffffffffffffffffffffffffff1673ffffffffffffffffffffffffffffffffffffffff16815260200190815260200160002060000160009054906101000a900460ff16905090565b600080fd5b600481106103a157600080fd5b50565b6000813590506103b381610394565b92915050565b6000602082840312156103cf576103ce61038f565b5b60006103dd848285016103a4565b91505092915050565b600073ffffffffffffffffffffffffffffffffffffffff82169050919050565b6000610411826103e6565b9050919050565b61042181610406565b811461042c57600080fd5b50565b60008135905061043e81610418565b92915050565b60006020828403121561045a5761045961038f565b5b60006104688482850161042f565b91505092915050565b7f4e487b7100000000000000000000000000000000000000000000000000000000600052602160045260246000fd5b600481106104b1576104b0610471565b5b50565b60008190506104c2826104a0565b919050565b60006104d2826104b4565b9050919050565b6104e2816104c7565b82525050565b60006020820190506104fd60008301846104d9565b92915050565b60008115159050919050565b61051881610503565b82525050565b6000602082019050610533600083018461050f565b92915050565b600082825260208201905092915050565b7f416c726561647920726567697374657265640000000000000000000000000000600082015250565b6000610580601283610539565b915061058b8261054a565b602082019050919050565b600060208201905081810360008301526105af81610573565b9050919050565b7f496e76616c696420726f6c6520666f722073656c662d7265676973747261746960008201527f6f6e000000000000000000000000000000000000000000000000000000000000602082015250565b6000610612602283610539565b915061061d826105b6565b604082019050919050565b6000602082019050818103600083015261064181610605565b905091905056fea2646970667358221220601988ecf656655ac4faeca6036976c93e7c57ea761b0e9f306581038c33c3e364736f6c63430008140033",
  "linkReferences": {},
  "deployedLinkReferences": {}
}