{
  "_format": "hh-sol-artifact-1",
  "contractName": "UserAccessRegistry",
  "sourceName": "contracts/UserAccessRegistry.sol",
  "abi": [
    {
      "anonymous": false,
      "inputs": [
        {
          "indexed": true,
          "internalType": "address",
          "name": "user",
          "type": "address"
        },
        {
          "indexed": false,
          "internalType": "enum UserAccessRegistry.Role",
          "name": "role",
          "type": "uint8"
        }
      ],
      "name": "UserRegistered",
      "type": "event"
    },
    {
      "inputs": [],
      "name": "ADMIN_PASSWORD_HASH",
      "outputs": [
        {
          "internalType": "bytes32",
          "name": "",
          "type": "bytes32"
        }
      ],
      "stateMutability": "view",
      "type": "function"
    },
    {
      "inputs": [],
      "name": "DOCTOR_PASSWORD_HASH",
      "outputs": [
        {
          "internalType": "bytes32",
          "name": "",
          "type": "bytes32"
        }
      ],
      "stateMutability": "view",
      "type": "function"
    },
    {
      "inputs": [
        {
          "internalType": "address",
          "name": "user",
          "type": "address"
        }
      ],
      "name": "getUserRole",
      "outputs": [
        {
          "internalType": "enum UserAccessRegistry.Role",
          "name": "",
          "type": "uint8"
        }
      ],
      "stateMutability": "view",
      "type": "function"
    },
    {
      "inputs": [
        {
          "internalType": "enum UserAccessRegistry.Role",
          "name": "role",
          "type": "uint8"
        },
        {
          "internalType": "string",
          "name": "password",
          "type": "string"
        }
      ],
      "name": "registerUser",
      "outputs": [],
      "stateMutability": "nonpayable",
      "type": "function"
    }
  ],
  "bytecode": "0x6080604052348015600f57600080fd5b50610b6d8061001f6000396000f3fe608060405234801561001057600080fd5b506004361061004c5760003560e01c806318f86f1514610051578063278208511461006f5780634f78f41a1461009f578063d29bcc5c146100bd575b600080fd5b6100596100d9565b6040516100669190610519565b60405180910390f35b610089600480360381019061008491906105a6565b610101565b604051610096919061064a565b60405180910390f35b6100a7610159565b6040516100b49190610519565b60405180910390f35b6100d760048036038101906100d291906107d0565b610181565b005b6040516020016100e890610883565b6040516020818303038152906040528051906020012081565b60008060008373ffffffffffffffffffffffffffffffffffffffff1673ffffffffffffffffffffffffffffffffffffffff16815260200190815260200160002060000160019054906101000a900460ff169050919050565b604051602001610168906108e4565b6040516020818303038152906040528051906020012081565b6000803373ffffffffffffffffffffffffffffffffffffffff1673ffffffffffffffffffffffffffffffffffffffff16815260200190815260200160002060000160009054906101000a900460ff1615610210576040517f08c379a000000000000000000000000000000000000000000000000000000000815260040161020790610956565b60405180910390fd5b60026003811115610224576102236105d3565b5b826003811115610237576102366105d3565b5b036102cd5760405160200161024b90610883565b604051602081830303815290604052805190602001208160405160200161027291906109dc565b60405160208183030381529060405280519060200120146102c8576040517f08c379a00000000000000000000000000000000000000000000000000000000081526004016102bf90610a3f565b60405180910390fd5b6103f3565b6003808111156102e0576102df6105d3565b5b8260038111156102f3576102f26105d3565b5b0361038957604051602001610307906108e4565b604051602081830303815290604052805190602001208160405160200161032e91906109dc565b6040516020818303038152906040528051906020012014610384576040517f08c379a000000000000000000000000000000000000000000000000000000000815260040161037b90610aab565b60405180910390fd5b6103f2565b6001600381111561039d5761039c6105d3565b5b8260038111156103b0576103af6105d3565b5b03156103f1576040517f08c379a00000000000000000000000000000000000000000000000000000000081526004016103e890610b17565b60405180910390fd5b5b5b604051806040016040528060011515815260200183600381111561041a576104196105d3565b5b8152506000803373ffffffffffffffffffffffffffffffffffffffff1673ffffffffffffffffffffffffffffffffffffffff16815260200190815260200160002060008201518160000160006101000a81548160ff02191690831515021790555060208201518160000160016101000a81548160ff021916908360038111156104a6576104a56105d3565b5b02179055509050503373ffffffffffffffffffffffffffffffffffffffff167f8e18574f8a7333e6a87112742a55853a643e2f0550f4e1a3a2c3f1bb2994441d836040516104f4919061064a565b60405180910390a25050565b6000819050919050565b61051381610500565b82525050565b600060208201905061052e600083018461050a565b92915050565b6000604051905090565b600080fd5b600080fd5b600073ffffffffffffffffffffffffffffffffffffffff82169050919050565b600061057382610548565b9050919050565b61058381610568565b811461058e57600080fd5b50565b6000813590506105a08161057a565b92915050565b6000602082840312156105bc576105bb61053e565b5b60006105ca84828501610591565b91505092915050565b7f4e487b7100000000000000000000000000000000000000000000000000000000600052602160045260246000fd5b60048110610613576106126105d3565b5b50565b600081905061062482610602565b919050565b600061063482610616565b9050919050565b61064481610629565b82525050565b600060208201905061065f600083018461063b565b92915050565b6004811061067257600080fd5b50565b60008135905061068481610665565b92915050565b600080fd5b600080fd5b6000601f19601f8301169050919050565b7f4e487b7100000000000000000000000000000000000000000000000000000000600052604160045260246000fd5b6106dd82610694565b810181811067ffffffffffffffff821117156106fc576106fb6106a5565b5b80604052505050565b600061070f610534565b905061071b82826106d4565b919050565b600067ffffffffffffffff82111561073b5761073a6106a5565b5b61074482610694565b9050602081019050919050565b82818337600083830152505050565b600061077361076e84610720565b610705565b90508281526020810184848401111561078f5761078e61068f565b5b61079a848285610751565b509392505050565b600082601f8301126107b7576107b661068a565b5b81356107c7848260208601610760565b91505092915050565b600080604083850312156107e7576107e661053e565b5b60006107f585828601610675565b925050602083013567ffffffffffffffff81111561081657610815610543565b5b610822858286016107a2565b9150509250929050565b600081905092915050565b7f6d65643132330000000000000000000000000000000000000000000000000000600082015250565b600061086d60068361082c565b915061087882610837565b600682019050919050565b600061088e82610860565b9150819050919050565b7f61646d696e313233000000000000000000000000000000000000000000000000600082015250565b60006108ce60088361082c565b91506108d982610898565b600882019050919050565b60006108ef826108c1565b9150819050919050565b600082825260208201905092915050565b7f416c726561647920726567697374657265640000000000000000000000000000600082015250565b60006109406012836108f9565b915061094b8261090a565b602082019050919050565b6000602082019050818103600083015261096f81610933565b9050919050565b600081519050919050565b60005b8381101561099f578082015181840152602081019050610984565b60008484015250505050565b60006109b682610976565b6109c0818561082c565b93506109d0818560208601610981565b80840191505092915050565b60006109e882846109ab565b915081905092915050565b7f496e76616c696420646f63746f722070617373776f7264000000000000000000600082015250565b6000610a296017836108f9565b9150610a34826109f3565b602082019050919050565b60006020820190508181036000830152610a5881610a1c565b9050919050565b7f496e76616c69642061646d696e2070617373776f726400000000000000000000600082015250565b6000610a956016836108f9565b9150610aa082610a5f565b602082019050919050565b60006020820190508181036000830152610ac481610a88565b9050919050565b7f496e76616c696420726f6c650000000000000000000000000000000000000000600082015250565b6000610b01600c836108f9565b9150610b0c82610acb565b602082019050919050565b60006020820190508181036000830152610b3081610af4565b905091905056fea2646970667358221220e1ea56f4c71212ea8cc13d6492683081d9e113a7532486e5cd27c1e65f9f22ae64736f6c634300081c0033",
  "linkReferences": {},
  "deployedLinkReferences": {}
}