{
  "_format": "hh-sol-artifact-1",
  "contractName": "UserAccessRegistry",
  "sourceName": "contracts/UserAccessRegistry.sol",
  "abi": [
    {
      "anonymous": false,
      "inputs": [
        {
          "indexed": true,
          "internalType": "address",
          "name": "user",
          "type": "address"
        },
        {
          "indexed": false,
          "internalType": "enum UserAccessRegistry.Role",
          "name": "role",
          "type": "uint8"
        }
      ],
      "name": "UserRegistered",
      "type": "event"
    },
    {
      "inputs": [],
      "name": "DOCTOR_PASSWORD_HASH",
      "outputs": [
        {
          "internalType": "bytes32",
          "name": "",
          "type": "bytes32"
        }
      ],
      "stateMutability": "view",
      "type": "function"
    },
    {
      "inputs": [
        {
          "internalType": "address",
          "name": "user",
          "type": "address"
        }
      ],
      "name": "getUserRole",
      "outputs": [
        {
          "internalType": "enum UserAccessRegistry.Role",
          "name": "",
          "type": "uint8"
        }
      ],
      "stateMutability": "view",
      "type": "function"
    },
    {
      "inputs": [
        {
          "internalType": "enum UserAccessRegistry.Role",
          "name": "role",
          "type": "uint8"
        },
        {
          "internalType": "string",
          "name": "password",
          "type": "string"
        }
      ],
      "name": "registerUser",
      "outputs": [],
      "stateMutability": "nonpayable",
      "type": "function"
    }
  ],
  "bytecode": "0x6080604052348015600f57600080fd5b506108b88061001f6000396000f3fe608060405234801561001057600080fd5b50600436106100415760003560e01c806318f86f15146100465780632782085114610064578063d29bcc5c14610094575b600080fd5b61004e6100b0565b60405161005b919061039d565b60405180910390f35b61007e6004803603810190610079919061042a565b6100d8565b60405161008b91906104ce565b60405180910390f35b6100ae60048036038101906100a99190610654565b610130565b005b6040516020016100bf90610707565b6040516020818303038152906040528051906020012081565b60008060008373ffffffffffffffffffffffffffffffffffffffff1673ffffffffffffffffffffffffffffffffffffffff16815260200190815260200160002060000160019054906101000a900460ff169050919050565b6000803373ffffffffffffffffffffffffffffffffffffffff1673ffffffffffffffffffffffffffffffffffffffff16815260200190815260200160002060000160009054906101000a900460ff16156101bf576040517f08c379a00000000000000000000000000000000000000000000000000000000081526004016101b690610779565b60405180910390fd5b6002808111156101d2576101d1610457565b5b8260028111156101e5576101e4610457565b5b03610277576040516020016101f990610707565b604051602081830303815290604052805190602001208160405160200161022091906107ff565b6040516020818303038152906040528051906020012014610276576040517f08c379a000000000000000000000000000000000000000000000000000000000815260040161026d90610862565b60405180910390fd5b5b604051806040016040528060011515815260200183600281111561029e5761029d610457565b5b8152506000803373ffffffffffffffffffffffffffffffffffffffff1673ffffffffffffffffffffffffffffffffffffffff16815260200190815260200160002060008201518160000160006101000a81548160ff02191690831515021790555060208201518160000160016101000a81548160ff0219169083600281111561032a57610329610457565b5b02179055509050503373ffffffffffffffffffffffffffffffffffffffff167f8e18574f8a7333e6a87112742a55853a643e2f0550f4e1a3a2c3f1bb2994441d8360405161037891906104ce565b60405180910390a25050565b6000819050919050565b61039781610384565b82525050565b60006020820190506103b2600083018461038e565b92915050565b6000604051905090565b600080fd5b600080fd5b600073ffffffffffffffffffffffffffffffffffffffff82169050919050565b60006103f7826103cc565b9050919050565b610407816103ec565b811461041257600080fd5b50565b600081359050610424816103fe565b92915050565b6000602082840312156104405761043f6103c2565b5b600061044e84828501610415565b91505092915050565b7f4e487b7100000000000000000000000000000000000000000000000000000000600052602160045260246000fd5b6003811061049757610496610457565b5b50565b60008190506104a882610486565b919050565b60006104b88261049a565b9050919050565b6104c8816104ad565b82525050565b60006020820190506104e360008301846104bf565b92915050565b600381106104f657600080fd5b50565b600081359050610508816104e9565b92915050565b600080fd5b600080fd5b6000601f19601f8301169050919050565b7f4e487b7100000000000000000000000000000000000000000000000000000000600052604160045260246000fd5b61056182610518565b810181811067ffffffffffffffff821117156105805761057f610529565b5b80604052505050565b60006105936103b8565b905061059f8282610558565b919050565b600067ffffffffffffffff8211156105bf576105be610529565b5b6105c882610518565b9050602081019050919050565b82818337600083830152505050565b60006105f76105f2846105a4565b610589565b90508281526020810184848401111561061357610612610513565b5b61061e8482856105d5565b509392505050565b600082601f83011261063b5761063a61050e565b5b813561064b8482602086016105e4565b91505092915050565b6000806040838503121561066b5761066a6103c2565b5b6000610679858286016104f9565b925050602083013567ffffffffffffffff81111561069a576106996103c7565b5b6106a685828601610626565b9150509250929050565b600081905092915050565b7f6d65643132330000000000000000000000000000000000000000000000000000600082015250565b60006106f16006836106b0565b91506106fc826106bb565b600682019050919050565b6000610712826106e4565b9150819050919050565b600082825260208201905092915050565b7f416c726561647920726567697374657265640000000000000000000000000000600082015250565b600061076360128361071c565b915061076e8261072d565b602082019050919050565b6000602082019050818103600083015261079281610756565b9050919050565b600081519050919050565b60005b838110156107c25780820151818401526020810190506107a7565b60008484015250505050565b60006107d982610799565b6107e381856106b0565b93506107f38185602086016107a4565b80840191505092915050565b600061080b82846107ce565b915081905092915050565b7f496e76616c696420646f63746f722070617373776f7264000000000000000000600082015250565b600061084c60178361071c565b915061085782610816565b602082019050919050565b6000602082019050818103600083015261087b8161083f565b905091905056fea264697066735822122027f386c4401be1f322c0d40bcde8c5fd986a4bf8168340b2380269478fb11f5664736f6c634300081c0033",
  "linkReferences": {},
  "deployedLinkReferences": {}
}