{
  "_format": "hh-sol-artifact-1",
  "contractName": "UserAccessRegistry",
  "sourceName": "contracts/UserAccessRegistry.sol",
  "abi": [
    {
      "anonymous": false,
      "inputs": [
        {
          "indexed": true,
          "internalType": "address",
          "name": "user",
          "type": "address"
        },
        {
          "indexed": false,
          "internalType": "bytes",
          "name": "newPublicKey",
          "type": "bytes"
        }
      ],
      "name": "PublicKeyUpdated",
      "type": "event"
    },
    {
      "anonymous": false,
      "inputs": [
        {
          "indexed": true,
          "internalType": "address",
          "name": "user",
          "type": "address"
        },
        {
          "indexed": false,
          "internalType": "enum UserAccessRegistry.Role",
          "name": "role",
          "type": "uint8"
        },
        {
          "indexed": false,
          "internalType": "bytes",
          "name": "publicKey",
          "type": "bytes"
        }
      ],
      "name": "UserRegistered",
      "type": "event"
    },
    {
      "inputs": [],
      "name": "MAX_PUBLIC_KEY_LENGTH",
      "outputs": [
        {
          "internalType": "uint256",
          "name": "",
          "type": "uint256"
        }
      ],
      "stateMutability": "view",
      "type": "function"
    },
    {
      "inputs": [
        {
          "internalType": "address[]",
          "name": "userAddresses",
          "type": "address[]"
        },
        {
          "internalType": "enum UserAccessRegistry.Role[]",
          "name": "roles",
          "type": "uint8[]"
        },
        {
          "internalType": "bytes[]",
          "name": "publicKeys",
          "type": "bytes[]"
        }
      ],
      "name": "batchRegister",
      "outputs": [],
      "stateMutability": "nonpayable",
      "type": "function"
    },
    {
      "inputs": [
        {
          "internalType": "address",
          "name": "user",
          "type": "address"
        }
      ],
      "name": "getPublicKey",
      "outputs": [
        {
          "internalType": "bytes",
          "name": "",
          "type": "bytes"
        }
      ],
      "stateMutability": "view",
      "type": "function"
    },
    {
      "inputs": [
        {
          "internalType": "address",
          "name": "user",
          "type": "address"
        }
      ],
      "name": "getRole",
      "outputs": [
        {
          "internalType": "enum UserAccessRegistry.Role",
          "name": "",
          "type": "uint8"
        }
      ],
      "stateMutability": "view",
      "type": "function"
    },
    {
      "inputs": [
        {
          "internalType": "address",
          "name": "user",
          "type": "address"
        },
        {
          "internalType": "enum UserAccessRegistry.Role",
          "name": "role",
          "type": "uint8"
        }
      ],
      "name": "hasRole",
      "outputs": [
        {
          "internalType": "bool",
          "name": "",
          "type": "bool"
        }
      ],
      "stateMutability": "view",
      "type": "function"
    },
    {
      "inputs": [
        {
          "internalType": "enum UserAccessRegistry.Role",
          "name": "role",
          "type": "uint8"
        },
        {
          "internalType": "bytes",
          "name": "publicKey",
          "type": "bytes"
        }
      ],
      "name": "registerUser",
      "outputs": [],
      "stateMutability": "nonpayable",
      "type": "function"
    },
    {
      "inputs": [
        {
          "internalType": "bytes",
          "name": "newPublicKey",
          "type": "bytes"
        }
      ],
      "name": "updatePublicKey",
      "outputs": [],
      "stateMutability": "nonpayable",
      "type": "function"
    }
  ],
  "bytecode": "0x608060405234801561001057600080fd5b50611b81806100206000396000f3fe608060405234801561001057600080fd5b506004361061007d5760003560e01c8063857cdbb81161005b578063857cdbb8146100ea57806395a8c58d1461011a578063c5effff41461014a578063c97ae254146101685761007d565b806322966ded14610082578063442767331461009e57806374e66d10146100ce575b600080fd5b61009c60048036038101906100979190610e32565b610184565b005b6100b860048036038101906100b39190610f44565b6106cf565b6040516100c59190610fe8565b60405180910390f35b6100e860048036038101906100e39190611059565b610727565b005b61010460048036038101906100ff9190610f44565b6108d7565b6040516101119190611136565b60405180910390f35b610134600480360381019061012f919061117d565b6109aa565b60405161014191906111d8565b60405180910390f35b610152610a29565b60405161015f919061120c565b60405180910390f35b610182600480360381019061017d9190611227565b610a2e565b005b838390508686905014801561019e57508181905084849050145b6101dd576040517f08c379a00000000000000000000000000000000000000000000000000000000081526004016101d4906112e4565b60405180910390fd5b6064868690501115610224576040517f08c379a000000000000000000000000000000000000000000000000000000000815260040161021b90611350565b60405180910390fd5b60005b868690508110156106c6576000600281111561024657610245610f71565b5b60008089898581811061025c5761025b611370565b5b90506020020160208101906102719190610f44565b73ffffffffffffffffffffffffffffffffffffffff1673ffffffffffffffffffffffffffffffffffffffff16815260200190815260200160002060000160009054906101000a900460ff1660028111156102ce576102cd610f71565b5b1461030e576040517f08c379a0000000000000000000000000000000000000000000000000000000008152600401610305906113eb565b60405180910390fd5b6001600281111561032257610321610f71565b5b85858381811061033557610334611370565b5b905060200201602081019061034a919061140b565b600281111561035c5761035b610f71565b5b14806103b2575060028081111561037657610375610f71565b5b85858381811061038957610388611370565b5b905060200201602081019061039e919061140b565b60028111156103b0576103af610f71565b5b145b6103f1576040517f08c379a00000000000000000000000000000000000000000000000000000000081526004016103e890611484565b60405180910390fd5b600083838381811061040657610405611370565b5b905060200281019061041891906114b3565b905011801561044e5750608083838381811061043757610436611370565b5b905060200281019061044991906114b3565b905011155b61048d576040517f08c379a000000000000000000000000000000000000000000000000000000000815260040161048490611562565b60405180910390fd5b60405180604001604052808686848181106104ab576104aa611370565b5b90506020020160208101906104c0919061140b565b60028111156104d2576104d1610f71565b5b81526020018484848181106104ea576104e9611370565b5b90506020028101906104fc91906114b3565b8080601f016020809104026020016040519081016040528093929190818152602001838380828437600081840152601f19601f8201169050808301925050505050505081525060008089898581811061055857610557611370565b5b905060200201602081019061056d9190610f44565b73ffffffffffffffffffffffffffffffffffffffff1673ffffffffffffffffffffffffffffffffffffffff16815260200190815260200160002060008201518160000160006101000a81548160ff021916908360028111156105d2576105d1610f71565b5b021790555060208201518160010190816105ec91906117bd565b5090505086868281811061060357610602611370565b5b90506020020160208101906106189190610f44565b73ffffffffffffffffffffffffffffffffffffffff167f162e990cdd60698f0a1af86ae84d43b671e396c89399da6a4d5a14c1c8e9667186868481811061066257610661611370565b5b9050602002016020810190610677919061140b565b85858581811061068a57610689611370565b5b905060200281019061069c91906114b3565b6040516106ab939291906118cb565b60405180910390a280806106be9061192c565b915050610227565b50505050505050565b60008060008373ffffffffffffffffffffffffffffffffffffffff1673ffffffffffffffffffffffffffffffffffffffff16815260200190815260200160002060000160009054906101000a900460ff169050919050565b6000600281111561073b5761073a610f71565b5b6000803373ffffffffffffffffffffffffffffffffffffffff1673ffffffffffffffffffffffffffffffffffffffff16815260200190815260200160002060000160009054906101000a900460ff16600281111561079c5761079b610f71565b5b036107dc576040517f08c379a00000000000000000000000000000000000000000000000000000000081526004016107d3906119c0565b60405180910390fd5b6000828290501180156107f3575060808282905011155b610832576040517f08c379a000000000000000000000000000000000000000000000000000000000815260040161082990611a2c565b60405180910390fd5b81816000803373ffffffffffffffffffffffffffffffffffffffff1673ffffffffffffffffffffffffffffffffffffffff1681526020019081526020016000206001019182610882929190611a57565b503373ffffffffffffffffffffffffffffffffffffffff167ff957f077e5d2d5a2c4a2793d09cb9c5d45b475d07bbd0b82abf99a5669b95e0883836040516108cb929190611b27565b60405180910390a25050565b60606000808373ffffffffffffffffffffffffffffffffffffffff1673ffffffffffffffffffffffffffffffffffffffff1681526020019081526020016000206001018054610925906115e0565b80601f0160208091040260200160405190810160405280929190818152602001828054610951906115e0565b801561099e5780601f106109735761010080835404028352916020019161099e565b820191906000526020600020905b81548152906001019060200180831161098157829003601f168201915b50505050509050919050565b60008160028111156109bf576109be610f71565b5b6000808573ffffffffffffffffffffffffffffffffffffffff1673ffffffffffffffffffffffffffffffffffffffff16815260200190815260200160002060000160009054906101000a900460ff166002811115610a2057610a1f610f71565b5b14905092915050565b608081565b60006002811115610a4257610a41610f71565b5b6000803373ffffffffffffffffffffffffffffffffffffffff1673ffffffffffffffffffffffffffffffffffffffff16815260200190815260200160002060000160009054906101000a900460ff166002811115610aa357610aa2610f71565b5b14610ae3576040517f08c379a0000000000000000000000000000000000000000000000000000000008152600401610ada906113eb565b60405180910390fd5b60016002811115610af757610af6610f71565b5b836002811115610b0a57610b09610f71565b5b1480610b395750600280811115610b2457610b23610f71565b5b836002811115610b3757610b36610f71565b5b145b610b78576040517f08c379a0000000000000000000000000000000000000000000000000000000008152600401610b6f90611484565b60405180910390fd5b600082829050118015610b8f575060808282905011155b610bce576040517f08c379a0000000000000000000000000000000000000000000000000000000008152600401610bc590611a2c565b60405180910390fd5b6040518060400160405280846002811115610bec57610beb610f71565b5b815260200183838080601f016020809104026020016040519081016040528093929190818152602001838380828437600081840152601f19601f820116905080830192505050505050508152506000803373ffffffffffffffffffffffffffffffffffffffff1673ffffffffffffffffffffffffffffffffffffffff16815260200190815260200160002060008201518160000160006101000a81548160ff02191690836002811115610ca257610ca1610f71565b5b02179055506020820151816001019081610cbc91906117bd565b509050503373ffffffffffffffffffffffffffffffffffffffff167f162e990cdd60698f0a1af86ae84d43b671e396c89399da6a4d5a14c1c8e96671848484604051610d0a939291906118cb565b60405180910390a2505050565b600080fd5b600080fd5b600080fd5b600080fd5b600080fd5b60008083601f840112610d4657610d45610d21565b5b8235905067ffffffffffffffff811115610d6357610d62610d26565b5b602083019150836020820283011115610d7f57610d7e610d2b565b5b9250929050565b60008083601f840112610d9c57610d9b610d21565b5b8235905067ffffffffffffffff811115610db957610db8610d26565b5b602083019150836020820283011115610dd557610dd4610d2b565b5b9250929050565b60008083601f840112610df257610df1610d21565b5b8235905067ffffffffffffffff811115610e0f57610e0e610d26565b5b602083019150836020820283011115610e2b57610e2a610d2b565b5b9250929050565b60008060008060008060608789031215610e4f57610e4e610d17565b5b600087013567ffffffffffffffff811115610e6d57610e6c610d1c565b5b610e7989828a01610d30565b9650965050602087013567ffffffffffffffff811115610e9c57610e9b610d1c565b5b610ea889828a01610d86565b9450945050604087013567ffffffffffffffff811115610ecb57610eca610d1c565b5b610ed789828a01610ddc565b92509250509295509295509295565b600073ffffffffffffffffffffffffffffffffffffffff82169050919050565b6000610f1182610ee6565b9050919050565b610f2181610f06565b8114610f2c57600080fd5b50565b600081359050610f3e81610f18565b92915050565b600060208284031215610f5a57610f59610d17565b5b6000610f6884828501610f2f565b91505092915050565b7f4e487b7100000000000000000000000000000000000000000000000000000000600052602160045260246000fd5b60038110610fb157610fb0610f71565b5b50565b6000819050610fc282610fa0565b919050565b6000610fd282610fb4565b9050919050565b610fe281610fc7565b82525050565b6000602082019050610ffd6000830184610fd9565b92915050565b60008083601f84011261101957611018610d21565b5b8235905067ffffffffffffffff81111561103657611035610d26565b5b60208301915083600182028301111561105257611051610d2b565b5b9250929050565b600080602083850312156110705761106f610d17565b5b600083013567ffffffffffffffff81111561108e5761108d610d1c565b5b61109a85828601611003565b92509250509250929050565b600081519050919050565b600082825260208201905092915050565b60005b838110156110e05780820151818401526020810190506110c5565b60008484015250505050565b6000601f19601f8301169050919050565b6000611108826110a6565b61111281856110b1565b93506111228185602086016110c2565b61112b816110ec565b840191505092915050565b6000602082019050818103600083015261115081846110fd565b905092915050565b6003811061116557600080fd5b50565b60008135905061117781611158565b92915050565b6000806040838503121561119457611193610d17565b5b60006111a285828601610f2f565b92505060206111b385828601611168565b9150509250929050565b60008115159050919050565b6111d2816111bd565b82525050565b60006020820190506111ed60008301846111c9565b92915050565b6000819050919050565b611206816111f3565b82525050565b600060208201905061122160008301846111fd565b92915050565b6000806000604084860312156112405761123f610d17565b5b600061124e86828701611168565b935050602084013567ffffffffffffffff81111561126f5761126e610d1c565b5b61127b86828701611003565b92509250509250925092565b600082825260208201905092915050565b7f4172726179206c656e677468206d69736d617463680000000000000000000000600082015250565b60006112ce601583611287565b91506112d982611298565b602082019050919050565b600060208201905081810360008301526112fd816112c1565b9050919050565b7f546f6f206d616e7920726567697374726174696f6e7300000000000000000000600082015250565b600061133a601683611287565b915061134582611304565b602082019050919050565b600060208201905081810360008301526113698161132d565b9050919050565b7f4e487b7100000000000000000000000000000000000000000000000000000000600052603260045260246000fd5b7f416c726561647920726567697374657265640000000000000000000000000000600082015250565b60006113d5601283611287565b91506113e08261139f565b602082019050919050565b60006020820190508181036000830152611404816113c8565b9050919050565b60006020828403121561142157611420610d17565b5b600061142f84828501611168565b91505092915050565b7f496e76616c696420726f6c650000000000000000000000000000000000000000600082015250565b600061146e600c83611287565b915061147982611438565b602082019050919050565b6000602082019050818103600083015261149d81611461565b9050919050565b600080fd5b600080fd5b600080fd5b600080833560016020038436030381126114d0576114cf6114a4565b5b80840192508235915067ffffffffffffffff8211156114f2576114f16114a9565b5b60208301925060018202360383131561150e5761150d6114ae565b5b509250929050565b7f496e76616c6964207075626c6963206b65790000000000000000000000000000600082015250565b600061154c601283611287565b915061155782611516565b602082019050919050565b6000602082019050818103600083015261157b8161153f565b9050919050565b7f4e487b7100000000000000000000000000000000000000000000000000000000600052604160045260246000fd5b7f4e487b7100000000000000000000000000000000000000000000000000000000600052602260045260246000fd5b600060028204905060018216806115f857607f821691505b60208210810361160b5761160a6115b1565b5b50919050565b60008190508160005260206000209050919050565b60006020601f8301049050919050565b600082821b905092915050565b6000600883026116737fffffffffffffffffffffffffffffffffffffffffffffffffffffffffffffffff82611636565b61167d8683611636565b95508019841693508086168417925050509392505050565b6000819050919050565b60006116ba6116b56116b0846111f3565b611695565b6111f3565b9050919050565b6000819050919050565b6116d48361169f565b6116e86116e0826116c1565b848454611643565b825550505050565b600090565b6116fd6116f0565b6117088184846116cb565b505050565b5b8181101561172c576117216000826116f5565b60018101905061170e565b5050565b601f8211156117715761174281611611565b61174b84611626565b8101602085101561175a578190505b61176e61176685611626565b83018261170d565b50505b505050565b600082821c905092915050565b600061179460001984600802611776565b1980831691505092915050565b60006117ad8383611783565b9150826002028217905092915050565b6117c6826110a6565b67ffffffffffffffff8111156117df576117de611582565b5b6117e982546115e0565b6117f4828285611730565b600060209050601f8311600181146118275760008415611815578287015190505b61181f85826117a1565b865550611887565b601f19841661183586611611565b60005b8281101561185d57848901518255600182019150602085019450602081019050611838565b8683101561187a5784890151611876601f891682611783565b8355505b6001600288020188555050505b505050505050565b82818337600083830152505050565b60006118aa83856110b1565b93506118b783858461188f565b6118c0836110ec565b840190509392505050565b60006040820190506118e06000830186610fd9565b81810360208301526118f381848661189e565b9050949350505050565b7f4e487b7100000000000000000000000000000000000000000000000000000000600052601160045260246000fd5b6000611937826111f3565b91507fffffffffffffffffffffffffffffffffffffffffffffffffffffffffffffffff8203611969576119686118fd565b5b600182019050919050565b7f4e6f742072656769737465726564000000000000000000000000000000000000600082015250565b60006119aa600e83611287565b91506119b582611974565b602082019050919050565b600060208201905081810360008301526119d98161199d565b9050919050565b7f496e76616c6964207075626c6963206b6579206c656e67746800000000000000600082015250565b6000611a16601983611287565b9150611a21826119e0565b602082019050919050565b60006020820190508181036000830152611a4581611a09565b9050919050565b600082905092915050565b611a618383611a4c565b67ffffffffffffffff811115611a7a57611a79611582565b5b611a8482546115e0565b611a8f828285611730565b6000601f831160018114611abe5760008415611aac578287013590505b611ab685826117a1565b865550611b1e565b601f198416611acc86611611565b60005b82811015611af457848901358255600182019150602085019450602081019050611acf565b86831015611b115784890135611b0d601f891682611783565b8355505b6001600288020188555050505b50505050505050565b60006020820190508181036000830152611b4281848661189e565b9050939250505056fea26469706673582212209cd0b6052ef2d13c4cb2757699f9f780277fb08a48ff91a22579dd3cb390155164736f6c63430008140033",
  "linkReferences": {},
  "deployedLinkReferences": {}
}